{
  "contractName": "InvestmentFactory",
  "abi": [
    {
      "constant": true,
      "inputs": [],
      "name": "investmentRankingContract",
      "outputs": [
        {
          "internalType": "contract InvestmentRanking",
          "name": "",
          "type": "address"
        }
      ],
      "payable": false,
      "stateMutability": "view",
      "type": "function"
    },
    {
      "constant": true,
      "inputs": [],
      "name": "_investmentRankingContractAddress",
      "outputs": [
        {
          "internalType": "address",
          "name": "",
          "type": "address"
        }
      ],
      "payable": false,
      "stateMutability": "view",
      "type": "function"
    },
    {
      "constant": true,
      "inputs": [
        {
          "internalType": "uint256",
          "name": "",
          "type": "uint256"
        }
      ],
      "name": "deployedInvestments",
      "outputs": [
        {
          "internalType": "contract Investment",
          "name": "",
          "type": "address"
        }
      ],
      "payable": false,
      "stateMutability": "view",
      "type": "function"
    },
    {
      "constant": true,
      "inputs": [],
      "name": "_manager",
      "outputs": [
        {
          "internalType": "address",
          "name": "",
          "type": "address"
        }
      ],
      "payable": false,
      "stateMutability": "view",
      "type": "function"
    },
    {
      "inputs": [
        {
          "internalType": "address",
          "name": "investmentRankingContractAddress",
          "type": "address"
        }
      ],
      "payable": false,
      "stateMutability": "nonpayable",
      "type": "constructor"
    },
    {
      "anonymous": false,
      "inputs": [
        {
          "indexed": true,
          "internalType": "address",
          "name": "managerAddress",
          "type": "address"
        },
        {
          "indexed": true,
          "internalType": "address",
          "name": "investmentContractAddress",
          "type": "address"
        }
      ],
      "name": "InvestmentCreated",
      "type": "event"
    },
    {
      "constant": false,
      "inputs": [
        {
          "internalType": "address",
          "name": "contractAddress",
          "type": "address"
        }
      ],
      "name": "updateInvestmentRankingContractAddress",
      "outputs": [],
      "payable": false,
      "stateMutability": "nonpayable",
      "type": "function"
    },
    {
      "constant": false,
      "inputs": [
        {
          "internalType": "address",
          "name": "manager",
          "type": "address"
        },
        {
          "internalType": "uint256",
          "name": "totalInvestmentCost",
          "type": "uint256"
        },
        {
          "internalType": "string",
          "name": "investmentTitle",
          "type": "string"
        },
        {
          "internalType": "string",
          "name": "investmentRationale",
          "type": "string"
        },
        {
          "internalType": "uint256",
          "name": "createdAt",
          "type": "uint256"
        },
        {
          "internalType": "uint256",
          "name": "investmentDeadlineTimestamp",
          "type": "uint256"
        },
        {
          "internalType": "uint256",
          "name": "commissionFee",
          "type": "uint256"
        }
      ],
      "name": "createInvestment",
      "outputs": [],
      "payable": false,
      "stateMutability": "nonpayable",
      "type": "function"
    },
    {
      "constant": true,
      "inputs": [],
      "name": "contractBalance",
      "outputs": [
        {
          "internalType": "uint256",
          "name": "",
          "type": "uint256"
        }
      ],
      "payable": false,
      "stateMutability": "view",
      "type": "function"
    },
    {
      "constant": true,
      "inputs": [],
      "name": "getBlockTimestamp",
      "outputs": [
        {
          "internalType": "uint256",
          "name": "",
          "type": "uint256"
        }
      ],
      "payable": false,
      "stateMutability": "view",
      "type": "function"
    },
    {
      "constant": true,
      "inputs": [],
      "name": "getDeployedInvestments",
      "outputs": [
        {
          "internalType": "contract Investment[]",
          "name": "",
          "type": "address[]"
        }
      ],
      "payable": false,
      "stateMutability": "view",
      "type": "function"
    }
  ],
  "bytecode": "0x608060405234801561001057600080fd5b5060405162003fe038038062003fe083398181016040526100349190810190610111565b80600260006101000a81548173ffffffffffffffffffffffffffffffffffffffff021916908373ffffffffffffffffffffffffffffffffffffffff16021790555080600360006101000a81548173ffffffffffffffffffffffffffffffffffffffff021916908373ffffffffffffffffffffffffffffffffffffffff160217905550336000806101000a81548173ffffffffffffffffffffffffffffffffffffffff021916908373ffffffffffffffffffffffffffffffffffffffff16021790555050610183565b60008151905061010b8161016c565b92915050565b60006020828403121561012357600080fd5b6000610131848285016100fc565b91505092915050565b60006101458261014c565b9050919050565b600073ffffffffffffffffffffffffffffffffffffffff82169050919050565b6101758161013a565b811461018057600080fd5b50565b613e4d80620001936000396000f3fe60806040523480156200001157600080fd5b5060043610620000a05760003560e01c80638b7afe2e116200006f5780638b7afe2e146200012b5780639509d775146200014d578063bc8289e3146200016d578063c208f0c314620001a3578063f0329f6b14620001c557620000a0565b80631fea7a5914620000a557806338e882c914620000c7578063796b89b914620000e957806388bc9e54146200010b575b600080fd5b620000af620001e7565b604051620000be919062000dae565b60405180910390f35b620000d16200020d565b604051620000e0919062000c39565b60405180910390f35b620000f362000233565b60405162000102919062000e0a565b60405180910390f35b62000129600480360362000123919081019062000932565b6200023b565b005b6200013562000650565b60405162000144919062000e0a565b60405180910390f35b6200016b600480360362000165919081019062000906565b6200066f565b005b6200018b600480360362000185919081019062000a3d565b6200074e565b6040516200019a919062000dcb565b60405180910390f35b620001ad6200078b565b604051620001bc919062000d8a565b60405180910390f35b620001cf6200081b565b604051620001de919062000c39565b60405180910390f35b600260009054906101000a900473ffffffffffffffffffffffffffffffffffffffff1681565b600360009054906101000a900473ffffffffffffffffffffffffffffffffffffffff1681565b600042905090565b600260009054906101000a900473ffffffffffffffffffffffffffffffffffffffff1673ffffffffffffffffffffffffffffffffffffffff1663edabf26888336040518363ffffffff1660e01b81526004016200029a92919062000c83565b600060405180830381600087803b158015620002b557600080fd5b505af1158015620002ca573d6000803e3d6000fd5b5050505060011515600260009054906101000a900473ffffffffffffffffffffffffffffffffffffffff1673ffffffffffffffffffffffffffffffffffffffff1663865afe0889896040518363ffffffff1660e01b81526004016200033192919062000cb0565b602060405180830381600087803b1580156200034c57600080fd5b505af115801562000361573d6000803e3d6000fd5b505050506040513d601f19601f8201168201806040525062000387919081019062000a11565b151514620003cc576040517f08c379a0000000000000000000000000000000000000000000000000000000008152600401620003c39062000de8565b60405180910390fd5b6000600260009054906101000a900473ffffffffffffffffffffffffffffffffffffffff1673ffffffffffffffffffffffffffffffffffffffff16639c1946e6896040518263ffffffff1660e01b81526004016200042b919062000c39565b602060405180830381600087803b1580156200044657600080fd5b505af11580156200045b573d6000803e3d6000fd5b505050506040513d601f19601f8201168201806040525062000481919081019062000a69565b905060008888888888888888600360009054906101000a900473ffffffffffffffffffffffffffffffffffffffff16604051620004be9062000840565b620004d29998979695949392919062000cdd565b604051809103906000f080158015620004ef573d6000803e3d6000fd5b50905060018190806001815401808255809150509060018203906000526020600020016000909192909190916101000a81548173ffffffffffffffffffffffffffffffffffffffff021916908373ffffffffffffffffffffffffffffffffffffffff160217905550508073ffffffffffffffffffffffffffffffffffffffff168973ffffffffffffffffffffffffffffffffffffffff167f6552efb96708f8d8cb1d89da3c241301e4be775239d5370195ede4207ace98e960405160405180910390a3600260009054906101000a900473ffffffffffffffffffffffffffffffffffffffff1673ffffffffffffffffffffffffffffffffffffffff16630aa9ab26828b6040518363ffffffff1660e01b81526004016200061192919062000c56565b600060405180830381600087803b1580156200062c57600080fd5b505af115801562000641573d6000803e3d6000fd5b50505050505050505050505050565b60003073ffffffffffffffffffffffffffffffffffffffff1631905090565b6000809054906101000a900473ffffffffffffffffffffffffffffffffffffffff1673ffffffffffffffffffffffffffffffffffffffff163373ffffffffffffffffffffffffffffffffffffffff1614620006c957600080fd5b80600260006101000a81548173ffffffffffffffffffffffffffffffffffffffff021916908373ffffffffffffffffffffffffffffffffffffffff16021790555080600360006101000a81548173ffffffffffffffffffffffffffffffffffffffff021916908373ffffffffffffffffffffffffffffffffffffffff16021790555050565b600181815481106200075c57fe5b906000526020600020016000915054906101000a900473ffffffffffffffffffffffffffffffffffffffff1681565b606060018054806020026020016040519081016040528092919081815260200182805480156200081157602002820191906000526020600020905b8160009054906101000a900473ffffffffffffffffffffffffffffffffffffffff1673ffffffffffffffffffffffffffffffffffffffff1681526020019060010190808311620007c6575b5050505050905090565b6000809054906101000a900473ffffffffffffffffffffffffffffffffffffffff1681565b612d92806200107983390190565b6000813590506200085f8162001010565b92915050565b60008151905062000876816200102a565b92915050565b600082601f8301126200088e57600080fd5b8135620008a56200089f8262000e55565b62000e27565b91508082526020830160208301858383011115620008c257600080fd5b620008cf83828462000fba565b50505092915050565b600081359050620008e98162001044565b92915050565b60008151905062000900816200105e565b92915050565b6000602082840312156200091957600080fd5b600062000929848285016200084e565b91505092915050565b600080600080600080600060e0888a0312156200094e57600080fd5b60006200095e8a828b016200084e565b9750506020620009718a828b01620008d8565b965050604088013567ffffffffffffffff8111156200098f57600080fd5b6200099d8a828b016200087c565b955050606088013567ffffffffffffffff811115620009bb57600080fd5b620009c98a828b016200087c565b9450506080620009dc8a828b01620008d8565b93505060a0620009ef8a828b01620008d8565b92505060c062000a028a828b01620008d8565b91505092959891949750929550565b60006020828403121562000a2457600080fd5b600062000a348482850162000865565b91505092915050565b60006020828403121562000a5057600080fd5b600062000a6084828501620008d8565b91505092915050565b60006020828403121562000a7c57600080fd5b600062000a8c84828501620008ef565b91505092915050565b600062000aa3838362000b4c565b60208301905092915050565b62000aba8162000f2e565b82525050565b62000acb8162000ed7565b82525050565b600062000ade8262000e92565b62000aea818562000eb5565b935062000af78362000e82565b8060005b8381101562000b2e57815162000b12888262000a95565b975062000b1f8362000ea8565b92505060018101905062000afb565b5085935050505092915050565b62000b468162000f42565b82525050565b62000b578162000f6a565b82525050565b62000b688162000f6a565b82525050565b600062000b7b8262000e9d565b62000b87818562000ec6565b935062000b9981856020860162000fc9565b62000ba48162000fff565b840191505092915050565b600062000bbe60238362000ec6565b91507f696e766573746d656e7420636f737420657863656564732072616e6b696e672060008301527f63617000000000000000000000000000000000000000000000000000000000006020830152604082019050919050565b62000c228162000f17565b82525050565b62000c338162000f21565b82525050565b600060208201905062000c50600083018462000ac0565b92915050565b600060408201905062000c6d600083018562000ac0565b62000c7c602083018462000ac0565b9392505050565b600060408201905062000c9a600083018562000ac0565b62000ca9602083018462000aaf565b9392505050565b600060408201905062000cc7600083018562000ac0565b62000cd6602083018462000c17565b9392505050565b60006101208201905062000cf5600083018c62000ac0565b62000d04602083018b62000c17565b818103604083015262000d18818a62000b6e565b9050818103606083015262000d2e818962000b6e565b905062000d3f608083018862000c17565b62000d4e60a083018762000c17565b62000d5d60c083018662000c17565b62000d6c60e083018562000c28565b62000d7c61010083018462000ac0565b9a9950505050505050505050565b6000602082019050818103600083015262000da6818462000ad1565b905092915050565b600060208201905062000dc5600083018462000b3b565b92915050565b600060208201905062000de2600083018462000b5d565b92915050565b6000602082019050818103600083015262000e038162000baf565b9050919050565b600060208201905062000e21600083018462000c17565b92915050565b6000604051905081810181811067ffffffffffffffff8211171562000e4b57600080fd5b8060405250919050565b600067ffffffffffffffff82111562000e6d57600080fd5b601f19601f8301169050602081019050919050565b6000819050602082019050919050565b600081519050919050565b600081519050919050565b6000602082019050919050565b600082825260208201905092915050565b600082825260208201905092915050565b600062000ee48262000ef7565b9050919050565b60008115159050919050565b600073ffffffffffffffffffffffffffffffffffffffff82169050919050565b6000819050919050565b600060ff82169050919050565b600062000f3b8262000f92565b9050919050565b600062000f4f8262000f56565b9050919050565b600062000f638262000ef7565b9050919050565b600062000f778262000f7e565b9050919050565b600062000f8b8262000ef7565b9050919050565b600062000f9f8262000fa6565b9050919050565b600062000fb38262000ef7565b9050919050565b82818337600083830152505050565b60005b8381101562000fe957808201518184015260208101905062000fcc565b8381111562000ff9576000848401525b50505050565b6000601f19601f8301169050919050565b6200101b8162000ed7565b81146200102757600080fd5b50565b620010358162000eeb565b81146200104157600080fd5b50565b6200104f8162000f17565b81146200105b57600080fd5b50565b620010698162000f21565b81146200107557600080fd5b5056fe60806040526305f5e100600b5560405162002d9238038062002d928339818101604052620000319190810190620002c4565b886000806101000a81548173ffffffffffffffffffffffffffffffffffffffff021916908373ffffffffffffffffffffffffffffffffffffffff1602179055508760038190555086600590805190602001906200009092919062000174565b508560069080519060200190620000a992919062000174565b508460098190555083600a819055506000600c60006101000a81548160ff02191690836002811115620000d857fe5b02179055506000600c60016101000a81548160ff02191690836001811115620000fd57fe5b02179055508260078190555081600060146101000a81548160ff021916908360ff16021790555080601160006101000a81548173ffffffffffffffffffffffffffffffffffffffff021916908373ffffffffffffffffffffffffffffffffffffffff160217905550505050505050505050620004f9565b828054600181600116156101000203166002900490600052602060002090601f016020900481019282601f10620001b757805160ff1916838001178555620001e8565b82800160010185558215620001e8579182015b82811115620001e7578251825591602001919060010190620001ca565b5b509050620001f79190620001fb565b5090565b6200022091905b808211156200021c57600081600090555060010162000202565b5090565b90565b6000815190506200023481620004ab565b92915050565b600082601f8301126200024c57600080fd5b8151620002636200025d82620003fd565b620003cf565b915080825260208301602083018583830111156200028057600080fd5b6200028d83828462000475565b50505092915050565b600081519050620002a781620004c5565b92915050565b600081519050620002be81620004df565b92915050565b60008060008060008060008060006101208a8c031215620002e457600080fd5b6000620002f48c828d0162000223565b9950506020620003078c828d0162000296565b98505060408a015167ffffffffffffffff8111156200032557600080fd5b620003338c828d016200023a565b97505060608a015167ffffffffffffffff8111156200035157600080fd5b6200035f8c828d016200023a565b9650506080620003728c828d0162000296565b95505060a0620003858c828d0162000296565b94505060c0620003988c828d0162000296565b93505060e0620003ab8c828d01620002ad565b925050610100620003bf8c828d0162000223565b9150509295985092959850929598565b6000604051905081810181811067ffffffffffffffff82111715620003f357600080fd5b8060405250919050565b600067ffffffffffffffff8211156200041557600080fd5b601f19601f8301169050602081019050919050565b600062000437826200043e565b9050919050565b600073ffffffffffffffffffffffffffffffffffffffff82169050919050565b6000819050919050565b600060ff82169050919050565b60005b838110156200049557808201518184015260208101905062000478565b83811115620004a5576000848401525b50505050565b620004b6816200042a565b8114620004c257600080fd5b50565b620004d0816200045e565b8114620004dc57600080fd5b50565b620004ea8162000468565b8114620004f657600080fd5b50565b61288980620005096000396000f3fe6080604052600436106101ee5760003560e01c8063aa8b6d331161010d578063d31ac71d116100a0578063ea57e1961161006f578063ea57e196146106a3578063f0329f6b146106ba578063f1c8e942146106e5578063f9076a1d14610710578063fc8153c81461073b576101ee565b8063d31ac71d146105e5578063da4fb21814610624578063e0b3fe6a1461065a578063e8b5e51f14610699576101ee565b8063bd2efce9116100dc578063bd2efce91461053b578063bf3e394e14610566578063c92f14261461057d578063c9f83bed146105ba576101ee565b8063aa8b6d3314610491578063aae91de4146104ce578063acb7cf42146104e5578063b124e27914610510576101ee565b80635ed38ac4116101855780639ca27946116101545780639ca27946146103c15780639d61edd8146103fe578063a25aab9f1461043b578063a69c0b5614610466576101ee565b80635ed38ac41461033d5780636103d70b14610354578063796b89b91461036b57806399fa90e814610396576101ee565b80632d82aa52116101c15780632d82aa52146102905780633abd5f47146102bb5780634a4479f2146102e65780634b4ba3ba14610312576101ee565b806318dfcf7b146101f35780631b33cc7b1461021e5780631b9265b81461025b5780631e31faf614610265575b600080fd5b3480156101ff57600080fd5b50610208610766565b6040516102159190612633565b60405180910390f35b34801561022a57600080fd5b5061024560048036036102409190810190611fc9565b610779565b60405161025291906125b8565b60405180910390f35b6102636107c2565b005b34801561027157600080fd5b5061027a6109f2565b6040516102879190612633565b60405180910390f35b34801561029c57600080fd5b506102a5610a05565b6040516102b291906125b8565b60405180910390f35b3480156102c757600080fd5b506102d0610a0b565b6040516102dd91906125b8565b60405180910390f35b3480156102f257600080fd5b506102fb610a11565b6040516103099291906125d3565b60405180910390f35b34801561031e57600080fd5b50610327610aa8565b60405161033491906125b8565b60405180910390f35b34801561034957600080fd5b50610352610aae565b005b34801561036057600080fd5b50610369610d10565b005b34801561037757600080fd5b50610380610f86565b60405161038d91906125b8565b60405180910390f35b3480156103a257600080fd5b506103ab610f8e565b6040516103b891906124c0565b60405180910390f35b3480156103cd57600080fd5b506103e860048036036103e39190810190611fc9565b610fa1565b6040516103f591906125b8565b60405180910390f35b34801561040a57600080fd5b5061042560048036036104209190810190611fc9565b610fea565b60405161043291906125b8565b60405180910390f35b34801561044757600080fd5b50610450611002565b60405161045d91906125b8565b60405180910390f35b34801561047257600080fd5b5061047b611008565b6040516104889190612483565b60405180910390f35b34801561049d57600080fd5b506104b860048036036104b39190810190611fc9565b6110d1565b6040516104c591906125b8565b60405180910390f35b3480156104da57600080fd5b506104e36110e9565b005b3480156104f157600080fd5b506104fa61114c565b60405161050791906125b8565b60405180910390f35b34801561051c57600080fd5b50610525611152565b60405161053291906124f6565b60405180910390f35b34801561054757600080fd5b506105506111f0565b60405161055d91906125b8565b60405180910390f35b34801561057257600080fd5b5061057b6111f6565b005b34801561058957600080fd5b506105a4600480360361059f9190810190611fc9565b611347565b6040516105b19190612483565b60405180910390f35b3480156105c657600080fd5b506105cf61144f565b6040516105dc91906125b8565b60405180910390f35b3480156105f157600080fd5b5061060c6004803603610607919081019061206f565b611455565b60405161061b939291906125fc565b60405180910390f35b34801561063057600080fd5b506106396114ac565b6040516106519c9b9a999897969594939291906123bb565b60405180910390f35b34801561066657600080fd5b50610681600480360361067c9190810190611ff2565b611691565b604051610690939291906125fc565b60405180910390f35b6106a16116f5565b005b3480156106af57600080fd5b506106b86119a2565b005b3480156106c657600080fd5b506106cf611b8a565b6040516106dc91906123a0565b60405180910390f35b3480156106f157600080fd5b506106fa611baf565b60405161070791906124db565b60405180910390f35b34801561071c57600080fd5b50610725611bc2565b60405161073291906124f6565b60405180910390f35b34801561074757600080fd5b50610750611c60565b60405161075d91906124a5565b60405180910390f35b600860009054906101000a900460ff1681565b6000600160008373ffffffffffffffffffffffffffffffffffffffff1673ffffffffffffffffffffffffffffffffffffffff168152602001908152602001600020549050919050565b6107ca6110e9565b600160028111156107d757fe5b600c60009054906101000a900460ff1660028111156107f257fe5b14610843573373ffffffffffffffffffffffffffffffffffffffff166108fc349081150290604051600060405180830381858888f1935050505015801561083d573d6000803e3d6000fd5b506109f0565b61084b611ed0565b60405180606001604052804281526020013481526020013373ffffffffffffffffffffffffffffffffffffffff168152509050600d60003373ffffffffffffffffffffffffffffffffffffffff1673ffffffffffffffffffffffffffffffffffffffff1681526020019081526020016000208190806001815401808255809150509060018203906000526020600020906003020160009091929091909150600082015181600001556020820151816001015560408201518160020160006101000a81548173ffffffffffffffffffffffffffffffffffffffff021916908373ffffffffffffffffffffffffffffffffffffffff160217905550505050600e8190806001815401808255809150509060018203906000526020600020906003020160009091929091909150600082015181600001556020820151816001015560408201518160020160006101000a81548173ffffffffffffffffffffffffffffffffffffffff021916908373ffffffffffffffffffffffffffffffffffffffff1602179055505050506109e834600f54611c8690919063ffffffff16565b600f81905550505b565b600060149054906101000a900460ff1681565b60045481565b600f5481565b6000806000600160003373ffffffffffffffffffffffffffffffffffffffff1673ffffffffffffffffffffffffffffffffffffffff1681526020019081526020016000205490506000600260003373ffffffffffffffffffffffffffffffffffffffff1673ffffffffffffffffffffffffffffffffffffffff16815260200190815260200160002054905081819350935050509091565b60095481565b610ab66110e9565b60016002811115610ac357fe5b600c60009054906101000a900460ff166002811115610ade57fe5b141580610b0f5750600180811115610af257fe5b600c60019054906101000a900460ff166001811115610b0d57fe5b145b15610b1957610d0e565b6060601160009054906101000a900473ffffffffffffffffffffffffffffffffffffffff1673ffffffffffffffffffffffffffffffffffffffff1663c52097d46000809054906101000a900473ffffffffffffffffffffffffffffffffffffffff166040518263ffffffff1660e01b8152600401610b9791906123a0565b600060405180830381600087803b158015610bb157600080fd5b505af1158015610bc5573d6000803e3d6000fd5b505050506040513d6000823e3d601f19601f82011682018060405250610bee919081019061202e565b9050600080905060008090505b8251811015610c5d573373ffffffffffffffffffffffffffffffffffffffff16838281518110610c2757fe5b602002602001015173ffffffffffffffffffffffffffffffffffffffff161415610c5057600191505b8080600101915050610bfb565b5080610c9e576040517f08c379a0000000000000000000000000000000000000000000000000000000008152600401610c9590612578565b60405180910390fd5b3373ffffffffffffffffffffffffffffffffffffffff166108fc6003549081150290604051600060405180830381858888f19350505050158015610ce6573d6000803e3d6000fd5b506001600c60016101000a81548160ff02191690836001811115610d0657fe5b021790555050505b565b6000600160003373ffffffffffffffffffffffffffffffffffffffff1673ffffffffffffffffffffffffffffffffffffffff168152602001908152602001600020541415610d5d57610f84565b6000600260003373ffffffffffffffffffffffffffffffffffffffff1673ffffffffffffffffffffffffffffffffffffffff1681526020019081526020016000205490506000601060003373ffffffffffffffffffffffffffffffffffffffff1673ffffffffffffffffffffffffffffffffffffffff1681526020019081526020016000205490506000600e805490509050808210610dfe57505050610f84565b600080905060008390505b82811015610ef3576000600e8281548110610e2057fe5b90600052602060002090600302016001015490506000610e406064611cdb565b90506000610e4f600754611cdb565b90506000610e668284611d0d90919063ffffffff16565b90506000610e9262989680610e848488611d6390919063ffffffff16565b611dd390919063ffffffff16565b90506000610ebe62989680610eb08d85611d6390919063ffffffff16565b611dd390919063ffffffff16565b9050610ed4600a82611d6390919063ffffffff16565b8801975089806001019a50505050505050508080600101915050610e09565b5082601060003373ffffffffffffffffffffffffffffffffffffffff1673ffffffffffffffffffffffffffffffffffffffff168152602001908152602001600020819055503373ffffffffffffffffffffffffffffffffffffffff166108fc829081150290604051600060405180830381858888f19350505050158015610f7e573d6000803e3d6000fd5b50505050505b565b600042905090565b600c60009054906101000a900460ff1681565b6000600260008373ffffffffffffffffffffffffffffffffffffffff1673ffffffffffffffffffffffffffffffffffffffff168152602001908152602001600020549050919050565b60016020528060005260406000206000915090505481565b600b5481565b6060600e805480602002602001604051908101604052809291908181526020016000905b828210156110c8578382906000526020600020906003020160405180606001604052908160008201548152602001600182015481526020016002820160009054906101000a900473ffffffffffffffffffffffffffffffffffffffff1673ffffffffffffffffffffffffffffffffffffffff1673ffffffffffffffffffffffffffffffffffffffff16815250508152602001906001019061102c565b50505050905090565b60026020528060005260406000206000915090505481565b600160028111156110f657fe5b600c60009054906101000a900460ff16600281111561111157fe5b141580156111205750600a5442115b1561114a576002600c60006101000a81548160ff0219169083600281111561114457fe5b02179055505b565b60035481565b60068054600181600116156101000203166002900480601f0160208091040260200160405190810160405280929190818152602001828054600181600116156101000203166002900480156111e85780601f106111bd576101008083540402835291602001916111e8565b820191906000526020600020905b8154815290600101906020018083116111cb57829003601f168201915b505050505081565b60075481565b6000600160003373ffffffffffffffffffffffffffffffffffffffff1673ffffffffffffffffffffffffffffffffffffffff16815260200190815260200160002054141561124357611345565b61124b6110e9565b60028081111561125757fe5b600c60009054906101000a900460ff16600281111561127257fe5b1415611344573373ffffffffffffffffffffffffffffffffffffffff166108fc600160003373ffffffffffffffffffffffffffffffffffffffff1673ffffffffffffffffffffffffffffffffffffffff168152602001908152602001600020549081150290604051600060405180830381858888f193505050501580156112fd573d6000803e3d6000fd5b506000600160003373ffffffffffffffffffffffffffffffffffffffff1673ffffffffffffffffffffffffffffffffffffffff168152602001908152602001600020819055505b5b565b6060600d60008373ffffffffffffffffffffffffffffffffffffffff1673ffffffffffffffffffffffffffffffffffffffff168152602001908152602001600020805480602002602001604051908101604052809291908181526020016000905b82821015611444578382906000526020600020906003020160405180606001604052908160008201548152602001600182015481526020016002820160009054906101000a900473ffffffffffffffffffffffffffffffffffffffff1673ffffffffffffffffffffffffffffffffffffffff1673ffffffffffffffffffffffffffffffffffffffff1681525050815260200190600101906113a8565b505050509050919050565b600a5481565b600e818154811061146257fe5b90600052602060002090600302016000915090508060000154908060010154908060020160009054906101000a900473ffffffffffffffffffffffffffffffffffffffff16905083565b6000806060806000806000806000806000806000809054906101000a900473ffffffffffffffffffffffffffffffffffffffff1660035460056006600954600a54600c60009054906101000a900460ff16600754600454600860009054906101000a900460ff16600c60019054906101000a900460ff16600060149054906101000a900460ff16898054600181600116156101000203166002900480601f0160208091040260200160405190810160405280929190818152602001828054600181600116156101000203166002900480156115c85780601f1061159d576101008083540402835291602001916115c8565b820191906000526020600020905b8154815290600101906020018083116115ab57829003601f168201915b50505050509950888054600181600116156101000203166002900480601f0160208091040260200160405190810160405280929190818152602001828054600181600116156101000203166002900480156116645780601f1061163957610100808354040283529160200191611664565b820191906000526020600020905b81548152906001019060200180831161164757829003601f168201915b505050505098509b509b509b509b509b509b509b509b509b509b509b509b50909192939495969798999a9b565b600d60205281600052604060002081815481106116aa57fe5b9060005260206000209060030201600091509150508060000154908060010154908060020160009054906101000a900473ffffffffffffffffffffffffffffffffffffffff16905083565b6116fd6110e9565b60028081111561170957fe5b600c60009054906101000a900460ff16600281111561172457fe5b148061175557506001600281111561173857fe5b600c60009054906101000a900460ff16600281111561175357fe5b145b156117a6573373ffffffffffffffffffffffffffffffffffffffff166108fc349081150290604051600060405180830381858888f193505050501580156117a0573d6000803e3d6000fd5b506119a0565b6000600160003373ffffffffffffffffffffffffffffffffffffffff1673ffffffffffffffffffffffffffffffffffffffff168152602001908152602001600020541415611821576008600081819054906101000a900460ff168092919060010191906101000a81548160ff021916908360ff160217905550505b6000349050600081600454019050600354811115611890576000600354820390503373ffffffffffffffffffffffffffffffffffffffff166108fc829081150290604051600060405180830381858888f19350505050158015611888573d6000803e3d6000fd5b508083039250505b81600160003373ffffffffffffffffffffffffffffffffffffffff1673ffffffffffffffffffffffffffffffffffffffff1681526020019081526020016000205401600160003373ffffffffffffffffffffffffffffffffffffffff1673ffffffffffffffffffffffffffffffffffffffff1681526020019081526020016000208190555061195d600160003373ffffffffffffffffffffffffffffffffffffffff1673ffffffffffffffffffffffffffffffffffffffff16815260200190815260200160002054611e2f565b816004600082825401925050819055506003546004541061199d576001600c60006101000a81548160ff0219169083600281111561199757fe5b02179055505b50505b565b6000809054906101000a900473ffffffffffffffffffffffffffffffffffffffff1673ffffffffffffffffffffffffffffffffffffffff163373ffffffffffffffffffffffffffffffffffffffff16146119fb57600080fd5b6000601060003373ffffffffffffffffffffffffffffffffffffffff1673ffffffffffffffffffffffffffffffffffffffff1681526020019081526020016000205490506000600e805490509050808210611a57575050611b88565b600080905060008390505b82811015611af8576000600e8281548110611a7957fe5b90600052602060002090600302016001015490506000611a9a600754611cdb565b90506000611ac662989680611ab88486611d6390919063ffffffff16565b611dd390919063ffffffff16565b9050611adc600a82611d6390919063ffffffff16565b8501945086806001019750505050508080600101915050611a62565b5082601060003373ffffffffffffffffffffffffffffffffffffffff1673ffffffffffffffffffffffffffffffffffffffff168152602001908152602001600020819055503373ffffffffffffffffffffffffffffffffffffffff166108fc829081150290604051600060405180830381858888f19350505050158015611b83573d6000803e3d6000fd5b505050505b565b6000809054906101000a900473ffffffffffffffffffffffffffffffffffffffff1681565b600c60019054906101000a900460ff1681565b60058054600181600116156101000203166002900480601f016020809104026020016040519081016040528092919081815260200182805460018160011615610100020316600290048015611c585780601f10611c2d57610100808354040283529160200191611c58565b820191906000526020600020905b815481529060010190602001808311611c3b57829003601f168201915b505050505081565b601160009054906101000a900473ffffffffffffffffffffffffffffffffffffffff1681565b600080828401905083811015611cd1576040517f08c379a0000000000000000000000000000000000000000000000000000000008152600401611cc890612518565b60405180910390fd5b8091505092915050565b6000611d06612710611cf8600b5485611d6390919063ffffffff16565b611dd390919063ffffffff16565b9050919050565b600082821115611d52576040517f08c379a0000000000000000000000000000000000000000000000000000000008152600401611d4990612538565b60405180910390fd5b600082840390508091505092915050565b600080831415611d765760009050611dcd565b6000828402905082848281611d8757fe5b0414611dc8576040517f08c379a0000000000000000000000000000000000000000000000000000000008152600401611dbf90612598565b60405180910390fd5b809150505b92915050565b6000808211611e17576040517f08c379a0000000000000000000000000000000000000000000000000000000008152600401611e0e90612558565b60405180910390fd5b6000828481611e2257fe5b0490508091505092915050565b6000611e46600b5483611d6390919063ffffffff16565b90506000611e726005611e6460035485611dd390919063ffffffff16565b611c8690919063ffffffff16565b9050611e88600a82611dd390919063ffffffff16565b600260003373ffffffffffffffffffffffffffffffffffffffff1673ffffffffffffffffffffffffffffffffffffffff16815260200190815260200160002081905550505050565b60405180606001604052806000815260200160008152602001600073ffffffffffffffffffffffffffffffffffffffff1681525090565b600081359050611f1681612818565b92915050565b600081519050611f2b81612818565b92915050565b600082601f830112611f4257600080fd5b8151611f55611f508261267b565b61264e565b91508181835260208401935060208101905083856020840282011115611f7a57600080fd5b60005b83811015611faa5781611f908882611f1c565b845260208401935060208301925050600181019050611f7d565b5050505092915050565b600081359050611fc38161282f565b92915050565b600060208284031215611fdb57600080fd5b6000611fe984828501611f07565b91505092915050565b6000806040838503121561200557600080fd5b600061201385828601611f07565b925050602061202485828601611fb4565b9150509250929050565b60006020828403121561204057600080fd5b600082015167ffffffffffffffff81111561205a57600080fd5b61206684828501611f31565b91505092915050565b60006020828403121561208157600080fd5b600061208f84828501611fb4565b91505092915050565b60006120a48383612331565b60608301905092915050565b6120b981612703565b82525050565b6120c881612703565b82525050565b60006120d9826126b3565b6120e381856126e1565b93506120ee836126a3565b8060005b8381101561211f5781516121068882612098565b9750612111836126d4565b9250506001810190506120f2565b5085935050505092915050565b61213581612772565b82525050565b61214481612796565b82525050565b612153816127a8565b82525050565b6000612164826126c9565b61216e81856126f2565b935061217e8185602086016127ba565b612187816127ed565b840191505092915050565b600061219d826126be565b6121a781856126f2565b93506121b78185602086016127ba565b6121c0816127ed565b840191505092915050565b60006121d8601b836126f2565b91507f536166654d6174683a206164646974696f6e206f766572666c6f7700000000006000830152602082019050919050565b6000612218601e836126f2565b91507f536166654d6174683a207375627472616374696f6e206f766572666c6f7700006000830152602082019050919050565b6000612258601a836126f2565b91507f536166654d6174683a206469766973696f6e206279207a65726f0000000000006000830152602082019050919050565b6000612298601d836126f2565b91507f6572726f723a206d7573742062652070726f787920636f6e74726163740000006000830152602082019050919050565b60006122d86021836126f2565b91507f536166654d6174683a206d756c7469706c69636174696f6e206f766572666c6f60008301527f77000000000000000000000000000000000000000000000000000000000000006020830152604082019050919050565b6060820160008201516123476000850182612373565b50602082015161235a6020850182612373565b50604082015161236d60408501826120b0565b50505050565b61237c8161275b565b82525050565b61238b8161275b565b82525050565b61239a81612765565b82525050565b60006020820190506123b560008301846120bf565b92915050565b6000610180820190506123d1600083018f6120bf565b6123de602083018e612382565b81810360408301526123f0818d612159565b90508181036060830152612404818c612159565b9050612413608083018b612382565b61242060a083018a612382565b61242d60c083018961213b565b61243a60e0830188612382565b612448610100830187612382565b612456610120830186612391565b61246461014083018561214a565b612472610160830184612391565b9d9c50505050505050505050505050565b6000602082019050818103600083015261249d81846120ce565b905092915050565b60006020820190506124ba600083018461212c565b92915050565b60006020820190506124d5600083018461213b565b92915050565b60006020820190506124f0600083018461214a565b92915050565b600060208201905081810360008301526125108184612192565b905092915050565b60006020820190508181036000830152612531816121cb565b9050919050565b600060208201905081810360008301526125518161220b565b9050919050565b600060208201905081810360008301526125718161224b565b9050919050565b600060208201905081810360008301526125918161228b565b9050919050565b600060208201905081810360008301526125b1816122cb565b9050919050565b60006020820190506125cd6000830184612382565b92915050565b60006040820190506125e86000830185612382565b6125f56020830184612382565b9392505050565b60006060820190506126116000830186612382565b61261e6020830185612382565b61262b60408301846120bf565b949350505050565b60006020820190506126486000830184612391565b92915050565b6000604051905081810181811067ffffffffffffffff8211171561267157600080fd5b8060405250919050565b600067ffffffffffffffff82111561269257600080fd5b602082029050602081019050919050565b6000819050602082019050919050565b600081519050919050565b600081519050919050565b600081519050919050565b6000602082019050919050565b600082825260208201905092915050565b600082825260208201905092915050565b600061270e8261273b565b9050919050565b6000819050612723826127fe565b919050565b60008190506127368261280b565b919050565b600073ffffffffffffffffffffffffffffffffffffffff82169050919050565b6000819050919050565b600060ff82169050919050565b600061277d82612784565b9050919050565b600061278f8261273b565b9050919050565b60006127a182612715565b9050919050565b60006127b382612728565b9050919050565b60005b838110156127d85780820151818401526020810190506127bd565b838111156127e7576000848401525b50505050565b6000601f19601f8301169050919050565b6003811061280857fe5b50565b6002811061281557fe5b50565b61282181612703565b811461282c57600080fd5b50565b6128388161275b565b811461284357600080fd5b5056fea365627a7a72315820587a62ab51b7e3f43794ba0bd3b5fa89e7ec58227cfe2c1343427208d0aa7cda6c6578706572696d656e74616cf564736f6c634300050b0040a365627a7a723158206aea504d68d58e25163e715e5e7c59f8d61af1a885758f8c70d6201f6e2bcecc6c6578706572696d656e74616cf564736f6c634300050b0040",
  "source": "pragma solidity ^0.5.0;\r\npragma experimental ABIEncoderV2;\r\nimport \"./SafeMath.sol\";\r\n\r\ninterface InvestmentRanking {\r\n    function createInvestmentManagerIfNotExists (address investmentManagerAddress, address proxyContractAddress) external;\r\n    function saveInvestment(address investmentAddress, address investmentManagerAddress) external;\r\n    function isInvestmentAllowed(address investmentManagerAddress, uint256 investmentCost) external returns(bool);\r\n    function getInvestmentManagerRanking(address investmentManagerAddress) external returns (uint8);\r\n    function getProxyContractsOfAddress (address investmentManagerAddress) external returns (address[] memory);\r\n}\r\n\r\ncontract InvestmentFactory {\r\n    address public _manager;                        //creator of the investment factory\r\n    event InvestmentCreated (address indexed managerAddress, address indexed investmentContractAddress);\r\n    Investment[] public deployedInvestments;\r\n    InvestmentRanking public investmentRankingContract;\r\n    address public _investmentRankingContractAddress;\r\n\r\n    modifier onlyManager() {\r\n        require(msg.sender == _manager);\r\n        _;\r\n    }\r\n\r\n    constructor(address investmentRankingContractAddress) public{\r\n        investmentRankingContract = InvestmentRanking(investmentRankingContractAddress);\r\n        _investmentRankingContractAddress = investmentRankingContractAddress;\r\n        _manager = msg.sender;\r\n    }\r\n\r\n    function updateInvestmentRankingContractAddress (address contractAddress) external onlyManager() {\r\n        investmentRankingContract = InvestmentRanking(contractAddress);\r\n        _investmentRankingContractAddress = contractAddress;\r\n    }\r\n\r\n    function createInvestment(address manager, uint256 totalInvestmentCost, string memory investmentTitle, string memory investmentRationale,\r\n        uint256 createdAt, uint256 investmentDeadlineTimestamp, uint256 commissionFee) public{\r\n\r\n        //create this investment manager if they do not exist\r\n        //msg.sender corresponds to the proxy contract using uPort\r\n        investmentRankingContract.createInvestmentManagerIfNotExists(manager, msg.sender);\r\n\r\n        //check that investment manager is allowed to create this investment based on their ranking\r\n        require(investmentRankingContract.isInvestmentAllowed(manager, totalInvestmentCost) == true, \"investment cost exceeds ranking cap\");\r\n\r\n        //get manager's ranking\r\n        uint8 managerRanking = investmentRankingContract.getInvestmentManagerRanking(manager);\r\n        \r\n        Investment newInvestment = new Investment(\r\n            manager,\r\n            totalInvestmentCost,\r\n            investmentTitle,\r\n            investmentRationale,\r\n            createdAt,\r\n            investmentDeadlineTimestamp,\r\n            commissionFee,\r\n            managerRanking,\r\n            _investmentRankingContractAddress\r\n        );\r\n\r\n        //store investment\r\n        deployedInvestments.push(newInvestment);\r\n        //emit event\r\n        emit InvestmentCreated(manager, address(newInvestment));\r\n\r\n        //update investmentManagers details in ranking contract\r\n        investmentRankingContract.saveInvestment(address(newInvestment), manager);\r\n    }\r\n\r\n    function contractBalance() public view returns(uint256){\r\n        return address(this).balance;\r\n    }\r\n\r\n    function getBlockTimestamp() public view returns (uint){\r\n        return block.timestamp;\r\n    }\r\n\r\n    function getDeployedInvestments() public view returns (Investment[] memory){\r\n        return deployedInvestments;\r\n    }\r\n}\r\n\r\ncontract Investment {\r\n    using SafeMath for uint256;\r\n    \r\n    address public _manager;                        //creator of the investment\r\n    uint8 public _managerRanking;                   //investment ranking of the creator of the investment\r\n    mapping(address => uint256) public _investments;//mapping of all the addresses that have invested and their investment amounts\r\n    mapping(address => uint256) public _percentageShares; //mapping of all the percentages that investors are entitled to based on their investment contribution\r\n    uint256 public _totalInvestmentCost;            //investment goal to be funded\r\n    uint256 public _totalInvestmentContributed;     //total investment amount contributed\r\n    string public _investmentTitle;                 //investment title\r\n    string public _investmentRationale;             //investment rationale\r\n    uint256 public _commissionFee;                  //fee charged by investment creator\r\n    uint8   public _investorCount;                  //number of investors\r\n    uint    public _createdAt;                      //unix timestamp indicating Investment creation\r\n    uint    public _investmentDeadlineTimestamp;    //deadline for funding this investment\r\n    uint256 public _precision = 10 ** 8;\r\n\r\n    enum InvestmentStatus {INPROGRESS, COMPLETED, FAILED}   //status of investment\r\n    InvestmentStatus public _investmentStatus;              //current status of investment\r\n\r\n    //keeps track of whether manager has already withdrawn the investments (once investment is in COMPLETED InvestmentStatus state)\r\n    enum InvestmentTransferStatus {INCOMPLETE, COMPLETED}\r\n    InvestmentTransferStatus public _investmentTransferStatus;\r\n\r\n    struct Payment {\r\n        uint256 timestamp;\r\n        uint256 amount;\r\n        address payerAddress;\r\n    }\r\n    mapping(address => Payment[]) public _paymentsFromAddress;  //mapping of all payments made to this contract\r\n    Payment[] public _allPayments; //all payments made to this investment contract (regardless of sender)\r\n    uint256 public _totalPayments; //sum of all payments made to this investment contract (regardless of sender)\r\n    mapping (address => uint256) _paymentIndexWithdrawnByAddress; //mapping containing the payments index withdrawn by a particular investor\r\n\r\n    InvestmentRanking public _investmentRankingContract; //instance of investment ranking contract\r\n\r\n    constructor(address manager, uint256 totalInvestmentCost, string memory investmentTitle, string memory investmentRationale,\r\n        uint256 createdAt, uint256 investmentDeadlineTimestamp, uint256 commissionFee, uint8 managerRanking, address investmentRankingContractAddress) public payable{\r\n        _manager = manager;\r\n        _totalInvestmentCost = totalInvestmentCost;\r\n        _investmentTitle = investmentTitle;\r\n        _investmentRationale = investmentRationale;\r\n        _createdAt = createdAt;\r\n        _investmentDeadlineTimestamp = investmentDeadlineTimestamp;\r\n        _investmentStatus = InvestmentStatus.INPROGRESS;\r\n        _investmentTransferStatus = InvestmentTransferStatus.INCOMPLETE;\r\n        _commissionFee = commissionFee;\r\n        _managerRanking = managerRanking;\r\n\r\n        _investmentRankingContract = InvestmentRanking(investmentRankingContractAddress);\r\n    }\r\n\r\n    modifier onlyManager() {\r\n        require(msg.sender == _manager);\r\n        _;\r\n    }\r\n\r\n    function invest() external payable {\r\n\r\n        //check the status of the contract, investments are only allowed into investments which are still in progress\r\n        checkContractStatus();\r\n        if (_investmentStatus == InvestmentStatus.FAILED || _investmentStatus == InvestmentStatus.COMPLETED){\r\n            msg.sender.transfer(msg.value);\r\n            return;\r\n        }\r\n\r\n        //increment the number of investors, only if its a new investor\r\n        if (_investments[msg.sender] == 0) {\r\n            _investorCount++;\r\n        }\r\n        \r\n        //ensure that investors cannot overinvest (precaution)\r\n        uint256 currentInvestmentContribution = msg.value;\r\n        uint256 totalInvestmentWithCurrentContribution = _totalInvestmentContributed + currentInvestmentContribution;\r\n        if (totalInvestmentWithCurrentContribution > _totalInvestmentCost) {\r\n            uint256 refund = totalInvestmentWithCurrentContribution - _totalInvestmentCost;\r\n            msg.sender.transfer(refund);\r\n            currentInvestmentContribution = currentInvestmentContribution - refund;\r\n        } \r\n\r\n        //record the investors investment\r\n        _investments[msg.sender] = _investments[msg.sender] + currentInvestmentContribution;\r\n\r\n        //calculate percentage share\r\n        calculatePercentageShare(_investments[msg.sender]);\r\n\r\n        //update total investment made\r\n        _totalInvestmentContributed += currentInvestmentContribution;\r\n\r\n        //mark investment as completed if totalInvestmentCost has been contributed\r\n        if(_totalInvestmentContributed >= _totalInvestmentCost){\r\n            _investmentStatus = InvestmentStatus.COMPLETED;\r\n        }\r\n    }\r\n\r\n    function transferInvestmentContributions() external {\r\n        checkContractStatus();\r\n\r\n        if (_investmentStatus != InvestmentStatus.COMPLETED || _investmentTransferStatus == InvestmentTransferStatus.COMPLETED){\r\n            return;\r\n        }\r\n\r\n        //get manager's proxy contracts\r\n        address[] memory proxyContracts = _investmentRankingContract.getProxyContractsOfAddress(_manager);\r\n\r\n        //there should not be a significant amount of proxy contracts (if this changes, then consider a mapping rather)\r\n        bool isProxyContract = false;\r\n        for(uint i = 0; i < proxyContracts.length; i++){\r\n            if (proxyContracts[i] == msg.sender){\r\n                isProxyContract = true;\r\n            }\r\n        }\r\n        require(isProxyContract, \"error: must be proxy contract\");\r\n\r\n        //transfer investment contributions to manager\r\n        msg.sender.transfer(_totalInvestmentCost);\r\n\r\n        //set InvestmentTransferStatus to COMPLETED\r\n        _investmentTransferStatus = InvestmentTransferStatus.COMPLETED;\r\n    }\r\n\r\n    function pay() external payable {\r\n        //check the status of the contract, payments are only allowed if invesment is completely funded (COMPLETED)\r\n        checkContractStatus();\r\n        if (_investmentStatus != InvestmentStatus.COMPLETED){\r\n            msg.sender.transfer(msg.value);\r\n            return;\r\n        }\r\n\r\n        //create payment record\r\n        Payment memory payment = Payment(block.timestamp, msg.value, msg.sender);\r\n        _paymentsFromAddress[msg.sender].push(payment);\r\n        _allPayments.push(payment);\r\n        _totalPayments = _totalPayments.add(msg.value);\r\n    }\r\n\r\n    function getPaymentRecords(address payerAddress) public view returns (Payment[] memory) {\r\n        return _paymentsFromAddress[payerAddress];\r\n    }\r\n\r\n    function getAllPaymentRecords() public view returns (Payment[] memory){\r\n        return _allPayments;\r\n    }\r\n\r\n    function calculatePercentageShare(uint256 contribution) internal {\r\n        uint numerator = contribution.mul(_precision);\r\n        uint temp = numerator.div(_totalInvestmentCost).add(5); // proper rounding up\r\n        _percentageShares[msg.sender] = temp.div(10);\r\n    }    \r\n\r\n    function calculatePercentage(uint percentage) internal view returns (uint256) {\r\n        return percentage.mul(_precision).div(10 ** 4);\r\n    }\r\n\r\n    function withdrawPayments () external {\r\n        //ensure that caller is actually an investor\r\n        if (_investments[msg.sender] == 0){\r\n            return;\r\n        }\r\n        \r\n        //get contributer's percentage share\r\n        uint256 percentageShare = _percentageShares[msg.sender];\r\n\r\n        //get payment index\r\n        uint256 paymentIndex = _paymentIndexWithdrawnByAddress[msg.sender];\r\n\r\n        //loop through payments not yet withdrawn and calculate amount owed to investor (after fee's)\r\n        uint256 numberOfPayments = _allPayments.length;\r\n\r\n        //assert that there are payments to withdraw\r\n        if (paymentIndex >= numberOfPayments){\r\n            return;\r\n        }\r\n\r\n        uint totalPaymentShare = 0;\r\n        for(uint i = paymentIndex; i < numberOfPayments; i++){\r\n            //calculate percentage\r\n            uint paymentAmount = _allPayments[i].amount;\r\n            //manager fee 10% => 10 000 00\r\n            uint oneHundredPercent = calculatePercentage(100);\r\n            uint managerFee = calculatePercentage(_commissionFee);\r\n            uint feePercentage = oneHundredPercent.sub(managerFee);\r\n            \r\n            uint baseAmountSubtractingFees = paymentAmount.mul(feePercentage).div(10 ** 7);\r\n            uint paymentShare = baseAmountSubtractingFees.mul(percentageShare).div(10 ** 7);\r\n            totalPaymentShare += paymentShare.mul(10 ** 1);\r\n            paymentIndex++;\r\n        }\r\n        //update payments that have been withdrawn for this address\r\n        _paymentIndexWithdrawnByAddress[msg.sender] = paymentIndex;\r\n\r\n        //transfer money\r\n        msg.sender.transfer(totalPaymentShare);\r\n    }\r\n\r\n    function withdrawPaymentsAsManager () external onlyManager(){\r\n         //get payment index\r\n        uint256 paymentIndex = _paymentIndexWithdrawnByAddress[msg.sender];\r\n\r\n        //loop through payments not yet withdrawn and calculate amount owed to investor (after fee's)\r\n        uint256 numberOfPayments = _allPayments.length;\r\n\r\n        //assert that there are payments to withdraw\r\n        if (paymentIndex >= numberOfPayments){\r\n            return;\r\n        }\r\n\r\n        uint totalPaymentShare = 0;\r\n        for(uint i = paymentIndex; i < numberOfPayments; i++){\r\n            //calculate percentage\r\n            uint paymentAmount = _allPayments[i].amount;\r\n            uint managerFee = calculatePercentage(_commissionFee);\r\n\r\n            uint paymentShare = paymentAmount.mul(managerFee).div(10 ** 7);\r\n            totalPaymentShare += paymentShare.mul(10 ** 1);\r\n            paymentIndex++;\r\n        }\r\n        //update payments that have been withdrawn for this address\r\n        _paymentIndexWithdrawnByAddress[msg.sender] = paymentIndex;\r\n\r\n        //transfer money\r\n        msg.sender.transfer(totalPaymentShare);\r\n    }\r\n\r\n    //returns the investment contribution of an address\r\n    function getInvestmentContribution (address contributerAddress) public view returns (uint256){\r\n        return _investments[contributerAddress];\r\n    }\r\n\r\n    //returns the percentage share of this investment associated with the calling address\r\n    function getPercentageShare (address contributerAddress) public view returns (uint256){\r\n        return _percentageShares[contributerAddress];\r\n    }\r\n\r\n    function getBlockTimestamp() public view returns (uint){\r\n        return block.timestamp;\r\n    }\r\n\r\n    function getInvestmentContributionSummary() public view returns (uint256, uint256) {\r\n        uint256 investmentContribution = _investments[msg.sender];\r\n        uint256 investmentPercentageShare = _percentageShares[msg.sender];\r\n        return (\r\n            investmentContribution,\r\n            investmentPercentageShare\r\n        );\r\n    }\r\n\r\n    function checkContractStatus() public {\r\n        if (_investmentStatus != InvestmentStatus.COMPLETED && block.timestamp > _investmentDeadlineTimestamp)\r\n        {\r\n            _investmentStatus = InvestmentStatus.FAILED;\r\n        }\r\n    }\r\n\r\n    function withdrawInvestment() external {\r\n        //ensure that caller is actually an investor\r\n        if (_investments[msg.sender] == 0){\r\n            return;\r\n        }\r\n\r\n        checkContractStatus();\r\n        if (_investmentStatus == InvestmentStatus.FAILED){\r\n            //transfer money back to investor\r\n            msg.sender.transfer(_investments[msg.sender]);\r\n            //reset investment contribution\r\n            _investments[msg.sender] = 0;\r\n        }\r\n    }\r\n\r\n    function getInvestmentSummary() public view returns (address, uint256, string memory, string memory, \r\n    uint256, uint256, InvestmentStatus, uint256, uint256, uint8, InvestmentTransferStatus, uint8) {\r\n\r\n        return (\r\n            _manager,\r\n            _totalInvestmentCost,\r\n            _investmentTitle,\r\n            _investmentRationale,\r\n            _createdAt,\r\n            _investmentDeadlineTimestamp,\r\n            _investmentStatus,\r\n            _commissionFee,\r\n            _totalInvestmentContributed,\r\n            _investorCount,\r\n            _investmentTransferStatus,\r\n            _managerRanking\r\n        );\r\n    }\r\n \r\n}",
  "sourcePath": "C:\\repos\\ParmesanPals\\contracts\\InvestmentFactory.sol",
  "compiler": {
    "name": "solc",
    "version": "0.5.11+commit.c082d0b4.Emscripten.clang",
    "optimizer": false,
    "runs": 200
  },
  "schemaVersion": "2.2.0",
  "updatedAt": "2019-09-13T18:46:46.046Z"
}