{
  "contractName": "InvestmentFactory",
  "abi": [
    {
      "constant": true,
      "inputs": [],
      "name": "investmentRankingContract",
      "outputs": [
        {
          "name": "",
          "type": "address"
        }
      ],
      "payable": false,
      "stateMutability": "view",
      "type": "function"
    },
    {
      "constant": true,
      "inputs": [],
      "name": "_investmentRankingContractAddress",
      "outputs": [
        {
          "name": "",
          "type": "address"
        }
      ],
      "payable": false,
      "stateMutability": "view",
      "type": "function"
    },
    {
      "constant": true,
      "inputs": [
        {
          "name": "",
          "type": "uint256"
        }
      ],
      "name": "deployedInvestments",
      "outputs": [
        {
          "name": "",
          "type": "address"
        }
      ],
      "payable": false,
      "stateMutability": "view",
      "type": "function"
    },
    {
      "constant": true,
      "inputs": [],
      "name": "_manager",
      "outputs": [
        {
          "name": "",
          "type": "address"
        }
      ],
      "payable": false,
      "stateMutability": "view",
      "type": "function"
    },
    {
      "inputs": [
        {
          "name": "investmentRankingContractAddress",
          "type": "address"
        }
      ],
      "payable": false,
      "stateMutability": "nonpayable",
      "type": "constructor"
    },
    {
      "anonymous": false,
      "inputs": [
        {
          "indexed": true,
          "name": "managerAddress",
          "type": "address"
        },
        {
          "indexed": true,
          "name": "investmentContractAddress",
          "type": "address"
        }
      ],
      "name": "InvestmentCreated",
      "type": "event"
    },
    {
      "constant": false,
      "inputs": [
        {
          "name": "contractAddress",
          "type": "address"
        }
      ],
      "name": "updateInvestmentRankingContractAddress",
      "outputs": [],
      "payable": false,
      "stateMutability": "nonpayable",
      "type": "function"
    },
    {
      "constant": false,
      "inputs": [
        {
          "name": "manager",
          "type": "address"
        },
        {
          "name": "totalInvestmentCost",
          "type": "uint256"
        },
        {
          "name": "investmentTitle",
          "type": "string"
        },
        {
          "name": "investmentRationale",
          "type": "string"
        },
        {
          "name": "createdAt",
          "type": "uint256"
        },
        {
          "name": "investmentDeadlineTimestamp",
          "type": "uint256"
        },
        {
          "name": "commissionFee",
          "type": "uint256"
        }
      ],
      "name": "createInvestment",
      "outputs": [],
      "payable": false,
      "stateMutability": "nonpayable",
      "type": "function"
    },
    {
      "constant": true,
      "inputs": [],
      "name": "contractBalance",
      "outputs": [
        {
          "name": "",
          "type": "uint256"
        }
      ],
      "payable": false,
      "stateMutability": "view",
      "type": "function"
    },
    {
      "constant": true,
      "inputs": [],
      "name": "getBlockTimestamp",
      "outputs": [
        {
          "name": "",
          "type": "uint256"
        }
      ],
      "payable": false,
      "stateMutability": "view",
      "type": "function"
    },
    {
      "constant": true,
      "inputs": [],
      "name": "getDeployedInvestments",
      "outputs": [
        {
          "name": "",
          "type": "address[]"
        }
      ],
      "payable": false,
      "stateMutability": "view",
      "type": "function"
    }
  ],
  "bytecode": "0x608060405234801561001057600080fd5b50604051602080620040238339810180604052610030919081019061010c565b80600260006101000a81548173ffffffffffffffffffffffffffffffffffffffff021916908373ffffffffffffffffffffffffffffffffffffffff16021790555080600360006101000a81548173ffffffffffffffffffffffffffffffffffffffff021916908373ffffffffffffffffffffffffffffffffffffffff160217905550336000806101000a81548173ffffffffffffffffffffffffffffffffffffffff021916908373ffffffffffffffffffffffffffffffffffffffff16021790555050610167565b60006101048251610135565b905092915050565b60006020828403121561011e57600080fd5b600061012c848285016100f8565b91505092915050565b600061014082610147565b9050919050565b600073ffffffffffffffffffffffffffffffffffffffff82169050919050565b613eac80620001776000396000f3fe60806040523480156200001157600080fd5b5060043610620000bd576000357c0100000000000000000000000000000000000000000000000000000000900480638b7afe2e116200008c5780638b7afe2e14620001485780639509d775146200016a578063bc8289e3146200018a578063c208f0c314620001c0578063f0329f6b14620001e257620000bd565b80631fea7a5914620000c257806338e882c914620000e4578063796b89b9146200010657806388bc9e541462000128575b600080fd5b620000cc62000204565b604051620000db919062000e3b565b60405180910390f35b620000ee6200022a565b604051620000fd919062000cc6565b60405180910390f35b6200011062000250565b6040516200011f919062000e97565b60405180910390f35b620001466004803603620001409190810190620009c3565b62000258565b005b62000152620006df565b60405162000161919062000e97565b60405180910390f35b62000188600480360362000182919081019062000997565b620006fe565b005b620001a86004803603620001a2919081019062000ace565b620007df565b604051620001b7919062000e58565b60405180910390f35b620001ca6200081e565b604051620001d9919062000e17565b60405180910390f35b620001ec620008ae565b604051620001fb919062000cc6565b60405180910390f35b600260009054906101000a900473ffffffffffffffffffffffffffffffffffffffff1681565b600360009054906101000a900473ffffffffffffffffffffffffffffffffffffffff1681565b600042905090565b600260009054906101000a900473ffffffffffffffffffffffffffffffffffffffff1673ffffffffffffffffffffffffffffffffffffffff1663edabf26888336040518363ffffffff167c0100000000000000000000000000000000000000000000000000000000028152600401620002d392919062000d10565b600060405180830381600087803b158015620002ee57600080fd5b505af115801562000303573d6000803e3d6000fd5b5050505060011515600260009054906101000a900473ffffffffffffffffffffffffffffffffffffffff1673ffffffffffffffffffffffffffffffffffffffff1663865afe0889896040518363ffffffff167c01000000000000000000000000000000000000000000000000000000000281526004016200038692919062000d3d565b602060405180830381600087803b158015620003a157600080fd5b505af1158015620003b6573d6000803e3d6000fd5b505050506040513d601f19601f82011682018060405250620003dc919081019062000aa2565b151514151562000423576040517f08c379a00000000000000000000000000000000000000000000000000000000081526004016200041a9062000e75565b60405180910390fd5b6000600260009054906101000a900473ffffffffffffffffffffffffffffffffffffffff1673ffffffffffffffffffffffffffffffffffffffff16639c1946e6896040518263ffffffff167c01000000000000000000000000000000000000000000000000000000000281526004016200049e919062000cc6565b602060405180830381600087803b158015620004b957600080fd5b505af1158015620004ce573d6000803e3d6000fd5b505050506040513d601f19601f82011682018060405250620004f4919081019062000afa565b905060008888888888888888600360009054906101000a900473ffffffffffffffffffffffffffffffffffffffff166040516200053190620008d3565b620005459998979695949392919062000d6a565b604051809103906000f08015801562000562573d6000803e3d6000fd5b50905060018190806001815401808255809150509060018203906000526020600020016000909192909190916101000a81548173ffffffffffffffffffffffffffffffffffffffff021916908373ffffffffffffffffffffffffffffffffffffffff160217905550508073ffffffffffffffffffffffffffffffffffffffff168973ffffffffffffffffffffffffffffffffffffffff167f6552efb96708f8d8cb1d89da3c241301e4be775239d5370195ede4207ace98e960405160405180910390a3600260009054906101000a900473ffffffffffffffffffffffffffffffffffffffff1673ffffffffffffffffffffffffffffffffffffffff16630aa9ab26828b6040518363ffffffff167c0100000000000000000000000000000000000000000000000000000000028152600401620006a092919062000ce3565b600060405180830381600087803b158015620006bb57600080fd5b505af1158015620006d0573d6000803e3d6000fd5b50505050505050505050505050565b60003073ffffffffffffffffffffffffffffffffffffffff1631905090565b6000809054906101000a900473ffffffffffffffffffffffffffffffffffffffff1673ffffffffffffffffffffffffffffffffffffffff163373ffffffffffffffffffffffffffffffffffffffff161415156200075a57600080fd5b80600260006101000a81548173ffffffffffffffffffffffffffffffffffffffff021916908373ffffffffffffffffffffffffffffffffffffffff16021790555080600360006101000a81548173ffffffffffffffffffffffffffffffffffffffff021916908373ffffffffffffffffffffffffffffffffffffffff16021790555050565b600181815481101515620007ef57fe5b906000526020600020016000915054906101000a900473ffffffffffffffffffffffffffffffffffffffff1681565b60606001805480602002602001604051908101604052809291908181526020018280548015620008a457602002820191906000526020600020905b8160009054906101000a900473ffffffffffffffffffffffffffffffffffffffff1673ffffffffffffffffffffffffffffffffffffffff168152602001906001019080831162000859575b5050505050905090565b6000809054906101000a900473ffffffffffffffffffffffffffffffffffffffff1681565b612d8d80620010e683390190565b6000620008ef823562000fac565b905092915050565b600062000905825162000fc0565b905092915050565b600082601f83011215156200092157600080fd5b813562000938620009328262000ee2565b62000eb4565b915080825260208301602083018583830111156200095557600080fd5b620009628382846200108f565b50505092915050565b600062000979823562000fec565b905092915050565b60006200098f825162000ff6565b905092915050565b600060208284031215620009aa57600080fd5b6000620009ba84828501620008e1565b91505092915050565b600080600080600080600060e0888a031215620009df57600080fd5b6000620009ef8a828b01620008e1565b975050602062000a028a828b016200096b565b965050604088013567ffffffffffffffff81111562000a2057600080fd5b62000a2e8a828b016200090d565b955050606088013567ffffffffffffffff81111562000a4c57600080fd5b62000a5a8a828b016200090d565b945050608062000a6d8a828b016200096b565b93505060a062000a808a828b016200096b565b92505060c062000a938a828b016200096b565b91505092959891949750929550565b60006020828403121562000ab557600080fd5b600062000ac584828501620008f7565b91505092915050565b60006020828403121562000ae157600080fd5b600062000af1848285016200096b565b91505092915050565b60006020828403121562000b0d57600080fd5b600062000b1d8482850162000981565b91505092915050565b600062000b34838362000bd9565b60208301905092915050565b62000b4b8162001003565b82525050565b62000b5c8162000f61565b82525050565b600062000b6f8262000f1c565b62000b7b818562000f3f565b935062000b888362000f0f565b60005b8281101562000bbc5762000ba186835162000b26565b955062000bae8262000f32565b915060018101905062000b8b565b50849250505092915050565b62000bd38162001017565b82525050565b62000be4816200103f565b82525050565b62000bf5816200103f565b82525050565b600062000c088262000f27565b62000c14818562000f50565b935062000c268185602086016200109e565b62000c3181620010d4565b840191505092915050565b600062000c4b60238362000f50565b91507f696e766573746d656e7420636f737420657863656564732072616e6b696e672060008301527f63617000000000000000000000000000000000000000000000000000000000006020830152604082019050919050565b62000caf8162000f95565b82525050565b62000cc08162000f9f565b82525050565b600060208201905062000cdd600083018462000b51565b92915050565b600060408201905062000cfa600083018562000b51565b62000d09602083018462000b51565b9392505050565b600060408201905062000d27600083018562000b51565b62000d36602083018462000b40565b9392505050565b600060408201905062000d54600083018562000b51565b62000d63602083018462000ca4565b9392505050565b60006101208201905062000d82600083018c62000b51565b62000d91602083018b62000ca4565b818103604083015262000da5818a62000bfb565b9050818103606083015262000dbb818962000bfb565b905062000dcc608083018862000ca4565b62000ddb60a083018762000ca4565b62000dea60c083018662000ca4565b62000df960e083018562000cb5565b62000e0961010083018462000b51565b9a9950505050505050505050565b6000602082019050818103600083015262000e33818462000b62565b905092915050565b600060208201905062000e52600083018462000bc8565b92915050565b600060208201905062000e6f600083018462000bea565b92915050565b6000602082019050818103600083015262000e908162000c3c565b9050919050565b600060208201905062000eae600083018462000ca4565b92915050565b6000604051905081810181811067ffffffffffffffff8211171562000ed857600080fd5b8060405250919050565b600067ffffffffffffffff82111562000efa57600080fd5b601f19601f8301169050602081019050919050565b6000602082019050919050565b600081519050919050565b600081519050919050565b6000602082019050919050565b600082825260208201905092915050565b600082825260208201905092915050565b600062000f6e8262000f75565b9050919050565b600073ffffffffffffffffffffffffffffffffffffffff82169050919050565b6000819050919050565b600060ff82169050919050565b600062000fb98262000fcc565b9050919050565b60008115159050919050565b600073ffffffffffffffffffffffffffffffffffffffff82169050919050565b6000819050919050565b600060ff82169050919050565b6000620010108262001067565b9050919050565b600062001024826200102b565b9050919050565b6000620010388262000f75565b9050919050565b60006200104c8262001053565b9050919050565b6000620010608262000f75565b9050919050565b600062001074826200107b565b9050919050565b6000620010888262000f75565b9050919050565b82818337600083830152505050565b60005b83811015620010be578082015181840152602081019050620010a1565b83811115620010ce576000848401525b50505050565b6000601f19601f830116905091905056fe60806040526305f5e100600b5560405162002d8d38038062002d8d8339810180604052620000319190810190620002c3565b886000806101000a81548173ffffffffffffffffffffffffffffffffffffffff021916908373ffffffffffffffffffffffffffffffffffffffff1602179055508760038190555086600590805190602001906200009092919062000174565b508560069080519060200190620000a992919062000174565b508460098190555083600a819055506000600c60006101000a81548160ff02191690836002811115620000d857fe5b02179055506000600c60016101000a81548160ff02191690836001811115620000fd57fe5b02179055508260078190555081600060146101000a81548160ff021916908360ff16021790555080601160006101000a81548173ffffffffffffffffffffffffffffffffffffffff021916908373ffffffffffffffffffffffffffffffffffffffff160217905550505050505050505050620004aa565b828054600181600116156101000203166002900490600052602060002090601f016020900481019282601f10620001b757805160ff1916838001178555620001e8565b82800160010185558215620001e8579182015b82811115620001e7578251825591602001919060010190620001ca565b5b509050620001f79190620001fb565b5090565b6200022091905b808211156200021c57600081600090555060010162000202565b5090565b90565b600062000231825162000429565b905092915050565b600082601f83011215156200024d57600080fd5b8151620002646200025e82620003fc565b620003ce565b915080825260208301602083018583830111156200028157600080fd5b6200028e83828462000474565b50505092915050565b6000620002a582516200045d565b905092915050565b6000620002bb825162000467565b905092915050565b60008060008060008060008060006101208a8c031215620002e357600080fd5b6000620002f38c828d0162000223565b9950506020620003068c828d0162000297565b98505060408a015167ffffffffffffffff8111156200032457600080fd5b620003328c828d0162000239565b97505060608a015167ffffffffffffffff8111156200035057600080fd5b6200035e8c828d0162000239565b9650506080620003718c828d0162000297565b95505060a0620003848c828d0162000297565b94505060c0620003978c828d0162000297565b93505060e0620003aa8c828d01620002ad565b925050610100620003be8c828d0162000223565b9150509295985092959850929598565b6000604051905081810181811067ffffffffffffffff82111715620003f257600080fd5b8060405250919050565b600067ffffffffffffffff8211156200041457600080fd5b601f19601f8301169050602081019050919050565b600062000436826200043d565b9050919050565b600073ffffffffffffffffffffffffffffffffffffffff82169050919050565b6000819050919050565b600060ff82169050919050565b60005b838110156200049457808201518184015260208101905062000477565b83811115620004a4576000848401525b50505050565b6128d380620004ba6000396000f3fe60806040526004361061020b576000357c010000000000000000000000000000000000000000000000000000000090048063aa8b6d331161012a578063d31ac71d116100bd578063ea57e1961161008c578063ea57e196146106c0578063f0329f6b146106d7578063f1c8e94214610702578063f9076a1d1461072d578063fc8153c8146107585761020b565b8063d31ac71d14610602578063da4fb21814610641578063e0b3fe6a14610677578063e8b5e51f146106b65761020b565b8063bd2efce9116100f9578063bd2efce914610558578063bf3e394e14610583578063c92f14261461059a578063c9f83bed146105d75761020b565b8063aa8b6d33146104ae578063aae91de4146104eb578063acb7cf4214610502578063b124e2791461052d5761020b565b80635ed38ac4116101a25780639ca27946116101715780639ca27946146103de5780639d61edd81461041b578063a25aab9f14610458578063a69c0b56146104835761020b565b80635ed38ac41461035a5780636103d70b14610371578063796b89b91461038857806399fa90e8146103b35761020b565b80632d82aa52116101de5780632d82aa52146102ad5780633abd5f47146102d85780634a4479f2146103035780634b4ba3ba1461032f5761020b565b806318dfcf7b146102105780631b33cc7b1461023b5780631b9265b8146102785780631e31faf614610282575b600080fd5b34801561021c57600080fd5b50610225610783565b604051610232919061268f565b60405180910390f35b34801561024757600080fd5b50610262600480360361025d9190810190612029565b610796565b60405161026f9190612614565b60405180910390f35b6102806107df565b005b34801561028e57600080fd5b50610297610a12565b6040516102a4919061268f565b60405180910390f35b3480156102b957600080fd5b506102c2610a25565b6040516102cf9190612614565b60405180910390f35b3480156102e457600080fd5b506102ed610a2b565b6040516102fa9190612614565b60405180910390f35b34801561030f57600080fd5b50610318610a31565b60405161032692919061262f565b60405180910390f35b34801561033b57600080fd5b50610344610ac8565b6040516103519190612614565b60405180910390f35b34801561036657600080fd5b5061036f610ace565b005b34801561037d57600080fd5b50610386610d52565b005b34801561039457600080fd5b5061039d610fcc565b6040516103aa9190612614565b60405180910390f35b3480156103bf57600080fd5b506103c8610fd4565b6040516103d5919061251c565b60405180910390f35b3480156103ea57600080fd5b5061040560048036036104009190810190612029565b610fe7565b6040516104129190612614565b60405180910390f35b34801561042757600080fd5b50610442600480360361043d9190810190612029565b611030565b60405161044f9190612614565b60405180910390f35b34801561046457600080fd5b5061046d611048565b60405161047a9190612614565b60405180910390f35b34801561048f57600080fd5b5061049861104e565b6040516104a591906124df565b60405180910390f35b3480156104ba57600080fd5b506104d560048036036104d09190810190612029565b611118565b6040516104e29190612614565b60405180910390f35b3480156104f757600080fd5b50610500611130565b005b34801561050e57600080fd5b50610517611193565b6040516105249190612614565b60405180910390f35b34801561053957600080fd5b50610542611199565b60405161054f9190612552565b60405180910390f35b34801561056457600080fd5b5061056d611237565b60405161057a9190612614565b60405180910390f35b34801561058f57600080fd5b5061059861123d565b005b3480156105a657600080fd5b506105c160048036036105bc9190810190612029565b61138e565b6040516105ce91906124df565b60405180910390f35b3480156105e357600080fd5b506105ec611497565b6040516105f99190612614565b60405180910390f35b34801561060e57600080fd5b50610629600480360361062491908101906120cf565b61149d565b60405161063893929190612658565b60405180910390f35b34801561064d57600080fd5b506106566114f6565b60405161066e9c9b9a99989796959493929190612417565b60405180910390f35b34801561068357600080fd5b5061069e60048036036106999190810190612052565b6116db565b6040516106ad93929190612658565b60405180910390f35b6106be611741565b005b3480156106cc57600080fd5b506106d56119f0565b005b3480156106e357600080fd5b506106ec611bde565b6040516106f991906123fc565b60405180910390f35b34801561070e57600080fd5b50610717611c03565b6040516107249190612537565b60405180910390f35b34801561073957600080fd5b50610742611c16565b60405161074f9190612552565b60405180910390f35b34801561076457600080fd5b5061076d611cb4565b60405161077a9190612501565b60405180910390f35b600860009054906101000a900460ff1681565b6000600160008373ffffffffffffffffffffffffffffffffffffffff1673ffffffffffffffffffffffffffffffffffffffff168152602001908152602001600020549050919050565b6107e7611130565b600160028111156107f457fe5b600c60009054906101000a900460ff16600281111561080f57fe5b141515610862573373ffffffffffffffffffffffffffffffffffffffff166108fc349081150290604051600060405180830381858888f1935050505015801561085c573d6000803e3d6000fd5b50610a10565b61086a611f30565b6060604051908101604052804281526020013481526020013373ffffffffffffffffffffffffffffffffffffffff168152509050600d60003373ffffffffffffffffffffffffffffffffffffffff1673ffffffffffffffffffffffffffffffffffffffff1681526020019081526020016000208190806001815401808255809150509060018203906000526020600020906003020160009091929091909150600082015181600001556020820151816001015560408201518160020160006101000a81548173ffffffffffffffffffffffffffffffffffffffff021916908373ffffffffffffffffffffffffffffffffffffffff160217905550505050600e8190806001815401808255809150509060018203906000526020600020906003020160009091929091909150600082015181600001556020820151816001015560408201518160020160006101000a81548173ffffffffffffffffffffffffffffffffffffffff021916908373ffffffffffffffffffffffffffffffffffffffff160217905550505050610a0834600f54611cda90919063ffffffff16565b600f81905550505b565b600060149054906101000a900460ff1681565b60045481565b600f5481565b6000806000600160003373ffffffffffffffffffffffffffffffffffffffff1673ffffffffffffffffffffffffffffffffffffffff1681526020019081526020016000205490506000600260003373ffffffffffffffffffffffffffffffffffffffff1673ffffffffffffffffffffffffffffffffffffffff16815260200190815260200160002054905081819350935050509091565b60095481565b610ad6611130565b60016002811115610ae357fe5b600c60009054906101000a900460ff166002811115610afe57fe5b141580610b2f5750600180811115610b1257fe5b600c60019054906101000a900460ff166001811115610b2d57fe5b145b15610b3957610d50565b6060601160009054906101000a900473ffffffffffffffffffffffffffffffffffffffff1673ffffffffffffffffffffffffffffffffffffffff1663c52097d46000809054906101000a900473ffffffffffffffffffffffffffffffffffffffff166040518263ffffffff167c0100000000000000000000000000000000000000000000000000000000028152600401610bd391906123fc565b600060405180830381600087803b158015610bed57600080fd5b505af1158015610c01573d6000803e3d6000fd5b505050506040513d6000823e3d601f19601f82011682018060405250610c2a919081019061208e565b9050600080905060008090505b8251811015610c9d573373ffffffffffffffffffffffffffffffffffffffff168382815181101515610c6557fe5b9060200190602002015173ffffffffffffffffffffffffffffffffffffffff161415610c9057600191505b8080600101915050610c37565b50801515610ce0576040517f08c379a0000000000000000000000000000000000000000000000000000000008152600401610cd7906125d4565b60405180910390fd5b3373ffffffffffffffffffffffffffffffffffffffff166108fc6003549081150290604051600060405180830381858888f19350505050158015610d28573d6000803e3d6000fd5b506001600c60016101000a81548160ff02191690836001811115610d4857fe5b021790555050505b565b6000600160003373ffffffffffffffffffffffffffffffffffffffff1673ffffffffffffffffffffffffffffffffffffffff168152602001908152602001600020541415610d9f57610fca565b6000600260003373ffffffffffffffffffffffffffffffffffffffff1673ffffffffffffffffffffffffffffffffffffffff1681526020019081526020016000205490506000601060003373ffffffffffffffffffffffffffffffffffffffff1673ffffffffffffffffffffffffffffffffffffffff1681526020019081526020016000205490506000600e8054905090508082101515610e4257505050610fca565b600080905060008390505b82811015610f39576000600e82815481101515610e6657fe5b90600052602060002090600302016001015490506000610e866064611d31565b90506000610e95600754611d31565b90506000610eac8284611d6390919063ffffffff16565b90506000610ed862989680610eca8488611dbb90919063ffffffff16565b611e2f90919063ffffffff16565b90506000610f0462989680610ef68d85611dbb90919063ffffffff16565b611e2f90919063ffffffff16565b9050610f1a600a82611dbb90919063ffffffff16565b8801975089806001019a50505050505050508080600101915050610e4d565b5082601060003373ffffffffffffffffffffffffffffffffffffffff1673ffffffffffffffffffffffffffffffffffffffff168152602001908152602001600020819055503373ffffffffffffffffffffffffffffffffffffffff166108fc829081150290604051600060405180830381858888f19350505050158015610fc4573d6000803e3d6000fd5b50505050505b565b600042905090565b600c60009054906101000a900460ff1681565b6000600260008373ffffffffffffffffffffffffffffffffffffffff1673ffffffffffffffffffffffffffffffffffffffff168152602001908152602001600020549050919050565b60016020528060005260406000206000915090505481565b600b5481565b6060600e805480602002602001604051908101604052809291908181526020016000905b8282101561110f57838290600052602060002090600302016060604051908101604052908160008201548152602001600182015481526020016002820160009054906101000a900473ffffffffffffffffffffffffffffffffffffffff1673ffffffffffffffffffffffffffffffffffffffff1673ffffffffffffffffffffffffffffffffffffffff168152505081526020019060010190611072565b50505050905090565b60026020528060005260406000206000915090505481565b6001600281111561113d57fe5b600c60009054906101000a900460ff16600281111561115857fe5b141580156111675750600a5442115b15611191576002600c60006101000a81548160ff0219169083600281111561118b57fe5b02179055505b565b60035481565b60068054600181600116156101000203166002900480601f01602080910402602001604051908101604052809291908181526020018280546001816001161561010002031660029004801561122f5780601f106112045761010080835404028352916020019161122f565b820191906000526020600020905b81548152906001019060200180831161121257829003601f168201915b505050505081565b60075481565b6000600160003373ffffffffffffffffffffffffffffffffffffffff1673ffffffffffffffffffffffffffffffffffffffff16815260200190815260200160002054141561128a5761138c565b611292611130565b60028081111561129e57fe5b600c60009054906101000a900460ff1660028111156112b957fe5b141561138b573373ffffffffffffffffffffffffffffffffffffffff166108fc600160003373ffffffffffffffffffffffffffffffffffffffff1673ffffffffffffffffffffffffffffffffffffffff168152602001908152602001600020549081150290604051600060405180830381858888f19350505050158015611344573d6000803e3d6000fd5b506000600160003373ffffffffffffffffffffffffffffffffffffffff1673ffffffffffffffffffffffffffffffffffffffff168152602001908152602001600020819055505b5b565b6060600d60008373ffffffffffffffffffffffffffffffffffffffff1673ffffffffffffffffffffffffffffffffffffffff168152602001908152602001600020805480602002602001604051908101604052809291908181526020016000905b8282101561148c57838290600052602060002090600302016060604051908101604052908160008201548152602001600182015481526020016002820160009054906101000a900473ffffffffffffffffffffffffffffffffffffffff1673ffffffffffffffffffffffffffffffffffffffff1673ffffffffffffffffffffffffffffffffffffffff1681525050815260200190600101906113ef565b505050509050919050565b600a5481565b600e818154811015156114ac57fe5b90600052602060002090600302016000915090508060000154908060010154908060020160009054906101000a900473ffffffffffffffffffffffffffffffffffffffff16905083565b6000806060806000806000806000806000806000809054906101000a900473ffffffffffffffffffffffffffffffffffffffff1660035460056006600954600a54600c60009054906101000a900460ff16600754600454600860009054906101000a900460ff16600c60019054906101000a900460ff16600060149054906101000a900460ff16898054600181600116156101000203166002900480601f0160208091040260200160405190810160405280929190818152602001828054600181600116156101000203166002900480156116125780601f106115e757610100808354040283529160200191611612565b820191906000526020600020905b8154815290600101906020018083116115f557829003601f168201915b50505050509950888054600181600116156101000203166002900480601f0160208091040260200160405190810160405280929190818152602001828054600181600116156101000203166002900480156116ae5780601f10611683576101008083540402835291602001916116ae565b820191906000526020600020905b81548152906001019060200180831161169157829003601f168201915b505050505098509b509b509b509b509b509b509b509b509b509b509b509b50909192939495969798999a9b565b600d602052816000526040600020818154811015156116f657fe5b9060005260206000209060030201600091509150508060000154908060010154908060020160009054906101000a900473ffffffffffffffffffffffffffffffffffffffff16905083565b611749611130565b60028081111561175557fe5b600c60009054906101000a900460ff16600281111561177057fe5b14806117a157506001600281111561178457fe5b600c60009054906101000a900460ff16600281111561179f57fe5b145b156117f2573373ffffffffffffffffffffffffffffffffffffffff166108fc349081150290604051600060405180830381858888f193505050501580156117ec573d6000803e3d6000fd5b506119ee565b6000600160003373ffffffffffffffffffffffffffffffffffffffff1673ffffffffffffffffffffffffffffffffffffffff16815260200190815260200160002054141561186d576008600081819054906101000a900460ff168092919060010191906101000a81548160ff021916908360ff160217905550505b60003490506000816004540190506003548111156118dc576000600354820390503373ffffffffffffffffffffffffffffffffffffffff166108fc829081150290604051600060405180830381858888f193505050501580156118d4573d6000803e3d6000fd5b508083039250505b81600160003373ffffffffffffffffffffffffffffffffffffffff1673ffffffffffffffffffffffffffffffffffffffff1681526020019081526020016000205401600160003373ffffffffffffffffffffffffffffffffffffffff1673ffffffffffffffffffffffffffffffffffffffff168152602001908152602001600020819055506119a9600160003373ffffffffffffffffffffffffffffffffffffffff1673ffffffffffffffffffffffffffffffffffffffff16815260200190815260200160002054611e8f565b816004600082825401925050819055506003546004541015156119eb576001600c60006101000a81548160ff021916908360028111156119e557fe5b02179055505b50505b565b6000809054906101000a900473ffffffffffffffffffffffffffffffffffffffff1673ffffffffffffffffffffffffffffffffffffffff163373ffffffffffffffffffffffffffffffffffffffff16141515611a4b57600080fd5b6000601060003373ffffffffffffffffffffffffffffffffffffffff1673ffffffffffffffffffffffffffffffffffffffff1681526020019081526020016000205490506000600e8054905090508082101515611aa9575050611bdc565b600080905060008390505b82811015611b4c576000600e82815481101515611acd57fe5b90600052602060002090600302016001015490506000611aee600754611d31565b90506000611b1a62989680611b0c8486611dbb90919063ffffffff16565b611e2f90919063ffffffff16565b9050611b30600a82611dbb90919063ffffffff16565b8501945086806001019750505050508080600101915050611ab4565b5082601060003373ffffffffffffffffffffffffffffffffffffffff1673ffffffffffffffffffffffffffffffffffffffff168152602001908152602001600020819055503373ffffffffffffffffffffffffffffffffffffffff166108fc829081150290604051600060405180830381858888f19350505050158015611bd7573d6000803e3d6000fd5b505050505b565b6000809054906101000a900473ffffffffffffffffffffffffffffffffffffffff1681565b600c60019054906101000a900460ff1681565b60058054600181600116156101000203166002900480601f016020809104026020016040519081016040528092919081815260200182805460018160011615610100020316600290048015611cac5780601f10611c8157610100808354040283529160200191611cac565b820191906000526020600020905b815481529060010190602001808311611c8f57829003601f168201915b505050505081565b601160009054906101000a900473ffffffffffffffffffffffffffffffffffffffff1681565b6000808284019050838110151515611d27576040517f08c379a0000000000000000000000000000000000000000000000000000000008152600401611d1e90612574565b60405180910390fd5b8091505092915050565b6000611d5c612710611d4e600b5485611dbb90919063ffffffff16565b611e2f90919063ffffffff16565b9050919050565b6000828211151515611daa576040517f08c379a0000000000000000000000000000000000000000000000000000000008152600401611da190612594565b60405180910390fd5b600082840390508091505092915050565b600080831415611dce5760009050611e29565b60008284029050828482811515611de157fe5b04141515611e24576040517f08c379a0000000000000000000000000000000000000000000000000000000008152600401611e1b906125f4565b60405180910390fd5b809150505b92915050565b60008082111515611e75576040517f08c379a0000000000000000000000000000000000000000000000000000000008152600401611e6c906125b4565b60405180910390fd5b60008284811515611e8257fe5b0490508091505092915050565b6000611ea6600b5483611dbb90919063ffffffff16565b90506000611ed26005611ec460035485611e2f90919063ffffffff16565b611cda90919063ffffffff16565b9050611ee8600a82611e2f90919063ffffffff16565b600260003373ffffffffffffffffffffffffffffffffffffffff1673ffffffffffffffffffffffffffffffffffffffff16815260200190815260200160002081905550505050565b6060604051908101604052806000815260200160008152602001600073ffffffffffffffffffffffffffffffffffffffff1681525090565b6000611f7482356127d1565b905092915050565b6000611f8882516127d1565b905092915050565b600082601f8301121515611fa357600080fd5b8151611fb6611fb1826126d7565b6126aa565b91508181835260208401935060208101905083856020840282011115611fdb57600080fd5b60005b8381101561200b5781611ff18882611f7c565b845260208401935060208301925050600181019050611fde565b5050505092915050565b60006120218235612803565b905092915050565b60006020828403121561203b57600080fd5b600061204984828501611f68565b91505092915050565b6000806040838503121561206557600080fd5b600061207385828601611f68565b925050602061208485828601612015565b9150509250929050565b6000602082840312156120a057600080fd5b600082015167ffffffffffffffff8111156120ba57600080fd5b6120c684828501611f90565b91505092915050565b6000602082840312156120e157600080fd5b60006120ef84828501612015565b91505092915050565b6000612104838361238d565b60608301905092915050565b6121198161275c565b82525050565b6121288161275c565b82525050565b60006121398261270c565b612143818561273a565b935061214e836126ff565b60005b8281101561217c576121648683516120f8565b955061216f8261272d565b9150600181019050612151565b50849250505092915050565b6121918161280d565b82525050565b6121a081612831565b82525050565b6121af81612843565b82525050565b60006121c082612722565b6121ca818561274b565b93506121da818560208601612855565b6121e381612888565b840191505092915050565b60006121f982612717565b612203818561274b565b9350612213818560208601612855565b61221c81612888565b840191505092915050565b6000612234601b8361274b565b91507f536166654d6174683a206164646974696f6e206f766572666c6f7700000000006000830152602082019050919050565b6000612274601e8361274b565b91507f536166654d6174683a207375627472616374696f6e206f766572666c6f7700006000830152602082019050919050565b60006122b4601a8361274b565b91507f536166654d6174683a206469766973696f6e206279207a65726f0000000000006000830152602082019050919050565b60006122f4601d8361274b565b91507f6572726f723a206d7573742062652070726f787920636f6e74726163740000006000830152602082019050919050565b600061233460218361274b565b91507f536166654d6174683a206d756c7469706c69636174696f6e206f766572666c6f60008301527f77000000000000000000000000000000000000000000000000000000000000006020830152604082019050919050565b6060820160008201516123a360008501826123cf565b5060208201516123b660208501826123cf565b5060408201516123c96040850182612110565b50505050565b6123d8816127ba565b82525050565b6123e7816127ba565b82525050565b6123f6816127c4565b82525050565b6000602082019050612411600083018461211f565b92915050565b60006101808201905061242d600083018f61211f565b61243a602083018e6123de565b818103604083015261244c818d6121b5565b90508181036060830152612460818c6121b5565b905061246f608083018b6123de565b61247c60a083018a6123de565b61248960c0830189612197565b61249660e08301886123de565b6124a46101008301876123de565b6124b26101208301866123ed565b6124c06101408301856121a6565b6124ce6101608301846123ed565b9d9c50505050505050505050505050565b600060208201905081810360008301526124f9818461212e565b905092915050565b60006020820190506125166000830184612188565b92915050565b60006020820190506125316000830184612197565b92915050565b600060208201905061254c60008301846121a6565b92915050565b6000602082019050818103600083015261256c81846121ee565b905092915050565b6000602082019050818103600083015261258d81612227565b9050919050565b600060208201905081810360008301526125ad81612267565b9050919050565b600060208201905081810360008301526125cd816122a7565b9050919050565b600060208201905081810360008301526125ed816122e7565b9050919050565b6000602082019050818103600083015261260d81612327565b9050919050565b600060208201905061262960008301846123de565b92915050565b600060408201905061264460008301856123de565b61265160208301846123de565b9392505050565b600060608201905061266d60008301866123de565b61267a60208301856123de565b612687604083018461211f565b949350505050565b60006020820190506126a460008301846123ed565b92915050565b6000604051905081810181811067ffffffffffffffff821117156126cd57600080fd5b8060405250919050565b600067ffffffffffffffff8211156126ee57600080fd5b602082029050602081019050919050565b6000602082019050919050565b600081519050919050565b600081519050919050565b600081519050919050565b6000602082019050919050565b600082825260208201905092915050565b600082825260208201905092915050565b60006127678261279a565b9050919050565b600060038210151561277c57fe5b819050919050565b600060028210151561279257fe5b819050919050565b600073ffffffffffffffffffffffffffffffffffffffff82169050919050565b6000819050919050565b600060ff82169050919050565b60006127dc826127e3565b9050919050565b600073ffffffffffffffffffffffffffffffffffffffff82169050919050565b6000819050919050565b60006128188261281f565b9050919050565b600061282a8261279a565b9050919050565b600061283c8261276e565b9050919050565b600061284e82612784565b9050919050565b60005b83811015612873578082015181840152602081019050612858565b83811115612882576000848401525b50505050565b6000601f19601f830116905091905056fea265627a7a72305820e54f9070b79d47c7361415396d0b8329a21ebaaa29212befd4a87e02c2f184d26c6578706572696d656e74616cf50037a265627a7a723058205a5666155b6f9d5eb2c523f321033af8cfc8b58fe67038b42a648769ba53b8996c6578706572696d656e74616cf50037",
  "source": "pragma solidity ^0.5.0;\r\npragma experimental ABIEncoderV2;\r\nimport \"./SafeMath.sol\";\r\n\r\ninterface InvestmentRanking {\r\n    function createInvestmentManagerIfNotExists (address investmentManagerAddress, address proxyContractAddress) external;\r\n    function saveInvestment(address investmentAddress, address investmentManagerAddress) external;\r\n    function isInvestmentAllowed(address investmentManagerAddress, uint256 investmentCost) external returns(bool);\r\n    function getInvestmentManagerRanking(address investmentManagerAddress) external returns (uint8);\r\n    function getProxyContractsOfAddress (address investmentManagerAddress) external returns (address[] memory);\r\n}\r\n\r\ncontract InvestmentFactory {\r\n    address public _manager;                        //creator of the investment factory\r\n    event InvestmentCreated (address indexed managerAddress, address indexed investmentContractAddress);\r\n    Investment[] public deployedInvestments;\r\n    InvestmentRanking public investmentRankingContract;\r\n    address public _investmentRankingContractAddress;\r\n\r\n    modifier onlyManager() {\r\n        require(msg.sender == _manager);\r\n        _;\r\n    }\r\n\r\n    constructor(address investmentRankingContractAddress) public{\r\n        investmentRankingContract = InvestmentRanking(investmentRankingContractAddress);\r\n        _investmentRankingContractAddress = investmentRankingContractAddress;\r\n        _manager = msg.sender;\r\n    }\r\n\r\n    function updateInvestmentRankingContractAddress (address contractAddress) external onlyManager() {\r\n        investmentRankingContract = InvestmentRanking(contractAddress);\r\n        _investmentRankingContractAddress = contractAddress;\r\n    }\r\n\r\n    function createInvestment(address manager, uint256 totalInvestmentCost, string memory investmentTitle, string memory investmentRationale,\r\n        uint256 createdAt, uint256 investmentDeadlineTimestamp, uint256 commissionFee) public{\r\n\r\n        //create this investment manager if they do not exist\r\n        //msg.sender corresponds to the proxy contract using uPort\r\n        investmentRankingContract.createInvestmentManagerIfNotExists(manager, msg.sender);\r\n\r\n        //check that investment manager is allowed to create this investment based on their ranking\r\n        require(investmentRankingContract.isInvestmentAllowed(manager, totalInvestmentCost) == true, \"investment cost exceeds ranking cap\");\r\n\r\n        //get manager's ranking\r\n        uint8 managerRanking = investmentRankingContract.getInvestmentManagerRanking(manager);\r\n        \r\n        Investment newInvestment = new Investment(\r\n            manager,\r\n            totalInvestmentCost,\r\n            investmentTitle,\r\n            investmentRationale,\r\n            createdAt,\r\n            investmentDeadlineTimestamp,\r\n            commissionFee,\r\n            managerRanking,\r\n            _investmentRankingContractAddress\r\n        );\r\n\r\n        //store investment\r\n        deployedInvestments.push(newInvestment);\r\n        //emit event\r\n        emit InvestmentCreated(manager, address(newInvestment));\r\n\r\n        //update investmentManagers details in ranking contract\r\n        investmentRankingContract.saveInvestment(address(newInvestment), manager);\r\n    }\r\n\r\n    function contractBalance() public view returns(uint256){\r\n        return address(this).balance;\r\n    }\r\n\r\n    function getBlockTimestamp() public view returns (uint){\r\n        return block.timestamp;\r\n    }\r\n\r\n    function getDeployedInvestments() public view returns (Investment[] memory){\r\n        return deployedInvestments;\r\n    }\r\n}\r\n\r\ncontract Investment {\r\n    using SafeMath for uint256;\r\n    \r\n    address public _manager;                        //creator of the investment\r\n    uint8 public _managerRanking;                   //investment ranking of the creator of the investment\r\n    mapping(address => uint256) public _investments;//mapping of all the addresses that have invested and their investment amounts\r\n    mapping(address => uint256) public _percentageShares; //mapping of all the percentages that investors are entitled to based on their investment contribution\r\n    uint256 public _totalInvestmentCost;            //investment goal to be funded\r\n    uint256 public _totalInvestmentContributed;     //total investment amount contributed\r\n    string public _investmentTitle;                 //investment title\r\n    string public _investmentRationale;             //investment rationale\r\n    uint256 public _commissionFee;                  //fee charged by investment creator\r\n    uint8   public _investorCount;                  //number of investors\r\n    uint    public _createdAt;                      //unix timestamp indicating Investment creation\r\n    uint    public _investmentDeadlineTimestamp;    //deadline for funding this investment\r\n    uint256 public _precision = 10 ** 8;\r\n\r\n    enum InvestmentStatus {INPROGRESS, COMPLETED, FAILED}   //status of investment\r\n    InvestmentStatus public _investmentStatus;              //current status of investment\r\n\r\n    //keeps track of whether manager has already withdrawn the investments (once investment is in COMPLETED InvestmentStatus state)\r\n    enum InvestmentTransferStatus {INCOMPLETE, COMPLETED}\r\n    InvestmentTransferStatus public _investmentTransferStatus;\r\n\r\n    struct Payment {\r\n        uint256 timestamp;\r\n        uint256 amount;\r\n        address payerAddress;\r\n    }\r\n    mapping(address => Payment[]) public _paymentsFromAddress;  //mapping of all payments made to this contract\r\n    Payment[] public _allPayments; //all payments made to this investment contract (regardless of sender)\r\n    uint256 public _totalPayments; //sum of all payments made to this investment contract (regardless of sender)\r\n    mapping (address => uint256) _paymentIndexWithdrawnByAddress; //mapping containing the payments index withdrawn by a particular investor\r\n\r\n    InvestmentRanking public _investmentRankingContract; //instance of investment ranking contract\r\n\r\n    constructor(address manager, uint256 totalInvestmentCost, string memory investmentTitle, string memory investmentRationale,\r\n        uint256 createdAt, uint256 investmentDeadlineTimestamp, uint256 commissionFee, uint8 managerRanking, address investmentRankingContractAddress) public payable{\r\n        _manager = manager;\r\n        _totalInvestmentCost = totalInvestmentCost;\r\n        _investmentTitle = investmentTitle;\r\n        _investmentRationale = investmentRationale;\r\n        _createdAt = createdAt;\r\n        _investmentDeadlineTimestamp = investmentDeadlineTimestamp;\r\n        _investmentStatus = InvestmentStatus.INPROGRESS;\r\n        _investmentTransferStatus = InvestmentTransferStatus.INCOMPLETE;\r\n        _commissionFee = commissionFee;\r\n        _managerRanking = managerRanking;\r\n\r\n        _investmentRankingContract = InvestmentRanking(investmentRankingContractAddress);\r\n    }\r\n\r\n    modifier onlyManager() {\r\n        require(msg.sender == _manager);\r\n        _;\r\n    }\r\n\r\n    function invest() external payable {\r\n\r\n        //check the status of the contract, investments are only allowed into investments which are still in progress\r\n        checkContractStatus();\r\n        if (_investmentStatus == InvestmentStatus.FAILED || _investmentStatus == InvestmentStatus.COMPLETED){\r\n            msg.sender.transfer(msg.value);\r\n            return;\r\n        }\r\n\r\n        //increment the number of investors, only if its a new investor\r\n        if (_investments[msg.sender] == 0) {\r\n            _investorCount++;\r\n        }\r\n        \r\n        //ensure that investors cannot overinvest (precaution)\r\n        uint256 currentInvestmentContribution = msg.value;\r\n        uint256 totalInvestmentWithCurrentContribution = _totalInvestmentContributed + currentInvestmentContribution;\r\n        if (totalInvestmentWithCurrentContribution > _totalInvestmentCost) {\r\n            uint256 refund = totalInvestmentWithCurrentContribution - _totalInvestmentCost;\r\n            msg.sender.transfer(refund);\r\n            currentInvestmentContribution = currentInvestmentContribution - refund;\r\n        } \r\n\r\n        //record the investors investment\r\n        _investments[msg.sender] = _investments[msg.sender] + currentInvestmentContribution;\r\n\r\n        //calculate percentage share\r\n        calculatePercentageShare(_investments[msg.sender]);\r\n\r\n        //update total investment made\r\n        _totalInvestmentContributed += currentInvestmentContribution;\r\n\r\n        //mark investment as completed if totalInvestmentCost has been contributed\r\n        if(_totalInvestmentContributed >= _totalInvestmentCost){\r\n            _investmentStatus = InvestmentStatus.COMPLETED;\r\n        }\r\n    }\r\n\r\n    function transferInvestmentContributions() external {\r\n        checkContractStatus();\r\n\r\n        if (_investmentStatus != InvestmentStatus.COMPLETED || _investmentTransferStatus == InvestmentTransferStatus.COMPLETED){\r\n            return;\r\n        }\r\n\r\n        //get manager's proxy contracts\r\n        address[] memory proxyContracts = _investmentRankingContract.getProxyContractsOfAddress(_manager);\r\n\r\n        //there should not be a significant amount of proxy contracts (if this changes, then consider a mapping rather)\r\n        bool isProxyContract = false;\r\n        for(uint i = 0; i < proxyContracts.length; i++){\r\n            if (proxyContracts[i] == msg.sender){\r\n                isProxyContract = true;\r\n            }\r\n        }\r\n        require(isProxyContract, \"error: must be proxy contract\");\r\n\r\n        //transfer investment contributions to manager\r\n        msg.sender.transfer(_totalInvestmentCost);\r\n\r\n        //set InvestmentTransferStatus to COMPLETED\r\n        _investmentTransferStatus = InvestmentTransferStatus.COMPLETED;\r\n    }\r\n\r\n    function pay() external payable {\r\n        //check the status of the contract, payments are only allowed if invesment is completely funded (COMPLETED)\r\n        checkContractStatus();\r\n        if (_investmentStatus != InvestmentStatus.COMPLETED){\r\n            msg.sender.transfer(msg.value);\r\n            return;\r\n        }\r\n\r\n        //create payment record\r\n        Payment memory payment = Payment(block.timestamp, msg.value, msg.sender);\r\n        _paymentsFromAddress[msg.sender].push(payment);\r\n        _allPayments.push(payment);\r\n        _totalPayments = _totalPayments.add(msg.value);\r\n    }\r\n\r\n    function getPaymentRecords(address payerAddress) public view returns (Payment[] memory) {\r\n        return _paymentsFromAddress[payerAddress];\r\n    }\r\n\r\n    function getAllPaymentRecords() public view returns (Payment[] memory){\r\n        return _allPayments;\r\n    }\r\n\r\n    function calculatePercentageShare(uint256 contribution) internal {\r\n        uint numerator = contribution.mul(_precision);\r\n        uint temp = numerator.div(_totalInvestmentCost).add(5); // proper rounding up\r\n        _percentageShares[msg.sender] = temp.div(10);\r\n    }    \r\n\r\n    function calculatePercentage(uint percentage) internal view returns (uint256) {\r\n        return percentage.mul(_precision).div(10 ** 4);\r\n    }\r\n\r\n    function withdrawPayments () external {\r\n        //ensure that caller is actually an investor\r\n        if (_investments[msg.sender] == 0){\r\n            return;\r\n        }\r\n        \r\n        //get contributer's percentage share\r\n        uint256 percentageShare = _percentageShares[msg.sender];\r\n\r\n        //get payment index\r\n        uint256 paymentIndex = _paymentIndexWithdrawnByAddress[msg.sender];\r\n\r\n        //loop through payments not yet withdrawn and calculate amount owed to investor (after fee's)\r\n        uint256 numberOfPayments = _allPayments.length;\r\n\r\n        //assert that there are payments to withdraw\r\n        if (paymentIndex >= numberOfPayments){\r\n            return;\r\n        }\r\n\r\n        uint totalPaymentShare = 0;\r\n        for(uint i = paymentIndex; i < numberOfPayments; i++){\r\n            //calculate percentage\r\n            uint paymentAmount = _allPayments[i].amount;\r\n            //manager fee 10% => 10 000 00\r\n            uint oneHundredPercent = calculatePercentage(100);\r\n            uint managerFee = calculatePercentage(_commissionFee);\r\n            uint feePercentage = oneHundredPercent.sub(managerFee);\r\n            \r\n            uint baseAmountSubtractingFees = paymentAmount.mul(feePercentage).div(10 ** 7);\r\n            uint paymentShare = baseAmountSubtractingFees.mul(percentageShare).div(10 ** 7);\r\n            totalPaymentShare += paymentShare.mul(10 ** 1);\r\n            paymentIndex++;\r\n        }\r\n        //update payments that have been withdrawn for this address\r\n        _paymentIndexWithdrawnByAddress[msg.sender] = paymentIndex;\r\n\r\n        //transfer money\r\n        msg.sender.transfer(totalPaymentShare);\r\n    }\r\n\r\n    function withdrawPaymentsAsManager () external onlyManager(){\r\n         //get payment index\r\n        uint256 paymentIndex = _paymentIndexWithdrawnByAddress[msg.sender];\r\n\r\n        //loop through payments not yet withdrawn and calculate amount owed to investor (after fee's)\r\n        uint256 numberOfPayments = _allPayments.length;\r\n\r\n        //assert that there are payments to withdraw\r\n        if (paymentIndex >= numberOfPayments){\r\n            return;\r\n        }\r\n\r\n        uint totalPaymentShare = 0;\r\n        for(uint i = paymentIndex; i < numberOfPayments; i++){\r\n            //calculate percentage\r\n            uint paymentAmount = _allPayments[i].amount;\r\n            uint managerFee = calculatePercentage(_commissionFee);\r\n\r\n            uint paymentShare = paymentAmount.mul(managerFee).div(10 ** 7);\r\n            totalPaymentShare += paymentShare.mul(10 ** 1);\r\n            paymentIndex++;\r\n        }\r\n        //update payments that have been withdrawn for this address\r\n        _paymentIndexWithdrawnByAddress[msg.sender] = paymentIndex;\r\n\r\n        //transfer money\r\n        msg.sender.transfer(totalPaymentShare);\r\n    }\r\n\r\n    //returns the investment contribution of an address\r\n    function getInvestmentContribution (address contributerAddress) public view returns (uint256){\r\n        return _investments[contributerAddress];\r\n    }\r\n\r\n    //returns the percentage share of this investment associated with the calling address\r\n    function getPercentageShare (address contributerAddress) public view returns (uint256){\r\n        return _percentageShares[contributerAddress];\r\n    }\r\n\r\n    function getBlockTimestamp() public view returns (uint){\r\n        return block.timestamp;\r\n    }\r\n\r\n    function getInvestmentContributionSummary() public view returns (uint256, uint256) {\r\n        uint256 investmentContribution = _investments[msg.sender];\r\n        uint256 investmentPercentageShare = _percentageShares[msg.sender];\r\n        return (\r\n            investmentContribution,\r\n            investmentPercentageShare\r\n        );\r\n    }\r\n\r\n    function checkContractStatus() public {\r\n        if (_investmentStatus != InvestmentStatus.COMPLETED && block.timestamp > _investmentDeadlineTimestamp)\r\n        {\r\n            _investmentStatus = InvestmentStatus.FAILED;\r\n        }\r\n    }\r\n\r\n    function withdrawInvestment() external {\r\n        //ensure that caller is actually an investor\r\n        if (_investments[msg.sender] == 0){\r\n            return;\r\n        }\r\n\r\n        checkContractStatus();\r\n        if (_investmentStatus == InvestmentStatus.FAILED){\r\n            //transfer money back to investor\r\n            msg.sender.transfer(_investments[msg.sender]);\r\n            //reset investment contribution\r\n            _investments[msg.sender] = 0;\r\n        }\r\n    }\r\n\r\n    function getInvestmentSummary() public view returns (address, uint256, string memory, string memory, \r\n    uint256, uint256, InvestmentStatus, uint256, uint256, uint8, InvestmentTransferStatus, uint8) {\r\n\r\n        return (\r\n            _manager,\r\n            _totalInvestmentCost,\r\n            _investmentTitle,\r\n            _investmentRationale,\r\n            _createdAt,\r\n            _investmentDeadlineTimestamp,\r\n            _investmentStatus,\r\n            _commissionFee,\r\n            _totalInvestmentContributed,\r\n            _investorCount,\r\n            _investmentTransferStatus,\r\n            _managerRanking\r\n        );\r\n    }\r\n \r\n}",
  "sourcePath": "C:\\repos\\ParmesanPals\\contracts\\InvestmentFactory.sol",
  "compiler": {
    "name": "solc",
    "version": "0.5.4+commit.9549d8ff.Emscripten.clang"
  },
  "schemaVersion": "1.0.1",
  "updatedAt": "2019-09-14T17:48:58.407Z"
}