{
  "contractName": "InvestmentRanking",
  "abi": [
    {
      "constant": true,
      "inputs": [],
      "name": "_b",
      "outputs": [
        {
          "name": "",
          "type": "uint256"
        }
      ],
      "payable": false,
      "stateMutability": "view",
      "type": "function"
    },
    {
      "constant": true,
      "inputs": [
        {
          "name": "",
          "type": "address"
        }
      ],
      "name": "_investmentManagers",
      "outputs": [
        {
          "name": "totalPaymentsFromInvestments",
          "type": "uint256"
        },
        {
          "name": "rank",
          "type": "uint8"
        }
      ],
      "payable": false,
      "stateMutability": "view",
      "type": "function"
    },
    {
      "constant": true,
      "inputs": [],
      "name": "_a",
      "outputs": [
        {
          "name": "",
          "type": "uint256"
        }
      ],
      "payable": false,
      "stateMutability": "view",
      "type": "function"
    },
    {
      "constant": true,
      "inputs": [],
      "name": "_manager",
      "outputs": [
        {
          "name": "",
          "type": "address"
        }
      ],
      "payable": false,
      "stateMutability": "view",
      "type": "function"
    },
    {
      "constant": true,
      "inputs": [],
      "name": "_c",
      "outputs": [
        {
          "name": "",
          "type": "uint256"
        }
      ],
      "payable": false,
      "stateMutability": "view",
      "type": "function"
    },
    {
      "inputs": [],
      "payable": false,
      "stateMutability": "nonpayable",
      "type": "constructor"
    },
    {
      "constant": false,
      "inputs": [
        {
          "name": "investmentManagerAddress",
          "type": "address"
        },
        {
          "name": "proxyContractAddress",
          "type": "address"
        }
      ],
      "name": "createInvestmentManagerIfNotExists",
      "outputs": [],
      "payable": false,
      "stateMutability": "nonpayable",
      "type": "function"
    },
    {
      "constant": false,
      "inputs": [
        {
          "name": "investmentAddress",
          "type": "address"
        },
        {
          "name": "investmentManagerAddress",
          "type": "address"
        }
      ],
      "name": "saveInvestment",
      "outputs": [],
      "payable": false,
      "stateMutability": "nonpayable",
      "type": "function"
    },
    {
      "constant": true,
      "inputs": [
        {
          "name": "investmentManagerAddress",
          "type": "address"
        }
      ],
      "name": "getProxyContractsOfAddress",
      "outputs": [
        {
          "name": "",
          "type": "address[]"
        }
      ],
      "payable": false,
      "stateMutability": "view",
      "type": "function"
    },
    {
      "constant": true,
      "inputs": [
        {
          "name": "investmentManagerAddress",
          "type": "address"
        }
      ],
      "name": "getInvestmentManager",
      "outputs": [
        {
          "name": "",
          "type": "address[]"
        },
        {
          "name": "",
          "type": "uint256"
        },
        {
          "name": "",
          "type": "uint8"
        }
      ],
      "payable": false,
      "stateMutability": "view",
      "type": "function"
    },
    {
      "constant": true,
      "inputs": [
        {
          "name": "investmentManagerAddress",
          "type": "address"
        }
      ],
      "name": "getInvestmentManagerRanking",
      "outputs": [
        {
          "name": "",
          "type": "uint8"
        }
      ],
      "payable": false,
      "stateMutability": "view",
      "type": "function"
    },
    {
      "constant": false,
      "inputs": [
        {
          "name": "a",
          "type": "uint256"
        },
        {
          "name": "b",
          "type": "uint256"
        },
        {
          "name": "c",
          "type": "uint256"
        }
      ],
      "name": "setCoefficients",
      "outputs": [],
      "payable": false,
      "stateMutability": "nonpayable",
      "type": "function"
    },
    {
      "constant": true,
      "inputs": [
        {
          "name": "rank",
          "type": "uint8"
        }
      ],
      "name": "calculateTotalWeiAllowed",
      "outputs": [
        {
          "name": "",
          "type": "uint256"
        }
      ],
      "payable": false,
      "stateMutability": "view",
      "type": "function"
    },
    {
      "constant": false,
      "inputs": [
        {
          "name": "investmentManagerAddress",
          "type": "address"
        },
        {
          "name": "investmentCost",
          "type": "uint256"
        }
      ],
      "name": "isInvestmentAllowed",
      "outputs": [
        {
          "name": "",
          "type": "bool"
        }
      ],
      "payable": false,
      "stateMutability": "nonpayable",
      "type": "function"
    },
    {
      "constant": true,
      "inputs": [
        {
          "name": "investmentManagerAddress",
          "type": "address"
        }
      ],
      "name": "calculateInvestmentManagersTotalPayments",
      "outputs": [
        {
          "name": "",
          "type": "uint256"
        }
      ],
      "payable": false,
      "stateMutability": "view",
      "type": "function"
    },
    {
      "constant": true,
      "inputs": [
        {
          "name": "investmentManagerAddress",
          "type": "address"
        }
      ],
      "name": "isRankUpgradeAvailable",
      "outputs": [
        {
          "name": "",
          "type": "bool"
        }
      ],
      "payable": false,
      "stateMutability": "view",
      "type": "function"
    },
    {
      "constant": true,
      "inputs": [
        {
          "name": "totalPaymentsReceived",
          "type": "uint256"
        }
      ],
      "name": "calculateRankBasedOnPayments",
      "outputs": [
        {
          "name": "",
          "type": "uint8"
        }
      ],
      "payable": false,
      "stateMutability": "view",
      "type": "function"
    },
    {
      "constant": false,
      "inputs": [
        {
          "name": "investmentManagerAddress",
          "type": "address"
        }
      ],
      "name": "upgradeRankAndPaymentsTotal",
      "outputs": [],
      "payable": false,
      "stateMutability": "nonpayable",
      "type": "function"
    }
  ],
  "bytecode": "0x608060405234801561001057600080fd5b5061c35060038190555061c3466004819055506000600581905550336000806101000a81548173ffffffffffffffffffffffffffffffffffffffff021916908373ffffffffffffffffffffffffffffffffffffffff160217905550611f9e8061007a6000396000f3fe608060405234801561001057600080fd5b5060043610610128576000357c010000000000000000000000000000000000000000000000000000000090048063ad547807116100bf578063c52097d41161008e578063c52097d414610322578063ced7b2e314610352578063edabf26814610370578063f0329f6b1461038c578063f5376e03146103aa57610128565b8063ad54780714610274578063afbecb4714610290578063c0cee0c9146102c2578063c4a7d722146102f257610128565b806351972513116100fb57806351972513146101b4578063865afe08146101e45780639c1946e6146102145780639ef57c171461024457610128565b80630aa9ab261461012d57806325374996146101495780632dfe99e3146101675780634c611bbd14610198575b600080fd5b61014760048036036101429190810190611a45565b6103c8565b005b610151610472565b60405161015e9190611e20565b60405180910390f35b610181600480360361017c9190810190611a1c565b610478565b60405161018f929190611e3b565b60405180910390f35b6101b260048036036101ad9190810190611b0f565b6104a9565b005b6101ce60048036036101c99190810190611a1c565b61051e565b6040516101db9190611e20565b60405180910390f35b6101fe60048036036101f99190810190611a81565b6107bd565b60405161020b9190611da5565b60405180910390f35b61022e60048036036102299190810190611a1c565b610990565b60405161023b9190611e64565b60405180910390f35b61025e60048036036102599190810190611a1c565b610b37565b60405161026b9190611da5565b60405180910390f35b61028e60048036036102899190810190611a1c565b610d10565b005b6102aa60048036036102a59190810190611a1c565b610fa1565b6040516102b993929190611d67565b60405180910390f35b6102dc60048036036102d79190810190611abd565b61115e565b6040516102e99190611e64565b60405180910390f35b61030c60048036036103079190810190611b5e565b6111b2565b6040516103199190611e20565b60405180910390f35b61033c60048036036103379190810190611a1c565b611248565b6040516103499190611d45565b60405180910390f35b61035a6113ef565b6040516103679190611e20565b60405180910390f35b61038a60048036036103859190810190611a45565b6113f5565b005b610394611785565b6040516103a19190611d2a565b60405180910390f35b6103b26117aa565b6040516103bf9190611e20565b60405180910390f35b600160008273ffffffffffffffffffffffffffffffffffffffff1673ffffffffffffffffffffffffffffffffffffffff1681526020019081526020016000206000018290806001815401808255809150509060018203906000526020600020016000909192909190916101000a81548173ffffffffffffffffffffffffffffffffffffffff021916908373ffffffffffffffffffffffffffffffffffffffff160217905550505050565b60045481565b60016020528060005260406000206000915090508060020154908060030160009054906101000a900460ff16905082565b6000809054906101000a900473ffffffffffffffffffffffffffffffffffffffff1673ffffffffffffffffffffffffffffffffffffffff163373ffffffffffffffffffffffffffffffffffffffff1614151561050457600080fd5b826003819055508160048190555080600581905550505050565b60006105286118d3565b600160008473ffffffffffffffffffffffffffffffffffffffff1673ffffffffffffffffffffffffffffffffffffffff16815260200190815260200160002060806040519081016040529081600082018054806020026020016040519081016040528092919081815260200182805480156105f857602002820191906000526020600020905b8160009054906101000a900473ffffffffffffffffffffffffffffffffffffffff1673ffffffffffffffffffffffffffffffffffffffff16815260200190600101908083116105ae575b505050505081526020016001820180548060200260200160405190810160405280929190818152602001828054801561068657602002820191906000526020600020905b8160009054906101000a900473ffffffffffffffffffffffffffffffffffffffff1673ffffffffffffffffffffffffffffffffffffffff168152602001906001019080831161063c575b50505050508152602001600282015481526020016003820160009054906101000a900460ff1660ff1660ff16815250509050600080905060008090505b8260000151518110156107b25760008360000151828151811015156106e457fe5b90602001906020020151905060008173ffffffffffffffffffffffffffffffffffffffff16633abd5f476040518163ffffffff167c010000000000000000000000000000000000000000000000000000000002815260040160206040518083038186803b15801561075457600080fd5b505afa158015610768573d6000803e3d6000fd5b505050506040513d601f19601f8201168201806040525061078c9190810190611ae6565b90506107a181856117b090919063ffffffff16565b9350505080806001019150506106c3565b508092505050919050565b60006107c76118d3565b600160008573ffffffffffffffffffffffffffffffffffffffff1673ffffffffffffffffffffffffffffffffffffffff168152602001908152602001600020608060405190810160405290816000820180548060200260200160405190810160405280929190818152602001828054801561089757602002820191906000526020600020905b8160009054906101000a900473ffffffffffffffffffffffffffffffffffffffff1673ffffffffffffffffffffffffffffffffffffffff168152602001906001019080831161084d575b505050505081526020016001820180548060200260200160405190810160405280929190818152602001828054801561092557602002820191906000526020600020905b8160009054906101000a900473ffffffffffffffffffffffffffffffffffffffff1673ffffffffffffffffffffffffffffffffffffffff16815260200190600101908083116108db575b50505050508152602001600282015481526020016003820160009054906101000a900460ff1660ff1660ff16815250509050600081606001519050600061096b826111b2565b90508085111515610982576001935050505061098a565b600093505050505b92915050565b600061099a6118d3565b600160008473ffffffffffffffffffffffffffffffffffffffff1673ffffffffffffffffffffffffffffffffffffffff1681526020019081526020016000206080604051908101604052908160008201805480602002602001604051908101604052809291908181526020018280548015610a6a57602002820191906000526020600020905b8160009054906101000a900473ffffffffffffffffffffffffffffffffffffffff1673ffffffffffffffffffffffffffffffffffffffff1681526020019060010190808311610a20575b5050505050815260200160018201805480602002602001604051908101604052809291908181526020018280548015610af857602002820191906000526020600020905b8160009054906101000a900473ffffffffffffffffffffffffffffffffffffffff1673ffffffffffffffffffffffffffffffffffffffff1681526020019060010190808311610aae575b50505050508152602001600282015481526020016003820160009054906101000a900460ff1660ff1660ff168152505090508060600151915050919050565b6000610b416118d3565b600160008473ffffffffffffffffffffffffffffffffffffffff1673ffffffffffffffffffffffffffffffffffffffff1681526020019081526020016000206080604051908101604052908160008201805480602002602001604051908101604052809291908181526020018280548015610c1157602002820191906000526020600020905b8160009054906101000a900473ffffffffffffffffffffffffffffffffffffffff1673ffffffffffffffffffffffffffffffffffffffff1681526020019060010190808311610bc7575b5050505050815260200160018201805480602002602001604051908101604052809291908181526020018280548015610c9f57602002820191906000526020600020905b8160009054906101000a900473ffffffffffffffffffffffffffffffffffffffff1673ffffffffffffffffffffffffffffffffffffffff1681526020019060010190808311610c55575b50505050508152602001600282015481526020016003820160009054906101000a900460ff1660ff1660ff168152505090506000610cdc8461051e565b90506000610ced83606001516111b2565b905080821115610d035760019350505050610d0b565b600093505050505b919050565b6000610d1b82610b37565b90508015610f9d576000610d2e8361051e565b90506000610d3b8261115e565b9050610d456118d3565b600160008673ffffffffffffffffffffffffffffffffffffffff1673ffffffffffffffffffffffffffffffffffffffff1681526020019081526020016000206080604051908101604052908160008201805480602002602001604051908101604052809291908181526020018280548015610e1557602002820191906000526020600020905b8160009054906101000a900473ffffffffffffffffffffffffffffffffffffffff1673ffffffffffffffffffffffffffffffffffffffff1681526020019060010190808311610dcb575b5050505050815260200160018201805480602002602001604051908101604052809291908181526020018280548015610ea357602002820191906000526020600020905b8160009054906101000a900473ffffffffffffffffffffffffffffffffffffffff1673ffffffffffffffffffffffffffffffffffffffff1681526020019060010190808311610e59575b50505050508152602001600282015481526020016003820160009054906101000a900460ff1660ff1660ff168152505090508281604001818152505081816060019060ff16908160ff168152505080600160008773ffffffffffffffffffffffffffffffffffffffff1673ffffffffffffffffffffffffffffffffffffffff1681526020019081526020016000206000820151816000019080519060200190610f4d9291906118ff565b506020820151816001019080519060200190610f6a9291906118ff565b506040820151816002015560608201518160030160006101000a81548160ff021916908360ff1602179055509050505050505b5050565b6060600080610fae6118d3565b600160008673ffffffffffffffffffffffffffffffffffffffff1673ffffffffffffffffffffffffffffffffffffffff168152602001908152602001600020608060405190810160405290816000820180548060200260200160405190810160405280929190818152602001828054801561107e57602002820191906000526020600020905b8160009054906101000a900473ffffffffffffffffffffffffffffffffffffffff1673ffffffffffffffffffffffffffffffffffffffff1681526020019060010190808311611034575b505050505081526020016001820180548060200260200160405190810160405280929190818152602001828054801561110c57602002820191906000526020600020905b8160009054906101000a900473ffffffffffffffffffffffffffffffffffffffff1673ffffffffffffffffffffffffffffffffffffffff16815260200190600101908083116110c2575b50505050508152602001600282015481526020016003820160009054906101000a900460ff1660ff1660ff16815250509050806000015181604001518260600151829250935093509350509193909250565b6000806001905060006005905060008090505b6001820160ff168360ff1610156111a75761118b836111b2565b90508481111561119a576111a7565b8280600101935050611171565b829350505050919050565b6000806111e28360ff166111d48560ff1660035461180790919063ffffffff16565b61180790919063ffffffff16565b905060006111fe8460ff1660045461180790919063ffffffff16565b90506000611215828461187b90919063ffffffff16565b90506000670de0b6b3a764000090506000611239828461180790919063ffffffff16565b90508095505050505050919050565b60606112526118d3565b600160008473ffffffffffffffffffffffffffffffffffffffff1673ffffffffffffffffffffffffffffffffffffffff168152602001908152602001600020608060405190810160405290816000820180548060200260200160405190810160405280929190818152602001828054801561132257602002820191906000526020600020905b8160009054906101000a900473ffffffffffffffffffffffffffffffffffffffff1673ffffffffffffffffffffffffffffffffffffffff16815260200190600101908083116112d8575b50505050508152602001600182018054806020026020016040519081016040528092919081815260200182805480156113b057602002820191906000526020600020905b8160009054906101000a900473ffffffffffffffffffffffffffffffffffffffff1673ffffffffffffffffffffffffffffffffffffffff1681526020019060010190808311611366575b50505050508152602001600282015481526020016003820160009054906101000a900460ff1660ff1660ff168152505090508060200151915050919050565b60035481565b6113fd6118d3565b600160008473ffffffffffffffffffffffffffffffffffffffff1673ffffffffffffffffffffffffffffffffffffffff16815260200190815260200160002060806040519081016040529081600082018054806020026020016040519081016040528092919081815260200182805480156114cd57602002820191906000526020600020905b8160009054906101000a900473ffffffffffffffffffffffffffffffffffffffff1673ffffffffffffffffffffffffffffffffffffffff1681526020019060010190808311611483575b505050505081526020016001820180548060200260200160405190810160405280929190818152602001828054801561155b57602002820191906000526020600020905b8160009054906101000a900473ffffffffffffffffffffffffffffffffffffffff1673ffffffffffffffffffffffffffffffffffffffff1681526020019060010190808311611511575b50505050508152602001600282015481526020016003820160009054906101000a900460ff1660ff1660ff168152505090506000816060015160ff16141561178057606060016040519080825280602002602001820160405280156115cf5781602001602082028038833980820191505090505b509050828160008151811015156115e257fe5b9060200190602002019073ffffffffffffffffffffffffffffffffffffffff16908173ffffffffffffffffffffffffffffffffffffffff16815250506116266118d3565b60806040519081016040528060028054806020026020016040519081016040528092919081815260200182805480156116b457602002820191906000526020600020905b8160009054906101000a900473ffffffffffffffffffffffffffffffffffffffff1673ffffffffffffffffffffffffffffffffffffffff168152602001906001019080831161166a575b5050505050815260200183815260200160008152602001600160ff16815250905080600160008773ffffffffffffffffffffffffffffffffffffffff1673ffffffffffffffffffffffffffffffffffffffff16815260200190815260200160002060008201518160000190805190602001906117319291906118ff565b50602082015181600101908051906020019061174e9291906118ff565b506040820151816002015560608201518160030160006101000a81548160ff021916908360ff16021790555090505050505b505050565b6000809054906101000a900473ffffffffffffffffffffffffffffffffffffffff1681565b60055481565b60008082840190508381101515156117fd576040517f08c379a00000000000000000000000000000000000000000000000000000000081526004016117f490611dc0565b60405180910390fd5b8091505092915050565b60008083141561181a5760009050611875565b6000828402905082848281151561182d57fe5b04141515611870576040517f08c379a000000000000000000000000000000000000000000000000000000000815260040161186790611e00565b60405180910390fd5b809150505b92915050565b60008282111515156118c2576040517f08c379a00000000000000000000000000000000000000000000000000000000081526004016118b990611de0565b60405180910390fd5b600082840390508091505092915050565b608060405190810160405280606081526020016060815260200160008152602001600060ff1681525090565b828054828255906000526020600020908101928215611978579160200282015b828111156119775782518260006101000a81548173ffffffffffffffffffffffffffffffffffffffff021916908373ffffffffffffffffffffffffffffffffffffffff1602179055509160200191906001019061191f565b5b5090506119859190611989565b5090565b6119c991905b808211156119c557600081816101000a81549073ffffffffffffffffffffffffffffffffffffffff02191690555060010161198f565b5090565b90565b60006119d88235611f1b565b905092915050565b60006119ec8235611f4d565b905092915050565b6000611a008251611f4d565b905092915050565b6000611a148235611f57565b905092915050565b600060208284031215611a2e57600080fd5b6000611a3c848285016119cc565b91505092915050565b60008060408385031215611a5857600080fd5b6000611a66858286016119cc565b9250506020611a77858286016119cc565b9150509250929050565b60008060408385031215611a9457600080fd5b6000611aa2858286016119cc565b9250506020611ab3858286016119e0565b9150509250929050565b600060208284031215611acf57600080fd5b6000611add848285016119e0565b91505092915050565b600060208284031215611af857600080fd5b6000611b06848285016119f4565b91505092915050565b600080600060608486031215611b2457600080fd5b6000611b32868287016119e0565b9350506020611b43868287016119e0565b9250506040611b54868287016119e0565b9150509250925092565b600060208284031215611b7057600080fd5b6000611b7e84828501611a08565b91505092915050565b6000611b938383611b9f565b60208301905092915050565b611ba881611ec6565b82525050565b611bb781611ec6565b82525050565b6000611bc882611e8c565b611bd28185611ea4565b9350611bdd83611e7f565b60005b82811015611c0b57611bf3868351611b87565b9550611bfe82611e97565b9150600181019050611be0565b50849250505092915050565b611c2081611ed8565b82525050565b6000611c33601b83611eb5565b91507f536166654d6174683a206164646974696f6e206f766572666c6f7700000000006000830152602082019050919050565b6000611c73601e83611eb5565b91507f536166654d6174683a207375627472616374696f6e206f766572666c6f7700006000830152602082019050919050565b6000611cb3602183611eb5565b91507f536166654d6174683a206d756c7469706c69636174696f6e206f766572666c6f60008301527f77000000000000000000000000000000000000000000000000000000000000006020830152604082019050919050565b611d1581611f04565b82525050565b611d2481611f0e565b82525050565b6000602082019050611d3f6000830184611bae565b92915050565b60006020820190508181036000830152611d5f8184611bbd565b905092915050565b60006060820190508181036000830152611d818186611bbd565b9050611d906020830185611d0c565b611d9d6040830184611d1b565b949350505050565b6000602082019050611dba6000830184611c17565b92915050565b60006020820190508181036000830152611dd981611c26565b9050919050565b60006020820190508181036000830152611df981611c66565b9050919050565b60006020820190508181036000830152611e1981611ca6565b9050919050565b6000602082019050611e356000830184611d0c565b92915050565b6000604082019050611e506000830185611d0c565b611e5d6020830184611d1b565b9392505050565b6000602082019050611e796000830184611d1b565b92915050565b6000602082019050919050565b600081519050919050565b6000602082019050919050565b600082825260208201905092915050565b600082825260208201905092915050565b6000611ed182611ee4565b9050919050565b60008115159050919050565b600073ffffffffffffffffffffffffffffffffffffffff82169050919050565b6000819050919050565b600060ff82169050919050565b6000611f2682611f2d565b9050919050565b600073ffffffffffffffffffffffffffffffffffffffff82169050919050565b6000819050919050565b600060ff8216905091905056fea265627a7a723058204eba80b4024f8d897517ca7fd351a92003a7ecd7a1a46b5a78f0618d4adb665e6c6578706572696d656e74616cf50037",
  "source": "pragma solidity ^0.5.0;\npragma experimental ABIEncoderV2;\nimport \"./SafeMath.sol\";\n\ninterface InvestmentContractInterface {\n    function _totalPayments () external view returns (uint256);\n}\n\ncontract InvestmentRanking {\n    using SafeMath for uint256;\n\n    address public _manager; //manager address\n    struct InvestmentManager {\n        address[] investmentAddresses;      //array of all investments created by this InvestmentManager\n        address[] proxyContractAddresses;   //array of all proxy contract addresses used for signing with uPort\n        uint256 totalPaymentsFromInvestments; //total of all payments that have been made against investments created by this manager\n        uint8     rank;    //InvestmentManager ranking 0-10\n    }\n    mapping(address => InvestmentManager) public _investmentManagers;   //mapping between address and investment manager details\n    address[] private _tempAddressArray;  \n\n    uint256 public _a; //A-coefficient of quadratic function\n    uint256 public _b; //B-coefficient of quadratic function\n    uint256 public _c; //C-coefficient of quadratic function\n\n    modifier onlyManager() {\n        require(msg.sender == _manager);\n        _;\n    }\n\n    constructor () public\n    {\n        //seed ranking function constants\n        _a = 50000;\n        _b = 49990;\n        _c = 0;\n        //assign manager\n        _manager = msg.sender;\n    }\n\n    function createInvestmentManagerIfNotExists (address investmentManagerAddress, address proxyContractAddress) external {\n        InvestmentManager memory investmentManager = _investmentManagers[investmentManagerAddress];\n        if (investmentManager.rank == 0){\n            address[] memory _proxyContractTempAddressArray = new address[](1);\n            _proxyContractTempAddressArray[0] = proxyContractAddress;\n            InvestmentManager memory newInvestmentManager = InvestmentManager(_tempAddressArray,_proxyContractTempAddressArray,  0, 1);\n            //assign to storage\n            _investmentManagers[investmentManagerAddress] = newInvestmentManager;\n        }\n    }\n\n    //this function's security is weak, improvement needed here so that addresses don't randomly get assigned to investmentManagers in order to arbitrarily increase their ranking\n    function saveInvestment(address investmentAddress, address investmentManagerAddress) external {\n        _investmentManagers[investmentManagerAddress].investmentAddresses.push(investmentAddress); \n    }\n\n    function getProxyContractsOfAddress (address investmentManagerAddress) public view returns (address[] memory) {\n        InvestmentManager memory investmentManager = _investmentManagers[investmentManagerAddress];\n        return (\n            investmentManager.proxyContractAddresses\n        );\n    }\n\n    function getInvestmentManager(address investmentManagerAddress) public view returns(address[] memory, uint256, uint8) {\n        InvestmentManager memory investmentManager = _investmentManagers[investmentManagerAddress];\n        return (\n            investmentManager.investmentAddresses,\n            investmentManager.totalPaymentsFromInvestments,\n            investmentManager.rank\n        );\n    } \n\n    function getInvestmentManagerRanking(address investmentManagerAddress) public view returns (uint8){\n        InvestmentManager memory investmentManager = _investmentManagers[investmentManagerAddress];\n        return (\n            investmentManager.rank\n        );\n    }\n\n    function setCoefficients(uint256 a, uint256 b, uint256 c) external onlyManager() {\n        _a = a;\n        _b = b;\n        _c = c;\n    }\n\n    function calculateTotalWeiAllowed (uint8 rank) public view returns (uint256){\n        //investment cost allowed calculated using a quadratic formula (base implementation, needs refining)\n        uint256 a = _a.mul(rank).mul(rank);\n        uint256 b = _b.mul(rank);\n        uint256 totalInvestmentCostAllowedInEth = a.sub(b);\n\n        uint256 weiConstant = 1000000000000000000;\n        uint256 totalInvestmentCostInWei = totalInvestmentCostAllowedInEth.mul(weiConstant);\n        return totalInvestmentCostInWei;\n    }\n\n    function isInvestmentAllowed(address investmentManagerAddress, uint256 investmentCost) public returns (bool){\n        InvestmentManager memory investmentManager = _investmentManagers[investmentManagerAddress];\n        uint8 rank = investmentManager.rank;\n        uint256 totalCostAllowed = calculateTotalWeiAllowed(rank);\n\n        if (investmentCost <= totalCostAllowed){\n            return true;\n        }else{\n            return false;\n        }\n    }\n\n    function calculateInvestmentManagersTotalPayments(address investmentManagerAddress) public view returns (uint256) {\n        InvestmentManager memory investmentManager = _investmentManagers[investmentManagerAddress];\n        uint256 totalPayments = 0;\n        for (uint256 i=0; i<investmentManager.investmentAddresses.length; i++) {\n            \n            InvestmentContractInterface investment =  InvestmentContractInterface(investmentManager.investmentAddresses[i]);\n\n            uint256 investmentTotalPayments = investment._totalPayments();\n\n            totalPayments =  totalPayments.add(investmentTotalPayments);\n        }\n        return totalPayments;\n    }\n\n    function isRankUpgradeAvailable(address investmentManagerAddress) public view returns (bool) {\n         InvestmentManager memory investmentManager = _investmentManagers[investmentManagerAddress];\n\n        uint256 totalInvestmentPaymentsReceived = calculateInvestmentManagersTotalPayments(investmentManagerAddress);\n        uint256 currentTotalWeiAllowed = calculateTotalWeiAllowed(investmentManager.rank);\n\n        //simple upgrade strategy, if payments received is greater than currentTotalWeiAllowed then true\n        if (totalInvestmentPaymentsReceived > currentTotalWeiAllowed){\n            return true;\n        }else{\n            return false;\n        }\n    }\n\n    function calculateRankBasedOnPayments(uint256 totalPaymentsReceived) public view returns (uint8){\n        uint8 rank = 1;\n        uint8 maxRank = 5;\n        uint256 totalWeiAllowed = 0;\n\n        while(rank < maxRank+1 ){\n            totalWeiAllowed = calculateTotalWeiAllowed(rank);\n            if (totalWeiAllowed > totalPaymentsReceived){\n                break;\n            }\n            rank++;\n        }\n\n        return rank;\n    }\n\n    function upgradeRankAndPaymentsTotal(address investmentManagerAddress) public {\n        //check if rank upgrade is available\n        bool isRankUpgradeAvailable = isRankUpgradeAvailable(investmentManagerAddress);\n        if (isRankUpgradeAvailable){\n            uint256 totalInvestmentPaymentsReceived = calculateInvestmentManagersTotalPayments(investmentManagerAddress);\n            uint8 newRank = calculateRankBasedOnPayments(totalInvestmentPaymentsReceived); \n\n            InvestmentManager memory investmentManager = _investmentManagers[investmentManagerAddress];\n            investmentManager.totalPaymentsFromInvestments = totalInvestmentPaymentsReceived;\n            investmentManager.rank = newRank;\n            _investmentManagers[investmentManagerAddress] = investmentManager;\n        }\n    }\n}",
  "sourcePath": "/Users/ethane/Documents/dev/ParmesanPals/contracts/InvestmentRanking.sol",
  "compiler": {
    "name": "solc",
    "version": "0.5.4+commit.9549d8ff.Emscripten.clang"
  },
  "schemaVersion": "1.0.1",
  "updatedAt": "2019-09-07T11:11:25.897Z"
}