{
  "contractName": "InvestmentRanking",
  "abi": [
    {
      "constant": true,
      "inputs": [],
      "name": "_b",
      "outputs": [
        {
          "internalType": "uint256",
          "name": "",
          "type": "uint256"
        }
      ],
      "payable": false,
      "stateMutability": "view",
      "type": "function"
    },
    {
      "constant": true,
      "inputs": [
        {
          "internalType": "address",
          "name": "",
          "type": "address"
        }
      ],
      "name": "_investmentManagers",
      "outputs": [
        {
          "internalType": "uint256",
          "name": "totalPaymentsFromInvestments",
          "type": "uint256"
        },
        {
          "internalType": "uint8",
          "name": "rank",
          "type": "uint8"
        }
      ],
      "payable": false,
      "stateMutability": "view",
      "type": "function"
    },
    {
      "constant": true,
      "inputs": [],
      "name": "_a",
      "outputs": [
        {
          "internalType": "uint256",
          "name": "",
          "type": "uint256"
        }
      ],
      "payable": false,
      "stateMutability": "view",
      "type": "function"
    },
    {
      "constant": true,
      "inputs": [],
      "name": "_manager",
      "outputs": [
        {
          "internalType": "address",
          "name": "",
          "type": "address"
        }
      ],
      "payable": false,
      "stateMutability": "view",
      "type": "function"
    },
    {
      "constant": true,
      "inputs": [],
      "name": "_c",
      "outputs": [
        {
          "internalType": "uint256",
          "name": "",
          "type": "uint256"
        }
      ],
      "payable": false,
      "stateMutability": "view",
      "type": "function"
    },
    {
      "inputs": [],
      "payable": false,
      "stateMutability": "nonpayable",
      "type": "constructor"
    },
    {
      "constant": false,
      "inputs": [
        {
          "internalType": "address",
          "name": "investmentManagerAddress",
          "type": "address"
        },
        {
          "internalType": "address",
          "name": "proxyContractAddress",
          "type": "address"
        }
      ],
      "name": "createInvestmentManagerIfNotExists",
      "outputs": [],
      "payable": false,
      "stateMutability": "nonpayable",
      "type": "function"
    },
    {
      "constant": false,
      "inputs": [
        {
          "internalType": "address",
          "name": "investmentAddress",
          "type": "address"
        },
        {
          "internalType": "address",
          "name": "investmentManagerAddress",
          "type": "address"
        }
      ],
      "name": "saveInvestment",
      "outputs": [],
      "payable": false,
      "stateMutability": "nonpayable",
      "type": "function"
    },
    {
      "constant": true,
      "inputs": [
        {
          "internalType": "address",
          "name": "investmentManagerAddress",
          "type": "address"
        }
      ],
      "name": "getProxyContractsOfAddress",
      "outputs": [
        {
          "internalType": "address[]",
          "name": "",
          "type": "address[]"
        }
      ],
      "payable": false,
      "stateMutability": "view",
      "type": "function"
    },
    {
      "constant": true,
      "inputs": [
        {
          "internalType": "address",
          "name": "investmentManagerAddress",
          "type": "address"
        }
      ],
      "name": "getInvestmentManager",
      "outputs": [
        {
          "internalType": "address[]",
          "name": "",
          "type": "address[]"
        },
        {
          "internalType": "uint256",
          "name": "",
          "type": "uint256"
        },
        {
          "internalType": "uint8",
          "name": "",
          "type": "uint8"
        }
      ],
      "payable": false,
      "stateMutability": "view",
      "type": "function"
    },
    {
      "constant": true,
      "inputs": [
        {
          "internalType": "address",
          "name": "investmentManagerAddress",
          "type": "address"
        }
      ],
      "name": "getInvestmentManagerRanking",
      "outputs": [
        {
          "internalType": "uint8",
          "name": "",
          "type": "uint8"
        }
      ],
      "payable": false,
      "stateMutability": "view",
      "type": "function"
    },
    {
      "constant": false,
      "inputs": [
        {
          "internalType": "uint256",
          "name": "a",
          "type": "uint256"
        },
        {
          "internalType": "uint256",
          "name": "b",
          "type": "uint256"
        },
        {
          "internalType": "uint256",
          "name": "c",
          "type": "uint256"
        }
      ],
      "name": "setCoefficients",
      "outputs": [],
      "payable": false,
      "stateMutability": "nonpayable",
      "type": "function"
    },
    {
      "constant": true,
      "inputs": [
        {
          "internalType": "uint8",
          "name": "rank",
          "type": "uint8"
        }
      ],
      "name": "calculateTotalWeiAllowed",
      "outputs": [
        {
          "internalType": "uint256",
          "name": "",
          "type": "uint256"
        }
      ],
      "payable": false,
      "stateMutability": "view",
      "type": "function"
    },
    {
      "constant": false,
      "inputs": [
        {
          "internalType": "address",
          "name": "investmentManagerAddress",
          "type": "address"
        },
        {
          "internalType": "uint256",
          "name": "investmentCost",
          "type": "uint256"
        }
      ],
      "name": "isInvestmentAllowed",
      "outputs": [
        {
          "internalType": "bool",
          "name": "",
          "type": "bool"
        }
      ],
      "payable": false,
      "stateMutability": "nonpayable",
      "type": "function"
    },
    {
      "constant": true,
      "inputs": [
        {
          "internalType": "address",
          "name": "investmentManagerAddress",
          "type": "address"
        }
      ],
      "name": "calculateInvestmentManagersTotalPayments",
      "outputs": [
        {
          "internalType": "uint256",
          "name": "",
          "type": "uint256"
        }
      ],
      "payable": false,
      "stateMutability": "view",
      "type": "function"
    },
    {
      "constant": true,
      "inputs": [
        {
          "internalType": "address",
          "name": "investmentManagerAddress",
          "type": "address"
        }
      ],
      "name": "isRankUpgradeAvailable",
      "outputs": [
        {
          "internalType": "bool",
          "name": "",
          "type": "bool"
        }
      ],
      "payable": false,
      "stateMutability": "view",
      "type": "function"
    },
    {
      "constant": true,
      "inputs": [
        {
          "internalType": "uint256",
          "name": "totalPaymentsReceived",
          "type": "uint256"
        }
      ],
      "name": "calculateRankBasedOnPayments",
      "outputs": [
        {
          "internalType": "uint8",
          "name": "",
          "type": "uint8"
        }
      ],
      "payable": false,
      "stateMutability": "view",
      "type": "function"
    },
    {
      "constant": false,
      "inputs": [
        {
          "internalType": "address",
          "name": "investmentManagerAddress",
          "type": "address"
        }
      ],
      "name": "upgradeRankAndPaymentsTotal",
      "outputs": [],
      "payable": false,
      "stateMutability": "nonpayable",
      "type": "function"
    }
  ],
  "bytecode": "0x608060405234801561001057600080fd5b5061c35060038190555061c3466004819055506000600581905550336000806101000a81548173ffffffffffffffffffffffffffffffffffffffff021916908373ffffffffffffffffffffffffffffffffffffffff160217905550611f578061007a6000396000f3fe608060405234801561001057600080fd5b506004361061010b5760003560e01c8063ad547807116100a2578063c52097d411610071578063c52097d414610305578063ced7b2e314610335578063edabf26814610353578063f0329f6b1461036f578063f5376e031461038d5761010b565b8063ad54780714610257578063afbecb4714610273578063c0cee0c9146102a5578063c4a7d722146102d55761010b565b806351972513116100de5780635197251314610197578063865afe08146101c75780639c1946e6146101f75780639ef57c17146102275761010b565b80630aa9ab2614610110578063253749961461012c5780632dfe99e31461014a5780634c611bbd1461017b575b600080fd5b61012a600480360361012591908101906119f2565b6103ab565b005b610134610455565b6040516101419190611dd1565b60405180910390f35b610164600480360361015f91908101906119c9565b61045b565b604051610172929190611dec565b60405180910390f35b61019560048036036101909190810190611abc565b61048c565b005b6101b160048036036101ac91908101906119c9565b6104ff565b6040516101be9190611dd1565b60405180910390f35b6101e160048036036101dc9190810190611a2e565b61077d565b6040516101ee9190611d56565b60405180910390f35b610211600480360361020c91908101906119c9565b61094d565b60405161021e9190611e15565b60405180910390f35b610241600480360361023c91908101906119c9565b610af3565b60405161024e9190611d56565b60405180910390f35b610271600480360361026c91908101906119c9565b610ccb565b005b61028d600480360361028891908101906119c9565b610f5b565b60405161029c93929190611d18565b60405180910390f35b6102bf60048036036102ba9190810190611a6a565b611117565b6040516102cc9190611e15565b60405180910390f35b6102ef60048036036102ea9190810190611b0b565b61116b565b6040516102fc9190611dd1565b60405180910390f35b61031f600480360361031a91908101906119c9565b611201565b60405161032c9190611cf6565b60405180910390f35b61033d6113a7565b60405161034a9190611dd1565b60405180910390f35b61036d600480360361036891908101906119f2565b6113ad565b005b610377611737565b6040516103849190611cdb565b60405180910390f35b61039561175c565b6040516103a29190611dd1565b60405180910390f35b600160008273ffffffffffffffffffffffffffffffffffffffff1673ffffffffffffffffffffffffffffffffffffffff1681526020019081526020016000206000018290806001815401808255809150509060018203906000526020600020016000909192909190916101000a81548173ffffffffffffffffffffffffffffffffffffffff021916908373ffffffffffffffffffffffffffffffffffffffff160217905550505050565b60045481565b60016020528060005260406000206000915090508060020154908060030160009054906101000a900460ff16905082565b6000809054906101000a900473ffffffffffffffffffffffffffffffffffffffff1673ffffffffffffffffffffffffffffffffffffffff163373ffffffffffffffffffffffffffffffffffffffff16146104e557600080fd5b826003819055508160048190555080600581905550505050565b600061050961187d565b600160008473ffffffffffffffffffffffffffffffffffffffff1673ffffffffffffffffffffffffffffffffffffffff168152602001908152602001600020604051806080016040529081600082018054806020026020016040519081016040528092919081815260200182805480156105d857602002820191906000526020600020905b8160009054906101000a900473ffffffffffffffffffffffffffffffffffffffff1673ffffffffffffffffffffffffffffffffffffffff168152602001906001019080831161058e575b505050505081526020016001820180548060200260200160405190810160405280929190818152602001828054801561066657602002820191906000526020600020905b8160009054906101000a900473ffffffffffffffffffffffffffffffffffffffff1673ffffffffffffffffffffffffffffffffffffffff168152602001906001019080831161061c575b50505050508152602001600282015481526020016003820160009054906101000a900460ff1660ff1660ff16815250509050600080905060008090505b826000015151811015610772576000836000015182815181106106c257fe5b6020026020010151905060008173ffffffffffffffffffffffffffffffffffffffff16633abd5f476040518163ffffffff1660e01b815260040160206040518083038186803b15801561071457600080fd5b505afa158015610728573d6000803e3d6000fd5b505050506040513d601f19601f8201168201806040525061074c9190810190611a93565b9050610761818561176290919063ffffffff16565b9350505080806001019150506106a3565b508092505050919050565b600061078761187d565b600160008573ffffffffffffffffffffffffffffffffffffffff1673ffffffffffffffffffffffffffffffffffffffff1681526020019081526020016000206040518060800160405290816000820180548060200260200160405190810160405280929190818152602001828054801561085657602002820191906000526020600020905b8160009054906101000a900473ffffffffffffffffffffffffffffffffffffffff1673ffffffffffffffffffffffffffffffffffffffff168152602001906001019080831161080c575b50505050508152602001600182018054806020026020016040519081016040528092919081815260200182805480156108e457602002820191906000526020600020905b8160009054906101000a900473ffffffffffffffffffffffffffffffffffffffff1673ffffffffffffffffffffffffffffffffffffffff168152602001906001019080831161089a575b50505050508152602001600282015481526020016003820160009054906101000a900460ff1660ff1660ff16815250509050600081606001519050600061092a8261116b565b905080851161093f5760019350505050610947565b600093505050505b92915050565b600061095761187d565b600160008473ffffffffffffffffffffffffffffffffffffffff1673ffffffffffffffffffffffffffffffffffffffff16815260200190815260200160002060405180608001604052908160008201805480602002602001604051908101604052809291908181526020018280548015610a2657602002820191906000526020600020905b8160009054906101000a900473ffffffffffffffffffffffffffffffffffffffff1673ffffffffffffffffffffffffffffffffffffffff16815260200190600101908083116109dc575b5050505050815260200160018201805480602002602001604051908101604052809291908181526020018280548015610ab457602002820191906000526020600020905b8160009054906101000a900473ffffffffffffffffffffffffffffffffffffffff1673ffffffffffffffffffffffffffffffffffffffff1681526020019060010190808311610a6a575b50505050508152602001600282015481526020016003820160009054906101000a900460ff1660ff1660ff168152505090508060600151915050919050565b6000610afd61187d565b600160008473ffffffffffffffffffffffffffffffffffffffff1673ffffffffffffffffffffffffffffffffffffffff16815260200190815260200160002060405180608001604052908160008201805480602002602001604051908101604052809291908181526020018280548015610bcc57602002820191906000526020600020905b8160009054906101000a900473ffffffffffffffffffffffffffffffffffffffff1673ffffffffffffffffffffffffffffffffffffffff1681526020019060010190808311610b82575b5050505050815260200160018201805480602002602001604051908101604052809291908181526020018280548015610c5a57602002820191906000526020600020905b8160009054906101000a900473ffffffffffffffffffffffffffffffffffffffff1673ffffffffffffffffffffffffffffffffffffffff1681526020019060010190808311610c10575b50505050508152602001600282015481526020016003820160009054906101000a900460ff1660ff1660ff168152505090506000610c97846104ff565b90506000610ca8836060015161116b565b905080821115610cbe5760019350505050610cc6565b600093505050505b919050565b6000610cd682610af3565b90508015610f57576000610ce9836104ff565b90506000610cf682611117565b9050610d0061187d565b600160008673ffffffffffffffffffffffffffffffffffffffff1673ffffffffffffffffffffffffffffffffffffffff16815260200190815260200160002060405180608001604052908160008201805480602002602001604051908101604052809291908181526020018280548015610dcf57602002820191906000526020600020905b8160009054906101000a900473ffffffffffffffffffffffffffffffffffffffff1673ffffffffffffffffffffffffffffffffffffffff1681526020019060010190808311610d85575b5050505050815260200160018201805480602002602001604051908101604052809291908181526020018280548015610e5d57602002820191906000526020600020905b8160009054906101000a900473ffffffffffffffffffffffffffffffffffffffff1673ffffffffffffffffffffffffffffffffffffffff1681526020019060010190808311610e13575b50505050508152602001600282015481526020016003820160009054906101000a900460ff1660ff1660ff168152505090508281604001818152505081816060019060ff16908160ff168152505080600160008773ffffffffffffffffffffffffffffffffffffffff1673ffffffffffffffffffffffffffffffffffffffff1681526020019081526020016000206000820151816000019080519060200190610f079291906118a8565b506020820151816001019080519060200190610f249291906118a8565b506040820151816002015560608201518160030160006101000a81548160ff021916908360ff1602179055509050505050505b5050565b6060600080610f6861187d565b600160008673ffffffffffffffffffffffffffffffffffffffff1673ffffffffffffffffffffffffffffffffffffffff1681526020019081526020016000206040518060800160405290816000820180548060200260200160405190810160405280929190818152602001828054801561103757602002820191906000526020600020905b8160009054906101000a900473ffffffffffffffffffffffffffffffffffffffff1673ffffffffffffffffffffffffffffffffffffffff1681526020019060010190808311610fed575b50505050508152602001600182018054806020026020016040519081016040528092919081815260200182805480156110c557602002820191906000526020600020905b8160009054906101000a900473ffffffffffffffffffffffffffffffffffffffff1673ffffffffffffffffffffffffffffffffffffffff168152602001906001019080831161107b575b50505050508152602001600282015481526020016003820160009054906101000a900460ff1660ff1660ff16815250509050806000015181604001518260600151829250935093509350509193909250565b6000806001905060006005905060008090505b6001820160ff168360ff161015611160576111448361116b565b90508481111561115357611160565b828060010193505061112a565b829350505050919050565b60008061119b8360ff1661118d8560ff166003546117b790919063ffffffff16565b6117b790919063ffffffff16565b905060006111b78460ff166004546117b790919063ffffffff16565b905060006111ce828461182790919063ffffffff16565b90506000670de0b6b3a7640000905060006111f282846117b790919063ffffffff16565b90508095505050505050919050565b606061120b61187d565b600160008473ffffffffffffffffffffffffffffffffffffffff1673ffffffffffffffffffffffffffffffffffffffff168152602001908152602001600020604051806080016040529081600082018054806020026020016040519081016040528092919081815260200182805480156112da57602002820191906000526020600020905b8160009054906101000a900473ffffffffffffffffffffffffffffffffffffffff1673ffffffffffffffffffffffffffffffffffffffff1681526020019060010190808311611290575b505050505081526020016001820180548060200260200160405190810160405280929190818152602001828054801561136857602002820191906000526020600020905b8160009054906101000a900473ffffffffffffffffffffffffffffffffffffffff1673ffffffffffffffffffffffffffffffffffffffff168152602001906001019080831161131e575b50505050508152602001600282015481526020016003820160009054906101000a900460ff1660ff1660ff168152505090508060200151915050919050565b60035481565b6113b561187d565b600160008473ffffffffffffffffffffffffffffffffffffffff1673ffffffffffffffffffffffffffffffffffffffff1681526020019081526020016000206040518060800160405290816000820180548060200260200160405190810160405280929190818152602001828054801561148457602002820191906000526020600020905b8160009054906101000a900473ffffffffffffffffffffffffffffffffffffffff1673ffffffffffffffffffffffffffffffffffffffff168152602001906001019080831161143a575b505050505081526020016001820180548060200260200160405190810160405280929190818152602001828054801561151257602002820191906000526020600020905b8160009054906101000a900473ffffffffffffffffffffffffffffffffffffffff1673ffffffffffffffffffffffffffffffffffffffff16815260200190600101908083116114c8575b50505050508152602001600282015481526020016003820160009054906101000a900460ff1660ff1660ff168152505090506000816060015160ff16141561173257606060016040519080825280602002602001820160405280156115865781602001602082028038833980820191505090505b509050828160008151811061159757fe5b602002602001019073ffffffffffffffffffffffffffffffffffffffff16908173ffffffffffffffffffffffffffffffffffffffff16815250506115d961187d565b6040518060800160405280600280548060200260200160405190810160405280929190818152602001828054801561166657602002820191906000526020600020905b8160009054906101000a900473ffffffffffffffffffffffffffffffffffffffff1673ffffffffffffffffffffffffffffffffffffffff168152602001906001019080831161161c575b5050505050815260200183815260200160008152602001600160ff16815250905080600160008773ffffffffffffffffffffffffffffffffffffffff1673ffffffffffffffffffffffffffffffffffffffff16815260200190815260200160002060008201518160000190805190602001906116e39291906118a8565b5060208201518160010190805190602001906117009291906118a8565b506040820151816002015560608201518160030160006101000a81548160ff021916908360ff16021790555090505050505b505050565b6000809054906101000a900473ffffffffffffffffffffffffffffffffffffffff1681565b60055481565b6000808284019050838110156117ad576040517f08c379a00000000000000000000000000000000000000000000000000000000081526004016117a490611d71565b60405180910390fd5b8091505092915050565b6000808314156117ca5760009050611821565b60008284029050828482816117db57fe5b041461181c576040517f08c379a000000000000000000000000000000000000000000000000000000000815260040161181390611db1565b60405180910390fd5b809150505b92915050565b60008282111561186c576040517f08c379a000000000000000000000000000000000000000000000000000000000815260040161186390611d91565b60405180910390fd5b600082840390508091505092915050565b6040518060800160405280606081526020016060815260200160008152602001600060ff1681525090565b828054828255906000526020600020908101928215611921579160200282015b828111156119205782518260006101000a81548173ffffffffffffffffffffffffffffffffffffffff021916908373ffffffffffffffffffffffffffffffffffffffff160217905550916020019190600101906118c8565b5b50905061192e9190611932565b5090565b61197291905b8082111561196e57600081816101000a81549073ffffffffffffffffffffffffffffffffffffffff021916905550600101611938565b5090565b90565b60008135905061198481611ecf565b92915050565b60008135905061199981611ee6565b92915050565b6000815190506119ae81611ee6565b92915050565b6000813590506119c381611efd565b92915050565b6000602082840312156119db57600080fd5b60006119e984828501611975565b91505092915050565b60008060408385031215611a0557600080fd5b6000611a1385828601611975565b9250506020611a2485828601611975565b9150509250929050565b60008060408385031215611a4157600080fd5b6000611a4f85828601611975565b9250506020611a608582860161198a565b9150509250929050565b600060208284031215611a7c57600080fd5b6000611a8a8482850161198a565b91505092915050565b600060208284031215611aa557600080fd5b6000611ab38482850161199f565b91505092915050565b600080600060608486031215611ad157600080fd5b6000611adf8682870161198a565b9350506020611af08682870161198a565b9250506040611b018682870161198a565b9150509250925092565b600060208284031215611b1d57600080fd5b6000611b2b848285016119b4565b91505092915050565b6000611b408383611b4c565b60208301905092915050565b611b5581611e7a565b82525050565b611b6481611e7a565b82525050565b6000611b7582611e40565b611b7f8185611e58565b9350611b8a83611e30565b8060005b83811015611bbb578151611ba28882611b34565b9750611bad83611e4b565b925050600181019050611b8e565b5085935050505092915050565b611bd181611e8c565b82525050565b6000611be4601b83611e69565b91507f536166654d6174683a206164646974696f6e206f766572666c6f7700000000006000830152602082019050919050565b6000611c24601e83611e69565b91507f536166654d6174683a207375627472616374696f6e206f766572666c6f7700006000830152602082019050919050565b6000611c64602183611e69565b91507f536166654d6174683a206d756c7469706c69636174696f6e206f766572666c6f60008301527f77000000000000000000000000000000000000000000000000000000000000006020830152604082019050919050565b611cc681611eb8565b82525050565b611cd581611ec2565b82525050565b6000602082019050611cf06000830184611b5b565b92915050565b60006020820190508181036000830152611d108184611b6a565b905092915050565b60006060820190508181036000830152611d328186611b6a565b9050611d416020830185611cbd565b611d4e6040830184611ccc565b949350505050565b6000602082019050611d6b6000830184611bc8565b92915050565b60006020820190508181036000830152611d8a81611bd7565b9050919050565b60006020820190508181036000830152611daa81611c17565b9050919050565b60006020820190508181036000830152611dca81611c57565b9050919050565b6000602082019050611de66000830184611cbd565b92915050565b6000604082019050611e016000830185611cbd565b611e0e6020830184611ccc565b9392505050565b6000602082019050611e2a6000830184611ccc565b92915050565b6000819050602082019050919050565b600081519050919050565b6000602082019050919050565b600082825260208201905092915050565b600082825260208201905092915050565b6000611e8582611e98565b9050919050565b60008115159050919050565b600073ffffffffffffffffffffffffffffffffffffffff82169050919050565b6000819050919050565b600060ff82169050919050565b611ed881611e7a565b8114611ee357600080fd5b50565b611eef81611eb8565b8114611efa57600080fd5b50565b611f0681611ec2565b8114611f1157600080fd5b5056fea365627a7a72315820266c22dbb5cd9a1f99e5575df7e264941264bcf94b28398c6ea9e6ce4c3058256c6578706572696d656e74616cf564736f6c634300050b0040",
  "source": "pragma solidity ^0.5.0;\r\npragma experimental ABIEncoderV2;\r\nimport \"./SafeMath.sol\";\r\n\r\ninterface InvestmentContractInterface {\r\n    function _totalPayments () external view returns (uint256);\r\n}\r\n\r\ncontract InvestmentRanking {\r\n    using SafeMath for uint256;\r\n\r\n    address public _manager; //manager address\r\n    struct InvestmentManager {\r\n        address[] investmentAddresses;      //array of all investments created by this InvestmentManager\r\n        address[] proxyContractAddresses;   //array of all proxy contract addresses used for signing with uPort\r\n        uint256 totalPaymentsFromInvestments; //total of all payments that have been made against investments created by this manager\r\n        uint8     rank;    //InvestmentManager ranking 0-10\r\n    }\r\n    mapping(address => InvestmentManager) public _investmentManagers;   //mapping between address and investment manager details\r\n    address[] private _tempAddressArray;  \r\n\r\n    uint256 public _a; //A-coefficient of quadratic function\r\n    uint256 public _b; //B-coefficient of quadratic function\r\n    uint256 public _c; //C-coefficient of quadratic function\r\n\r\n    modifier onlyManager() {\r\n        require(msg.sender == _manager);\r\n        _;\r\n    }\r\n\r\n    constructor () public\r\n    {\r\n        //seed ranking function constants\r\n        _a = 50000;\r\n        _b = 49990;\r\n        _c = 0;\r\n        //assign manager\r\n        _manager = msg.sender;\r\n    }\r\n\r\n    function createInvestmentManagerIfNotExists (address investmentManagerAddress, address proxyContractAddress) external {\r\n        InvestmentManager memory investmentManager = _investmentManagers[investmentManagerAddress];\r\n        if (investmentManager.rank == 0){\r\n            address[] memory _proxyContractTempAddressArray = new address[](1);\r\n            _proxyContractTempAddressArray[0] = proxyContractAddress;\r\n            InvestmentManager memory newInvestmentManager = InvestmentManager(_tempAddressArray,_proxyContractTempAddressArray,  0, 1);\r\n            //assign to storage\r\n            _investmentManagers[investmentManagerAddress] = newInvestmentManager;\r\n        }\r\n    }\r\n\r\n    //this function's security is weak, improvement needed here so that addresses don't randomly get assigned to investmentManagers in order to arbitrarily increase their ranking\r\n    function saveInvestment(address investmentAddress, address investmentManagerAddress) external {\r\n        _investmentManagers[investmentManagerAddress].investmentAddresses.push(investmentAddress); \r\n    }\r\n\r\n    function getProxyContractsOfAddress (address investmentManagerAddress) public view returns (address[] memory) {\r\n        InvestmentManager memory investmentManager = _investmentManagers[investmentManagerAddress];\r\n        return (\r\n            investmentManager.proxyContractAddresses\r\n        );\r\n    }\r\n\r\n    function getInvestmentManager(address investmentManagerAddress) public view returns(address[] memory, uint256, uint8) {\r\n        InvestmentManager memory investmentManager = _investmentManagers[investmentManagerAddress];\r\n        return (\r\n            investmentManager.investmentAddresses,\r\n            investmentManager.totalPaymentsFromInvestments,\r\n            investmentManager.rank\r\n        );\r\n    } \r\n\r\n    function getInvestmentManagerRanking(address investmentManagerAddress) public view returns (uint8){\r\n        InvestmentManager memory investmentManager = _investmentManagers[investmentManagerAddress];\r\n        return (\r\n            investmentManager.rank\r\n        );\r\n    }\r\n\r\n    function setCoefficients(uint256 a, uint256 b, uint256 c) external onlyManager() {\r\n        _a = a;\r\n        _b = b;\r\n        _c = c;\r\n    }\r\n\r\n    function calculateTotalWeiAllowed (uint8 rank) public view returns (uint256){\r\n        //investment cost allowed calculated using a quadratic formula (base implementation, needs refining)\r\n        uint256 a = _a.mul(rank).mul(rank);\r\n        uint256 b = _b.mul(rank);\r\n        uint256 totalInvestmentCostAllowedInEth = a.sub(b);\r\n\r\n        uint256 weiConstant = 1000000000000000000;\r\n        uint256 totalInvestmentCostInWei = totalInvestmentCostAllowedInEth.mul(weiConstant);\r\n        return totalInvestmentCostInWei;\r\n    }\r\n\r\n    function isInvestmentAllowed(address investmentManagerAddress, uint256 investmentCost) public returns (bool){\r\n        InvestmentManager memory investmentManager = _investmentManagers[investmentManagerAddress];\r\n        uint8 rank = investmentManager.rank;\r\n        uint256 totalCostAllowed = calculateTotalWeiAllowed(rank);\r\n\r\n        if (investmentCost <= totalCostAllowed){\r\n            return true;\r\n        }else{\r\n            return false;\r\n        }\r\n    }\r\n\r\n    function calculateInvestmentManagersTotalPayments(address investmentManagerAddress) public view returns (uint256) {\r\n        InvestmentManager memory investmentManager = _investmentManagers[investmentManagerAddress];\r\n        uint256 totalPayments = 0;\r\n        for (uint256 i=0; i<investmentManager.investmentAddresses.length; i++) {\r\n            \r\n            InvestmentContractInterface investment =  InvestmentContractInterface(investmentManager.investmentAddresses[i]);\r\n\r\n            uint256 investmentTotalPayments = investment._totalPayments();\r\n\r\n            totalPayments =  totalPayments.add(investmentTotalPayments);\r\n        }\r\n        return totalPayments;\r\n    }\r\n\r\n    function isRankUpgradeAvailable(address investmentManagerAddress) public view returns (bool) {\r\n         InvestmentManager memory investmentManager = _investmentManagers[investmentManagerAddress];\r\n\r\n        uint256 totalInvestmentPaymentsReceived = calculateInvestmentManagersTotalPayments(investmentManagerAddress);\r\n        uint256 currentTotalWeiAllowed = calculateTotalWeiAllowed(investmentManager.rank);\r\n\r\n        //simple upgrade strategy, if payments received is greater than currentTotalWeiAllowed then true\r\n        if (totalInvestmentPaymentsReceived > currentTotalWeiAllowed){\r\n            return true;\r\n        }else{\r\n            return false;\r\n        }\r\n    }\r\n\r\n    function calculateRankBasedOnPayments(uint256 totalPaymentsReceived) public view returns (uint8){\r\n        uint8 rank = 1;\r\n        uint8 maxRank = 5;\r\n        uint256 totalWeiAllowed = 0;\r\n\r\n        while(rank < maxRank+1 ){\r\n            totalWeiAllowed = calculateTotalWeiAllowed(rank);\r\n            if (totalWeiAllowed > totalPaymentsReceived){\r\n                break;\r\n            }\r\n            rank++;\r\n        }\r\n\r\n        return rank;\r\n    }\r\n\r\n    function upgradeRankAndPaymentsTotal(address investmentManagerAddress) public {\r\n        //check if rank upgrade is available\r\n        bool isRankUpgradeAvailable = isRankUpgradeAvailable(investmentManagerAddress);\r\n        if (isRankUpgradeAvailable){\r\n            uint256 totalInvestmentPaymentsReceived = calculateInvestmentManagersTotalPayments(investmentManagerAddress);\r\n            uint8 newRank = calculateRankBasedOnPayments(totalInvestmentPaymentsReceived); \r\n\r\n            InvestmentManager memory investmentManager = _investmentManagers[investmentManagerAddress];\r\n            investmentManager.totalPaymentsFromInvestments = totalInvestmentPaymentsReceived;\r\n            investmentManager.rank = newRank;\r\n            _investmentManagers[investmentManagerAddress] = investmentManager;\r\n        }\r\n    }\r\n}",
  "sourcePath": "C:\\repos\\ParmesanPals\\contracts\\InvestmentRanking.sol",
  "compiler": {
    "name": "solc",
    "version": "0.5.11+commit.c082d0b4.Emscripten.clang",
    "optimizer": false,
    "runs": 200
  },
  "schemaVersion": "2.2.0",
  "updatedAt": "2019-09-13T18:46:46.034Z"
}