{
  "contractName": "WizardPowerExchange",
  "abi": [
    {
      "constant": true,
      "inputs": [
        {
          "name": "",
          "type": "uint256"
        }
      ],
      "name": "_wizardsRegistered",
      "outputs": [
        {
          "name": "wizardId",
          "type": "uint256"
        },
        {
          "name": "weiPerPowerPrice",
          "type": "uint256"
        },
        {
          "name": "wizardOwner",
          "type": "address"
        },
        {
          "name": "registeredForPowerExchange",
          "type": "bool"
        }
      ],
      "payable": false,
      "stateMutability": "view",
      "type": "function"
    },
    {
      "constant": true,
      "inputs": [],
      "name": "_manager",
      "outputs": [
        {
          "name": "",
          "type": "address"
        }
      ],
      "payable": false,
      "stateMutability": "view",
      "type": "function"
    },
    {
      "inputs": [],
      "payable": false,
      "stateMutability": "nonpayable",
      "type": "constructor"
    },
    {
      "constant": true,
      "inputs": [
        {
          "name": "wizardId",
          "type": "uint256"
        }
      ],
      "name": "isDuplicateWizard",
      "outputs": [
        {
          "name": "",
          "type": "bool"
        }
      ],
      "payable": false,
      "stateMutability": "view",
      "type": "function"
    },
    {
      "constant": false,
      "inputs": [
        {
          "name": "wizardId",
          "type": "uint256"
        },
        {
          "name": "weiPerPowerPrice",
          "type": "uint256"
        }
      ],
      "name": "registerWizard",
      "outputs": [],
      "payable": false,
      "stateMutability": "nonpayable",
      "type": "function"
    },
    {
      "constant": false,
      "inputs": [
        {
          "name": "wizardId",
          "type": "uint256"
        }
      ],
      "name": "unregisterWizard",
      "outputs": [],
      "payable": false,
      "stateMutability": "nonpayable",
      "type": "function"
    },
    {
      "constant": true,
      "inputs": [],
      "name": "getAllRegisteredWizards",
      "outputs": [
        {
          "components": [
            {
              "name": "wizardId",
              "type": "uint256"
            },
            {
              "name": "weiPerPowerPrice",
              "type": "uint256"
            },
            {
              "name": "wizardOwner",
              "type": "address"
            },
            {
              "name": "registeredForPowerExchange",
              "type": "bool"
            }
          ],
          "name": "",
          "type": "tuple[]"
        }
      ],
      "payable": false,
      "stateMutability": "view",
      "type": "function"
    },
    {
      "constant": true,
      "inputs": [
        {
          "name": "wizardId",
          "type": "uint256"
        }
      ],
      "name": "getWizardIndexById",
      "outputs": [
        {
          "name": "",
          "type": "uint256"
        }
      ],
      "payable": false,
      "stateMutability": "view",
      "type": "function"
    }
  ],
  "bytecode": "0x608060405234801561001057600080fd5b50336000806101000a81548173ffffffffffffffffffffffffffffffffffffffff021916908373ffffffffffffffffffffffffffffffffffffffff1602179055506109bc806100606000396000f3fe608060405234801561001057600080fd5b5060043610610099576000357c0100000000000000000000000000000000000000000000000000000000900480637c59de55116100785780637c59de5514610108578063d90d376014610138578063ea748ef214610154578063f0329f6b1461018757610099565b80627dfd211461009e5780630d8650a0146100ce5780635123af89146100ec575b600080fd5b6100b860048036036100b3919081019061064b565b6101a5565b6040516100c59190610889565b60405180910390f35b6100d66101c2565b6040516100e3919061082c565b60405180910390f35b6101066004803603610101919081019061064b565b6102a7565b005b610122600480360361011d919081019061064b565b6102fd565b60405161012f919061084e565b60405180910390f35b610152600480360361014d9190810190610674565b610378565b005b61016e6004803603610169919081019061064b565b610510565b60405161017e94939291906108a4565b60405180910390f35b61018f61057c565b60405161019c9190610811565b60405180910390f35b600060026000838152602001908152602001600020549050919050565b60606001805480602002602001604051908101604052809291908181526020016000905b8282101561029e57838290600052602060002090600302016080604051908101604052908160008201548152602001600182015481526020016002820160009054906101000a900473ffffffffffffffffffffffffffffffffffffffff1673ffffffffffffffffffffffffffffffffffffffff1673ffffffffffffffffffffffffffffffffffffffff1681526020016002820160149054906101000a900460ff161515151581525050815260200190600101906101e6565b50505050905090565b6102b0816102fd565b15156102f1576040517f08c379a00000000000000000000000000000000000000000000000000000000081526004016102e890610869565b60405180910390fd5b6102fa816105a1565b50565b60006001808054905010151561036e576000600260008481526020019081526020016000205490506000811115610338576001915050610373565b600081141561036c578260018281548110151561035157fe5b90600052602060002090600302016000015414915050610373565b505b600090505b919050565b610381826102fd565b156103f6576000610391836101a5565b9050816001828154811015156103a357fe5b906000526020600020906003020160010181905550600180828154811015156103c857fe5b906000526020600020906003020160020160146101000a81548160ff0219169083151502179055505061050c565b6103fe6105f6565b6080604051908101604052808481526020018381526020013373ffffffffffffffffffffffffffffffffffffffff1681526020016001151581525090506000600180549050905080600260008681526020019081526020016000208190555060018290806001815401808255809150509060018203906000526020600020906003020160009091929091909150600082015181600001556020820151816001015560408201518160020160006101000a81548173ffffffffffffffffffffffffffffffffffffffff021916908373ffffffffffffffffffffffffffffffffffffffff16021790555060608201518160020160146101000a81548160ff02191690831515021790555050505050505b5050565b60018181548110151561051f57fe5b90600052602060002090600302016000915090508060000154908060010154908060020160009054906101000a900473ffffffffffffffffffffffffffffffffffffffff16908060020160149054906101000a900460ff16905084565b6000809054906101000a900473ffffffffffffffffffffffffffffffffffffffff1681565b60006002600083815260200190815260200160002054905060006001828154811015156105ca57fe5b906000526020600020906003020160020160146101000a81548160ff0219169083151502179055505050565b6080604051908101604052806000815260200160008152602001600073ffffffffffffffffffffffffffffffffffffffff1681526020016000151581525090565b60006106438235610978565b905092915050565b60006020828403121561065d57600080fd5b600061066b84828501610637565b91505092915050565b6000806040838503121561068757600080fd5b600061069585828601610637565b92505060206106a685828601610637565b9150509250929050565b60006106bc838361079e565b60808301905092915050565b6106d181610930565b82525050565b6106e081610930565b82525050565b60006106f1826108f6565b6106fb818561090e565b9350610706836108e9565b60005b828110156107345761071c8683516106b0565b955061072782610901565b9150600181019050610709565b50849250505092915050565b61074981610942565b82525050565b61075881610942565b82525050565b600061076b601d8361091f565b91507f77697a617264206e6565647320746f20626520726567697374657265640000006000830152602082019050919050565b6080820160008201516107b460008501826107f3565b5060208201516107c760208501826107f3565b5060408201516107da60408501826106c8565b5060608201516107ed6060850182610740565b50505050565b6107fc8161096e565b82525050565b61080b8161096e565b82525050565b600060208201905061082660008301846106d7565b92915050565b6000602082019050818103600083015261084681846106e6565b905092915050565b6000602082019050610863600083018461074f565b92915050565b600060208201905081810360008301526108828161075e565b9050919050565b600060208201905061089e6000830184610802565b92915050565b60006080820190506108b96000830187610802565b6108c66020830186610802565b6108d360408301856106d7565b6108e0606083018461074f565b95945050505050565b6000602082019050919050565b600081519050919050565b6000602082019050919050565b600082825260208201905092915050565b600082825260208201905092915050565b600061093b8261094e565b9050919050565b60008115159050919050565b600073ffffffffffffffffffffffffffffffffffffffff82169050919050565b6000819050919050565b600081905091905056fea265627a7a72305820ad2f00f04727ece6fb860b90cd3e6b92600d9060e1668d1643ef69d215c6ea656c6578706572696d656e74616cf50037",
  "source": "pragma solidity ^0.5.0;\r\npragma experimental ABIEncoderV2;\r\n\r\ncontract WizardPowerExchange {\r\n\r\n    address public _manager;\r\n    struct RegisteredWizard {\r\n        uint256 wizardId;\r\n        uint256 weiPerPowerPrice;\r\n        address wizardOwner;\r\n        bool registeredForPowerExchange;\r\n    }\r\n    //array of all wizards registered for power exchange\r\n    RegisteredWizard[] public _wizardsRegistered;\r\n    //mapping of registeredWizardId to array index\r\n    mapping(uint=>uint) _indexOfWizard;\r\n\r\n    constructor() public{\r\n        //set the manager of this contract = deployer account\r\n        _manager = msg.sender;\r\n    }\r\n\r\n    function isDuplicateWizard (uint256 wizardId) public view returns (bool){\r\n        //duplicates can only occur when there are wizards registered\r\n        if (_wizardsRegistered.length >= 1){\r\n\r\n            uint index = _indexOfWizard[wizardId];\r\n            //we found a wizard index, therefore a wizard with this id must have already been registered\r\n            if (index > 0){\r\n                return true;\r\n            }\r\n\r\n            //this means the wizard is the first wizard registered or that the mapping defaulted\r\n            if (index == 0) { \r\n                //check if its the first wizard registered\r\n                return  _wizardsRegistered[index].wizardId == wizardId;\r\n            }\r\n        }\r\n\r\n        return false;\r\n    }\r\n\r\n    function registerWizard(uint256 wizardId, uint256 weiPerPowerPrice) external {\r\n        //check that wizard belongs to sender address (ommitted for now)\r\n\r\n        //check for duplicate registration\r\n        if(isDuplicateWizard(wizardId)){\r\n            //update price per power and registration flag\r\n            uint256 index = getWizardIndexById(wizardId);\r\n            _wizardsRegistered[index].weiPerPowerPrice = weiPerPowerPrice;\r\n            _wizardsRegistered[index].registeredForPowerExchange = true;\r\n            return;\r\n        }\r\n\r\n        //create registeredWizard struct\r\n        RegisteredWizard memory wizard = RegisteredWizard(wizardId, weiPerPowerPrice, msg.sender, true);\r\n\r\n        //determine index of registered wizard\r\n        uint wizardIndex = _wizardsRegistered.length;\r\n        //register wizardId into mapping\r\n        _indexOfWizard[wizardId] = wizardIndex;\r\n\r\n        _wizardsRegistered.push(wizard);\r\n    }\r\n\r\n    function unregisterWizard(uint256 wizardId) external {\r\n        //wizard should be a duplicate because this means that its already been registered, can't unregister a wizard that was never registered\r\n        require(isDuplicateWizard(wizardId), \"wizard needs to be registered\");\r\n\r\n\r\n        //find registered wizard and remove from _registeredWizards\r\n        removeRegisteredWizard(wizardId);\r\n    }\r\n\r\n    function removeRegisteredWizard(uint256 wizardToUnregister) internal {\r\n        uint index = _indexOfWizard[wizardToUnregister];\r\n\r\n        //unregister the wizard\r\n        _wizardsRegistered[index].registeredForPowerExchange = false;\r\n    }\r\n\r\n    function getAllRegisteredWizards() public view returns(RegisteredWizard[] memory){\r\n        return _wizardsRegistered;\r\n    }\r\n\r\n    function getWizardIndexById(uint256 wizardId) public view returns (uint256) {\r\n        return _indexOfWizard[wizardId];\r\n    }\r\n\r\n}",
  "sourcePath": "C:\\repos\\ParmesanPals\\contracts\\WizardPowerExchange.sol",
  "compiler": {
    "name": "solc",
    "version": "0.5.4+commit.9549d8ff.Emscripten.clang"
  },
  "schemaVersion": "1.0.1",
  "updatedAt": "2019-09-14T17:48:58.381Z"
}