{
  "contractName": "WizardPowerExchange",
  "abi": [
    {
      "constant": true,
      "inputs": [
        {
          "internalType": "uint256",
          "name": "",
          "type": "uint256"
        }
      ],
      "name": "_wizardsRegistered",
      "outputs": [
        {
          "internalType": "uint256",
          "name": "wizardId",
          "type": "uint256"
        },
        {
          "internalType": "uint256",
          "name": "weiPerPowerPrice",
          "type": "uint256"
        },
        {
          "internalType": "address",
          "name": "wizardOwner",
          "type": "address"
        },
        {
          "internalType": "bool",
          "name": "registeredForPowerExchange",
          "type": "bool"
        }
      ],
      "payable": false,
      "stateMutability": "view",
      "type": "function"
    },
    {
      "constant": true,
      "inputs": [],
      "name": "_manager",
      "outputs": [
        {
          "internalType": "address",
          "name": "",
          "type": "address"
        }
      ],
      "payable": false,
      "stateMutability": "view",
      "type": "function"
    },
    {
      "inputs": [],
      "payable": false,
      "stateMutability": "nonpayable",
      "type": "constructor"
    },
    {
      "constant": true,
      "inputs": [
        {
          "internalType": "uint256",
          "name": "wizardId",
          "type": "uint256"
        }
      ],
      "name": "isDuplicateWizard",
      "outputs": [
        {
          "internalType": "bool",
          "name": "",
          "type": "bool"
        }
      ],
      "payable": false,
      "stateMutability": "view",
      "type": "function"
    },
    {
      "constant": false,
      "inputs": [
        {
          "internalType": "uint256",
          "name": "wizardId",
          "type": "uint256"
        },
        {
          "internalType": "uint256",
          "name": "weiPerPowerPrice",
          "type": "uint256"
        }
      ],
      "name": "registerWizard",
      "outputs": [],
      "payable": false,
      "stateMutability": "nonpayable",
      "type": "function"
    },
    {
      "constant": false,
      "inputs": [
        {
          "internalType": "uint256",
          "name": "wizardId",
          "type": "uint256"
        }
      ],
      "name": "unregisterWizard",
      "outputs": [],
      "payable": false,
      "stateMutability": "nonpayable",
      "type": "function"
    },
    {
      "constant": true,
      "inputs": [],
      "name": "getAllRegisteredWizards",
      "outputs": [
        {
          "components": [
            {
              "internalType": "uint256",
              "name": "wizardId",
              "type": "uint256"
            },
            {
              "internalType": "uint256",
              "name": "weiPerPowerPrice",
              "type": "uint256"
            },
            {
              "internalType": "address",
              "name": "wizardOwner",
              "type": "address"
            },
            {
              "internalType": "bool",
              "name": "registeredForPowerExchange",
              "type": "bool"
            }
          ],
          "internalType": "struct WizardPowerExchange.RegisteredWizard[]",
          "name": "",
          "type": "tuple[]"
        }
      ],
      "payable": false,
      "stateMutability": "view",
      "type": "function"
    },
    {
      "constant": true,
      "inputs": [
        {
          "internalType": "uint256",
          "name": "wizardId",
          "type": "uint256"
        }
      ],
      "name": "getWizardIndexById",
      "outputs": [
        {
          "internalType": "uint256",
          "name": "",
          "type": "uint256"
        }
      ],
      "payable": false,
      "stateMutability": "view",
      "type": "function"
    },
    {
      "constant": true,
      "inputs": [
        {
          "internalType": "uint256",
          "name": "wizardId",
          "type": "uint256"
        }
      ],
      "name": "isWizardRegistered",
      "outputs": [
        {
          "internalType": "bool",
          "name": "",
          "type": "bool"
        }
      ],
      "payable": false,
      "stateMutability": "view",
      "type": "function"
    }
  ],
  "bytecode": "0x608060405234801561001057600080fd5b50336000806101000a81548173ffffffffffffffffffffffffffffffffffffffff021916908373ffffffffffffffffffffffffffffffffffffffff160217905550610a52806100606000396000f3fe608060405234801561001057600080fd5b50600436106100875760003560e01c8063d90d37601161005b578063d90d376014610126578063ea748ef214610142578063eef0d2af14610175578063f0329f6b146101a557610087565b80627dfd211461008c5780630d8650a0146100bc5780635123af89146100da5780637c59de55146100f6575b600080fd5b6100a660048036036100a191908101906106c4565b6101c3565b6040516100b39190610906565b60405180910390f35b6100c46101e0565b6040516100d191906108a9565b60405180910390f35b6100f460048036036100ef91908101906106c4565b6102c4565b005b610110600480360361010b91908101906106c4565b610318565b60405161011d91906108cb565b60405180910390f35b610140600480360361013b91908101906106ed565b61038f565b005b61015c600480360361015791908101906106c4565b610522565b60405161016c9493929190610921565b60405180910390f35b61018f600480360361018a91908101906106c4565b61058c565b60405161019c91906108cb565b60405180910390f35b6101ad6105f7565b6040516101ba919061088e565b60405180910390f35b600060026000838152602001908152602001600020549050919050565b60606001805480602002602001604051908101604052809291908181526020016000905b828210156102bb578382906000526020600020906003020160405180608001604052908160008201548152602001600182015481526020016002820160009054906101000a900473ffffffffffffffffffffffffffffffffffffffff1673ffffffffffffffffffffffffffffffffffffffff1673ffffffffffffffffffffffffffffffffffffffff1681526020016002820160149054906101000a900460ff16151515158152505081526020019060010190610204565b50505050905090565b6102cd81610318565b61030c576040517f08c379a0000000000000000000000000000000000000000000000000000000008152600401610303906108e6565b60405180910390fd5b6103158161061c565b50565b6000600180805490501061038557600060026000848152602001908152602001600020549050600081111561035157600191505061038a565b600081141561038357826001828154811061036857fe5b9060005260206000209060030201600001541491505061038a565b505b600090505b919050565b61039882610318565b156104095760006103a8836101c3565b905081600182815481106103b857fe5b90600052602060002090600302016001018190555060018082815481106103db57fe5b906000526020600020906003020160020160146101000a81548160ff0219169083151502179055505061051e565b61041161066f565b60405180608001604052808481526020018381526020013373ffffffffffffffffffffffffffffffffffffffff1681526020016001151581525090506000600180549050905080600260008681526020019081526020016000208190555060018290806001815401808255809150509060018203906000526020600020906003020160009091929091909150600082015181600001556020820151816001015560408201518160020160006101000a81548173ffffffffffffffffffffffffffffffffffffffff021916908373ffffffffffffffffffffffffffffffffffffffff16021790555060608201518160020160146101000a81548160ff02191690831515021790555050505050505b5050565b6001818154811061052f57fe5b90600052602060002090600302016000915090508060000154908060010154908060020160009054906101000a900473ffffffffffffffffffffffffffffffffffffffff16908060020160149054906101000a900460ff16905084565b60008061059883610318565b9050806105a95760009150506105f2565b600060026000858152602001908152602001600020549050600181815481106105ce57fe5b906000526020600020906003020160020160149054906101000a900460ff16925050505b919050565b6000809054906101000a900473ffffffffffffffffffffffffffffffffffffffff1681565b60006002600083815260200190815260200160002054905060006001828154811061064357fe5b906000526020600020906003020160020160146101000a81548160ff0219169083151502179055505050565b60405180608001604052806000815260200160008152602001600073ffffffffffffffffffffffffffffffffffffffff1681526020016000151581525090565b6000813590506106be816109f8565b92915050565b6000602082840312156106d657600080fd5b60006106e4848285016106af565b91505092915050565b6000806040838503121561070057600080fd5b600061070e858286016106af565b925050602061071f858286016106af565b9150509250929050565b6000610735838361081b565b60808301905092915050565b61074a816109b0565b82525050565b610759816109b0565b82525050565b600061076a82610976565b610774818561098e565b935061077f83610966565b8060005b838110156107b05781516107978882610729565b97506107a283610981565b925050600181019050610783565b5085935050505092915050565b6107c6816109c2565b82525050565b6107d5816109c2565b82525050565b60006107e8601d8361099f565b91507f77697a617264206e6565647320746f20626520726567697374657265640000006000830152602082019050919050565b6080820160008201516108316000850182610870565b5060208201516108446020850182610870565b5060408201516108576040850182610741565b50606082015161086a60608501826107bd565b50505050565b610879816109ee565b82525050565b610888816109ee565b82525050565b60006020820190506108a36000830184610750565b92915050565b600060208201905081810360008301526108c3818461075f565b905092915050565b60006020820190506108e060008301846107cc565b92915050565b600060208201905081810360008301526108ff816107db565b9050919050565b600060208201905061091b600083018461087f565b92915050565b6000608082019050610936600083018761087f565b610943602083018661087f565b6109506040830185610750565b61095d60608301846107cc565b95945050505050565b6000819050602082019050919050565b600081519050919050565b6000602082019050919050565b600082825260208201905092915050565b600082825260208201905092915050565b60006109bb826109ce565b9050919050565b60008115159050919050565b600073ffffffffffffffffffffffffffffffffffffffff82169050919050565b6000819050919050565b610a01816109ee565b8114610a0c57600080fd5b5056fea365627a7a7231582085fdfb42115cf7c112fc0edccfb09d293f29ea97619837e95f2d2a70bd645b446c6578706572696d656e74616cf564736f6c634300050b0040",
  "source": "pragma solidity ^0.5.0;\npragma experimental ABIEncoderV2;\n\ncontract WizardPowerExchange {\n\n    address public _manager;\n    struct RegisteredWizard {\n        uint256 wizardId;\n        uint256 weiPerPowerPrice;\n        address wizardOwner;\n        bool registeredForPowerExchange;\n    }\n    //array of all wizards registered for power exchange\n    RegisteredWizard[] public _wizardsRegistered;\n    //mapping of registeredWizardId to array index\n    mapping(uint=>uint) _indexOfWizard;\n\n    constructor() public{\n        //set the manager of this contract = deployer account\n        _manager = msg.sender;\n    }\n\n    function isDuplicateWizard (uint256 wizardId) public view returns (bool){\n        //duplicates can only occur when there are wizards registered\n        if (_wizardsRegistered.length >= 1){\n\n            uint index = _indexOfWizard[wizardId];\n            //we found a wizard index, therefore a wizard with this id must have already been registered\n            if (index > 0){\n                return true;\n            }\n\n            //this means the wizard is the first wizard registered or that the mapping defaulted\n            if (index == 0) { \n                //check if its the first wizard registered\n                return  _wizardsRegistered[index].wizardId == wizardId;\n            }\n        }\n\n        return false;\n    }\n\n    function registerWizard(uint256 wizardId, uint256 weiPerPowerPrice) external {\n        //check that wizard belongs to sender address (ommitted for now)\n\n        //check for duplicate registration\n        if(isDuplicateWizard(wizardId)){\n            //update price per power and registration flag\n            uint256 index = getWizardIndexById(wizardId);\n            _wizardsRegistered[index].weiPerPowerPrice = weiPerPowerPrice;\n            _wizardsRegistered[index].registeredForPowerExchange = true;\n            return;\n        }\n\n        //create registeredWizard struct\n        RegisteredWizard memory wizard = RegisteredWizard(wizardId, weiPerPowerPrice, msg.sender, true);\n\n        //determine index of registered wizard\n        uint wizardIndex = _wizardsRegistered.length;\n        //register wizardId into mapping\n        _indexOfWizard[wizardId] = wizardIndex;\n\n        _wizardsRegistered.push(wizard);\n    }\n\n    function unregisterWizard(uint256 wizardId) external {\n        //wizard should be a duplicate because this means that its already been registered, can't unregister a wizard that was never registered\n        require(isDuplicateWizard(wizardId), \"wizard needs to be registered\");\n\n\n        //find registered wizard and remove from _registeredWizards\n        removeRegisteredWizard(wizardId);\n    }\n\n    function removeRegisteredWizard(uint256 wizardToUnregister) internal {\n        uint index = _indexOfWizard[wizardToUnregister];\n\n        //unregister the wizard\n        _wizardsRegistered[index].registeredForPowerExchange = false;\n    }\n\n    function getAllRegisteredWizards() public view returns(RegisteredWizard[] memory){\n        return _wizardsRegistered;\n    }\n\n    function getWizardIndexById(uint256 wizardId) public view returns (uint256) {\n        return _indexOfWizard[wizardId];\n    }\n\n    function isWizardRegistered(uint256 wizardId) public view returns (bool) {\n        bool isDuplicate = isDuplicateWizard(wizardId);\n\n        //wizard has not been registered yet\n        if (!isDuplicate)\n            return false;\n        \n        //get wizard by index\n        uint index = _indexOfWizard[wizardId];\n        return _wizardsRegistered[index].registeredForPowerExchange;\n    }\n\n}",
  "sourcePath": "/Users/ethane/Documents/dev/ParmesanPals/contracts/WizardPowerExchange.sol",
  "compiler": {
    "name": "solc",
    "version": "0.5.11+commit.c082d0b4.Emscripten.clang",
    "optimizer": false,
    "runs": 200
  },
  "schemaVersion": "1.2.0",
  "updatedAt": "2019-09-15T11:53:15.015Z"
}