{
  "contractName": "WizardPowerExchange",
  "abi": [
    {
      "constant": true,
      "inputs": [
        {
          "name": "",
          "type": "uint256"
        }
      ],
      "name": "_wizardsRegistered",
      "outputs": [
        {
          "name": "wizardId",
          "type": "uint256"
        },
        {
          "name": "weiPerPowerPrice",
          "type": "uint256"
        },
        {
          "name": "wizardOwner",
          "type": "address"
        },
        {
          "name": "registeredForPowerExchange",
          "type": "bool"
        }
      ],
      "payable": false,
      "stateMutability": "view",
      "type": "function"
    },
    {
      "constant": true,
      "inputs": [],
      "name": "_manager",
      "outputs": [
        {
          "name": "",
          "type": "address"
        }
      ],
      "payable": false,
      "stateMutability": "view",
      "type": "function"
    },
    {
      "inputs": [],
      "payable": false,
      "stateMutability": "nonpayable",
      "type": "constructor"
    },
    {
      "constant": true,
      "inputs": [
        {
          "name": "wizardId",
          "type": "uint256"
        }
      ],
      "name": "isDuplicateWizard",
      "outputs": [
        {
          "name": "",
          "type": "bool"
        }
      ],
      "payable": false,
      "stateMutability": "view",
      "type": "function"
    },
    {
      "constant": false,
      "inputs": [
        {
          "name": "wizardId",
          "type": "uint256"
        },
        {
          "name": "weiPerPowerPrice",
          "type": "uint256"
        }
      ],
      "name": "registerWizard",
      "outputs": [],
      "payable": false,
      "stateMutability": "nonpayable",
      "type": "function"
    },
    {
      "constant": false,
      "inputs": [
        {
          "name": "wizardId",
          "type": "uint256"
        }
      ],
      "name": "unregisterWizard",
      "outputs": [],
      "payable": false,
      "stateMutability": "nonpayable",
      "type": "function"
    },
    {
      "constant": true,
      "inputs": [],
      "name": "getAllRegisteredWizards",
      "outputs": [
        {
          "components": [
            {
              "name": "wizardId",
              "type": "uint256"
            },
            {
              "name": "weiPerPowerPrice",
              "type": "uint256"
            },
            {
              "name": "wizardOwner",
              "type": "address"
            },
            {
              "name": "registeredForPowerExchange",
              "type": "bool"
            }
          ],
          "name": "",
          "type": "tuple[]"
        }
      ],
      "payable": false,
      "stateMutability": "view",
      "type": "function"
    },
    {
      "constant": true,
      "inputs": [
        {
          "name": "wizardId",
          "type": "uint256"
        }
      ],
      "name": "getWizardIndexById",
      "outputs": [
        {
          "name": "",
          "type": "uint256"
        }
      ],
      "payable": false,
      "stateMutability": "view",
      "type": "function"
    },
    {
      "constant": true,
      "inputs": [
        {
          "name": "wizardId",
          "type": "uint256"
        }
      ],
      "name": "isWizardRegistered",
      "outputs": [
        {
          "name": "",
          "type": "bool"
        }
      ],
      "payable": false,
      "stateMutability": "view",
      "type": "function"
    }
  ],
  "bytecode": "0x608060405234801561001057600080fd5b50336000806101000a81548173ffffffffffffffffffffffffffffffffffffffff021916908373ffffffffffffffffffffffffffffffffffffffff160217905550610a66806100606000396000f3fe608060405234801561001057600080fd5b50600436106100a4576000357c010000000000000000000000000000000000000000000000000000000090048063d90d376011610078578063d90d376014610143578063ea748ef21461015f578063eef0d2af14610192578063f0329f6b146101c2576100a4565b80627dfd21146100a95780630d8650a0146100d95780635123af89146100f75780637c59de5514610113575b600080fd5b6100c360048036036100be91908101906106f5565b6101e0565b6040516100d09190610933565b60405180910390f35b6100e16101fd565b6040516100ee91906108d6565b60405180910390f35b610111600480360361010c91908101906106f5565b6102e2565b005b61012d600480360361012891908101906106f5565b610338565b60405161013a91906108f8565b60405180910390f35b61015d6004803603610158919081019061071e565b6103b3565b005b610179600480360361017491908101906106f5565b61054b565b604051610189949392919061094e565b60405180910390f35b6101ac60048036036101a791908101906106f5565b6105b7565b6040516101b991906108f8565b60405180910390f35b6101ca610626565b6040516101d791906108bb565b60405180910390f35b600060026000838152602001908152602001600020549050919050565b60606001805480602002602001604051908101604052809291908181526020016000905b828210156102d957838290600052602060002090600302016080604051908101604052908160008201548152602001600182015481526020016002820160009054906101000a900473ffffffffffffffffffffffffffffffffffffffff1673ffffffffffffffffffffffffffffffffffffffff1673ffffffffffffffffffffffffffffffffffffffff1681526020016002820160149054906101000a900460ff16151515158152505081526020019060010190610221565b50505050905090565b6102eb81610338565b151561032c576040517f08c379a000000000000000000000000000000000000000000000000000000000815260040161032390610913565b60405180910390fd5b6103358161064b565b50565b6000600180805490501015156103a95760006002600084815260200190815260200160002054905060008111156103735760019150506103ae565b60008114156103a7578260018281548110151561038c57fe5b906000526020600020906003020160000154149150506103ae565b505b600090505b919050565b6103bc82610338565b156104315760006103cc836101e0565b9050816001828154811015156103de57fe5b9060005260206000209060030201600101819055506001808281548110151561040357fe5b906000526020600020906003020160020160146101000a81548160ff02191690831515021790555050610547565b6104396106a0565b6080604051908101604052808481526020018381526020013373ffffffffffffffffffffffffffffffffffffffff1681526020016001151581525090506000600180549050905080600260008681526020019081526020016000208190555060018290806001815401808255809150509060018203906000526020600020906003020160009091929091909150600082015181600001556020820151816001015560408201518160020160006101000a81548173ffffffffffffffffffffffffffffffffffffffff021916908373ffffffffffffffffffffffffffffffffffffffff16021790555060608201518160020160146101000a81548160ff02191690831515021790555050505050505b5050565b60018181548110151561055a57fe5b90600052602060002090600302016000915090508060000154908060010154908060020160009054906101000a900473ffffffffffffffffffffffffffffffffffffffff16908060020160149054906101000a900460ff16905084565b6000806105c383610338565b90508015156105d6576000915050610621565b6000600260008581526020019081526020016000205490506001818154811015156105fd57fe5b906000526020600020906003020160020160149054906101000a900460ff16925050505b919050565b6000809054906101000a900473ffffffffffffffffffffffffffffffffffffffff1681565b600060026000838152602001908152602001600020549050600060018281548110151561067457fe5b906000526020600020906003020160020160146101000a81548160ff0219169083151502179055505050565b6080604051908101604052806000815260200160008152602001600073ffffffffffffffffffffffffffffffffffffffff1681526020016000151581525090565b60006106ed8235610a22565b905092915050565b60006020828403121561070757600080fd5b6000610715848285016106e1565b91505092915050565b6000806040838503121561073157600080fd5b600061073f858286016106e1565b9250506020610750858286016106e1565b9150509250929050565b60006107668383610848565b60808301905092915050565b61077b816109da565b82525050565b61078a816109da565b82525050565b600061079b826109a0565b6107a581856109b8565b93506107b083610993565b60005b828110156107de576107c686835161075a565b95506107d1826109ab565b91506001810190506107b3565b50849250505092915050565b6107f3816109ec565b82525050565b610802816109ec565b82525050565b6000610815601d836109c9565b91507f77697a617264206e6565647320746f20626520726567697374657265640000006000830152602082019050919050565b60808201600082015161085e600085018261089d565b506020820151610871602085018261089d565b5060408201516108846040850182610772565b50606082015161089760608501826107ea565b50505050565b6108a681610a18565b82525050565b6108b581610a18565b82525050565b60006020820190506108d06000830184610781565b92915050565b600060208201905081810360008301526108f08184610790565b905092915050565b600060208201905061090d60008301846107f9565b92915050565b6000602082019050818103600083015261092c81610808565b9050919050565b600060208201905061094860008301846108ac565b92915050565b600060808201905061096360008301876108ac565b61097060208301866108ac565b61097d6040830185610781565b61098a60608301846107f9565b95945050505050565b6000602082019050919050565b600081519050919050565b6000602082019050919050565b600082825260208201905092915050565b600082825260208201905092915050565b60006109e5826109f8565b9050919050565b60008115159050919050565b600073ffffffffffffffffffffffffffffffffffffffff82169050919050565b6000819050919050565b600081905091905056fea265627a7a7230582064046fa721d85caaacec76459f3038d7b7f5aa5834c76d469b23de4c3c3f32506c6578706572696d656e74616cf50037",
  "source": "pragma solidity ^0.5.0;\r\npragma experimental ABIEncoderV2;\r\n\r\ncontract WizardPowerExchange {\r\n\r\n    address public _manager;\r\n    struct RegisteredWizard {\r\n        uint256 wizardId;\r\n        uint256 weiPerPowerPrice;\r\n        address wizardOwner;\r\n        bool registeredForPowerExchange;\r\n    }\r\n    //array of all wizards registered for power exchange\r\n    RegisteredWizard[] public _wizardsRegistered;\r\n    //mapping of registeredWizardId to array index\r\n    mapping(uint=>uint) _indexOfWizard;\r\n\r\n    constructor() public{\r\n        //set the manager of this contract = deployer account\r\n        _manager = msg.sender;\r\n    }\r\n\r\n    function isDuplicateWizard (uint256 wizardId) public view returns (bool){\r\n        //duplicates can only occur when there are wizards registered\r\n        if (_wizardsRegistered.length >= 1){\r\n\r\n            uint index = _indexOfWizard[wizardId];\r\n            //we found a wizard index, therefore a wizard with this id must have already been registered\r\n            if (index > 0){\r\n                return true;\r\n            }\r\n\r\n            //this means the wizard is the first wizard registered or that the mapping defaulted\r\n            if (index == 0) { \r\n                //check if its the first wizard registered\r\n                return  _wizardsRegistered[index].wizardId == wizardId;\r\n            }\r\n        }\r\n\r\n        return false;\r\n    }\r\n\r\n    function registerWizard(uint256 wizardId, uint256 weiPerPowerPrice) external {\r\n        //check that wizard belongs to sender address (ommitted for now)\r\n\r\n        //check for duplicate registration\r\n        if(isDuplicateWizard(wizardId)){\r\n            //update price per power and registration flag\r\n            uint256 index = getWizardIndexById(wizardId);\r\n            _wizardsRegistered[index].weiPerPowerPrice = weiPerPowerPrice;\r\n            _wizardsRegistered[index].registeredForPowerExchange = true;\r\n            return;\r\n        }\r\n\r\n        //create registeredWizard struct\r\n        RegisteredWizard memory wizard = RegisteredWizard(wizardId, weiPerPowerPrice, msg.sender, true);\r\n\r\n        //determine index of registered wizard\r\n        uint wizardIndex = _wizardsRegistered.length;\r\n        //register wizardId into mapping\r\n        _indexOfWizard[wizardId] = wizardIndex;\r\n\r\n        _wizardsRegistered.push(wizard);\r\n    }\r\n\r\n    function unregisterWizard(uint256 wizardId) external {\r\n        //wizard should be a duplicate because this means that its already been registered, can't unregister a wizard that was never registered\r\n        require(isDuplicateWizard(wizardId), \"wizard needs to be registered\");\r\n\r\n\r\n        //find registered wizard and remove from _registeredWizards\r\n        removeRegisteredWizard(wizardId);\r\n    }\r\n\r\n    function removeRegisteredWizard(uint256 wizardToUnregister) internal {\r\n        uint index = _indexOfWizard[wizardToUnregister];\r\n\r\n        //unregister the wizard\r\n        _wizardsRegistered[index].registeredForPowerExchange = false;\r\n    }\r\n\r\n    function getAllRegisteredWizards() public view returns(RegisteredWizard[] memory){\r\n        return _wizardsRegistered;\r\n    }\r\n\r\n    function getWizardIndexById(uint256 wizardId) public view returns (uint256) {\r\n        return _indexOfWizard[wizardId];\r\n    }\r\n\r\n    function isWizardRegistered(uint256 wizardId) public view returns (bool) {\r\n        bool isDuplicate = isDuplicateWizard(wizardId);\r\n\r\n        //wizard has not been registered yet\r\n        if (!isDuplicate)\r\n            return false;\r\n        \r\n        //get wizard by index\r\n        uint index = _indexOfWizard[wizardId];\r\n        return _wizardsRegistered[index].registeredForPowerExchange;\r\n    }\r\n\r\n}",
  "sourcePath": "C:\\repos\\ParmesanPals\\contracts\\WizardPowerExchange.sol",
  "compiler": {
    "name": "solc",
    "version": "0.5.4+commit.9549d8ff.Emscripten.clang"
  },
  "schemaVersion": "1.0.1",
  "updatedAt": "2019-09-14T20:23:50.137Z"
}